{
  "_format": "hh-sol-artifact-1",
  "contractName": "BucketAuction",
  "sourceName": "contracts/BucketAuction.sol",
  "abi": [
    {
      "inputs": [
        {
          "internalType": "string",
          "name": "collectionName",
          "type": "string"
        },
        {
          "internalType": "string",
          "name": "collectionSymbol",
          "type": "string"
        },
        {
          "internalType": "string",
          "name": "tokenURISuffix",
          "type": "string"
        },
        {
          "internalType": "uint256",
          "name": "maxMintableSupply",
          "type": "uint256"
        },
        {
          "internalType": "uint256",
          "name": "globalWalletLimit",
          "type": "uint256"
        },
        {
          "internalType": "address",
          "name": "cosigner",
          "type": "address"
        },
        {
          "internalType": "uint256",
          "name": "minimumContributionInWei",
          "type": "uint256"
        },
        {
          "internalType": "uint64",
          "name": "startTimeUnixSeconds",
          "type": "uint64"
        },
        {
          "internalType": "uint64",
          "name": "endTimeUnixSeconds",
          "type": "uint64"
        }
      ],
      "stateMutability": "nonpayable",
      "type": "constructor"
    },
    {
      "inputs": [],
      "name": "AlreadySentTokensToUser",
      "type": "error"
    },
    {
      "inputs": [],
      "name": "ApprovalCallerNotOwnerNorApproved",
      "type": "error"
    },
    {
      "inputs": [],
      "name": "ApprovalQueryForNonexistentToken",
      "type": "error"
    },
    {
      "inputs": [],
      "name": "BalanceQueryForZeroAddress",
      "type": "error"
    },
    {
      "inputs": [],
      "name": "BucketAuctionActive",
      "type": "error"
    },
    {
      "inputs": [],
      "name": "BucketAuctionNotActive",
      "type": "error"
    },
    {
      "inputs": [],
      "name": "CannotIncreaseMaxMintableSupply",
      "type": "error"
    },
    {
      "inputs": [],
      "name": "CannotSendMoreThanUserPurchased",
      "type": "error"
    },
    {
      "inputs": [],
      "name": "CannotSetPriceIfClaimable",
      "type": "error"
    },
    {
      "inputs": [],
      "name": "CannotSetPriceIfFirstTokenSent",
      "type": "error"
    },
    {
      "inputs": [],
      "name": "CannotUpdatePermanentBaseURI",
      "type": "error"
    },
    {
      "inputs": [],
      "name": "CosignerNotSet",
      "type": "error"
    },
    {
      "inputs": [],
      "name": "CrossmintAddressNotSet",
      "type": "error"
    },
    {
      "inputs": [],
      "name": "CrossmintOnly",
      "type": "error"
    },
    {
      "inputs": [],
      "name": "GlobalWalletLimitOverflow",
      "type": "error"
    },
    {
      "inputs": [],
      "name": "InsufficientStageTimeGap",
      "type": "error"
    },
    {
      "inputs": [],
      "name": "InvalidCosignSignature",
      "type": "error"
    },
    {
      "inputs": [],
      "name": "InvalidProof",
      "type": "error"
    },
    {
      "inputs": [],
      "name": "InvalidQueryRange",
      "type": "error"
    },
    {
      "inputs": [],
      "name": "InvalidStage",
      "type": "error"
    },
    {
      "inputs": [],
      "name": "InvalidStageArgsLength",
      "type": "error"
    },
    {
      "inputs": [],
      "name": "InvalidStartAndEndTimestamp",
      "type": "error"
    },
    {
      "inputs": [],
      "name": "LowerThanMinBidAmount",
      "type": "error"
    },
    {
      "inputs": [],
      "name": "MintERC2309QuantityExceedsLimit",
      "type": "error"
    },
    {
      "inputs": [],
      "name": "MintToZeroAddress",
      "type": "error"
    },
    {
      "inputs": [],
      "name": "MintZeroQuantity",
      "type": "error"
    },
    {
      "inputs": [],
      "name": "Mintable",
      "type": "error"
    },
    {
      "inputs": [],
      "name": "NoSupplyLeft",
      "type": "error"
    },
    {
      "inputs": [],
      "name": "NotClaimable",
      "type": "error"
    },
    {
      "inputs": [],
      "name": "NotEnoughValue",
      "type": "error"
    },
    {
      "inputs": [],
      "name": "NotMintable",
      "type": "error"
    },
    {
      "inputs": [],
      "name": "OwnerQueryForNonexistentToken",
      "type": "error"
    },
    {
      "inputs": [],
      "name": "OwnershipNotInitializedForExtraData",
      "type": "error"
    },
    {
      "inputs": [],
      "name": "PriceHasBeenSet",
      "type": "error"
    },
    {
      "inputs": [],
      "name": "PriceNotSet",
      "type": "error"
    },
    {
      "inputs": [],
      "name": "StageSupplyExceeded",
      "type": "error"
    },
    {
      "inputs": [],
      "name": "TimestampExpired",
      "type": "error"
    },
    {
      "inputs": [],
      "name": "TransferCallerNotOwnerNorApproved",
      "type": "error"
    },
    {
      "inputs": [],
      "name": "TransferFailed",
      "type": "error"
    },
    {
      "inputs": [],
      "name": "TransferFromIncorrectOwner",
      "type": "error"
    },
    {
      "inputs": [],
      "name": "TransferToNonERC721ReceiverImplementer",
      "type": "error"
    },
    {
      "inputs": [],
      "name": "TransferToZeroAddress",
      "type": "error"
    },
    {
      "inputs": [],
      "name": "URIQueryForNonexistentToken",
      "type": "error"
    },
    {
      "inputs": [],
      "name": "UserAlreadyClaimed",
      "type": "error"
    },
    {
      "inputs": [],
      "name": "WalletGlobalLimitExceeded",
      "type": "error"
    },
    {
      "inputs": [],
      "name": "WalletStageLimitExceeded",
      "type": "error"
    },
    {
      "inputs": [],
      "name": "WithdrawFailed",
      "type": "error"
    },
    {
      "anonymous": false,
      "inputs": [
        {
          "indexed": true,
          "internalType": "address",
          "name": "owner",
          "type": "address"
        },
        {
          "indexed": true,
          "internalType": "address",
          "name": "approved",
          "type": "address"
        },
        {
          "indexed": true,
          "internalType": "uint256",
          "name": "tokenId",
          "type": "uint256"
        }
      ],
      "name": "Approval",
      "type": "event"
    },
    {
      "anonymous": false,
      "inputs": [
        {
          "indexed": true,
          "internalType": "address",
          "name": "owner",
          "type": "address"
        },
        {
          "indexed": true,
          "internalType": "address",
          "name": "operator",
          "type": "address"
        },
        {
          "indexed": false,
          "internalType": "bool",
          "name": "approved",
          "type": "bool"
        }
      ],
      "name": "ApprovalForAll",
      "type": "event"
    },
    {
      "anonymous": false,
      "inputs": [
        {
          "indexed": true,
          "internalType": "address",
          "name": "bidder",
          "type": "address"
        },
        {
          "indexed": false,
          "internalType": "uint256",
          "name": "bidAmount",
          "type": "uint256"
        },
        {
          "indexed": false,
          "internalType": "uint256",
          "name": "bidderTotal",
          "type": "uint256"
        },
        {
          "indexed": false,
          "internalType": "uint256",
          "name": "bucketTotal",
          "type": "uint256"
        }
      ],
      "name": "Bid",
      "type": "event"
    },
    {
      "anonymous": false,
      "inputs": [
        {
          "indexed": true,
          "internalType": "uint256",
          "name": "fromTokenId",
          "type": "uint256"
        },
        {
          "indexed": false,
          "internalType": "uint256",
          "name": "toTokenId",
          "type": "uint256"
        },
        {
          "indexed": true,
          "internalType": "address",
          "name": "from",
          "type": "address"
        },
        {
          "indexed": true,
          "internalType": "address",
          "name": "to",
          "type": "address"
        }
      ],
      "name": "ConsecutiveTransfer",
      "type": "event"
    },
    {
      "anonymous": false,
      "inputs": [
        {
          "indexed": true,
          "internalType": "address",
          "name": "previousOwner",
          "type": "address"
        },
        {
          "indexed": true,
          "internalType": "address",
          "name": "newOwner",
          "type": "address"
        }
      ],
      "name": "OwnershipTransferred",
      "type": "event"
    },
    {
      "anonymous": false,
      "inputs": [
        {
          "indexed": false,
          "internalType": "string",
          "name": "baseURI",
          "type": "string"
        }
      ],
      "name": "PermanentBaseURI",
      "type": "event"
    },
    {
      "anonymous": false,
      "inputs": [
        {
          "indexed": false,
          "internalType": "uint256",
          "name": "activeStage",
          "type": "uint256"
        }
      ],
      "name": "SetActiveStage",
      "type": "event"
    },
    {
      "anonymous": false,
      "inputs": [
        {
          "indexed": false,
          "internalType": "string",
          "name": "baseURI",
          "type": "string"
        }
      ],
      "name": "SetBaseURI",
      "type": "event"
    },
    {
      "anonymous": false,
      "inputs": [
        {
          "indexed": false,
          "internalType": "bool",
          "name": "claimable",
          "type": "bool"
        }
      ],
      "name": "SetClaimable",
      "type": "event"
    },
    {
      "anonymous": false,
      "inputs": [
        {
          "indexed": false,
          "internalType": "address",
          "name": "cosigner",
          "type": "address"
        }
      ],
      "name": "SetCosigner",
      "type": "event"
    },
    {
      "anonymous": false,
      "inputs": [
        {
          "indexed": false,
          "internalType": "address",
          "name": "crossmintAddress",
          "type": "address"
        }
      ],
      "name": "SetCrossmintAddress",
      "type": "event"
    },
    {
      "anonymous": false,
      "inputs": [
        {
          "indexed": false,
          "internalType": "uint256",
          "name": "globalWalletLimit",
          "type": "uint256"
        }
      ],
      "name": "SetGlobalWalletLimit",
      "type": "event"
    },
    {
      "anonymous": false,
      "inputs": [
        {
          "indexed": false,
          "internalType": "uint256",
          "name": "maxMintableSupply",
          "type": "uint256"
        }
      ],
      "name": "SetMaxMintableSupply",
      "type": "event"
    },
    {
      "anonymous": false,
      "inputs": [
        {
          "indexed": false,
          "internalType": "uint256",
          "name": "minimumContributionInWei",
          "type": "uint256"
        }
      ],
      "name": "SetMinimumContribution",
      "type": "event"
    },
    {
      "anonymous": false,
      "inputs": [
        {
          "indexed": false,
          "internalType": "bool",
          "name": "mintable",
          "type": "bool"
        }
      ],
      "name": "SetMintable",
      "type": "event"
    },
    {
      "anonymous": false,
      "inputs": [
        {
          "indexed": false,
          "internalType": "uint256",
          "name": "price",
          "type": "uint256"
        }
      ],
      "name": "SetPrice",
      "type": "event"
    },
    {
      "anonymous": false,
      "inputs": [
        {
          "indexed": false,
          "internalType": "uint64",
          "name": "expiry",
          "type": "uint64"
        }
      ],
      "name": "SetTimestampExpirySeconds",
      "type": "event"
    },
    {
      "anonymous": false,
      "inputs": [
        {
          "indexed": true,
          "internalType": "address",
          "name": "from",
          "type": "address"
        },
        {
          "indexed": true,
          "internalType": "address",
          "name": "to",
          "type": "address"
        },
        {
          "indexed": true,
          "internalType": "uint256",
          "name": "tokenId",
          "type": "uint256"
        }
      ],
      "name": "Transfer",
      "type": "event"
    },
    {
      "anonymous": false,
      "inputs": [
        {
          "indexed": false,
          "internalType": "uint256",
          "name": "stage",
          "type": "uint256"
        },
        {
          "indexed": false,
          "internalType": "uint80",
          "name": "price",
          "type": "uint80"
        },
        {
          "indexed": false,
          "internalType": "uint32",
          "name": "walletLimit",
          "type": "uint32"
        },
        {
          "indexed": false,
          "internalType": "bytes32",
          "name": "merkleRoot",
          "type": "bytes32"
        },
        {
          "indexed": false,
          "internalType": "uint24",
          "name": "maxStageSupply",
          "type": "uint24"
        },
        {
          "indexed": false,
          "internalType": "uint64",
          "name": "startTimeUnixSeconds",
          "type": "uint64"
        },
        {
          "indexed": false,
          "internalType": "uint64",
          "name": "endTimeUnixSeconds",
          "type": "uint64"
        }
      ],
      "name": "UpdateStage",
      "type": "event"
    },
    {
      "anonymous": false,
      "inputs": [
        {
          "indexed": false,
          "internalType": "uint256",
          "name": "value",
          "type": "uint256"
        }
      ],
      "name": "Withdraw",
      "type": "event"
    },
    {
      "inputs": [
        {
          "internalType": "address",
          "name": "a",
          "type": "address"
        }
      ],
      "name": "amountPurchased",
      "outputs": [
        {
          "internalType": "uint256",
          "name": "",
          "type": "uint256"
        }
      ],
      "stateMutability": "view",
      "type": "function"
    },
    {
      "inputs": [
        {
          "internalType": "address",
          "name": "to",
          "type": "address"
        },
        {
          "internalType": "uint256",
          "name": "tokenId",
          "type": "uint256"
        }
      ],
      "name": "approve",
      "outputs": [],
      "stateMutability": "payable",
      "type": "function"
    },
    {
      "inputs": [
        {
          "internalType": "address",
          "name": "minter",
          "type": "address"
        },
        {
          "internalType": "uint32",
          "name": "qty",
          "type": "uint32"
        },
        {
          "internalType": "uint64",
          "name": "timestamp",
          "type": "uint64"
        },
        {
          "internalType": "bytes",
          "name": "signature",
          "type": "bytes"
        }
      ],
      "name": "assertValidCosign",
      "outputs": [],
      "stateMutability": "view",
      "type": "function"
    },
    {
      "inputs": [
        {
          "internalType": "address",
          "name": "owner",
          "type": "address"
        }
      ],
      "name": "balanceOf",
      "outputs": [
        {
          "internalType": "uint256",
          "name": "",
          "type": "uint256"
        }
      ],
      "stateMutability": "view",
      "type": "function"
    },
    {
      "inputs": [],
      "name": "bid",
      "outputs": [],
      "stateMutability": "payable",
      "type": "function"
    },
    {
      "inputs": [],
      "name": "claimTokensAndRefund",
      "outputs": [],
      "stateMutability": "nonpayable",
      "type": "function"
    },
    {
      "inputs": [
        {
          "internalType": "uint32",
          "name": "qty",
          "type": "uint32"
        },
        {
          "internalType": "address",
          "name": "to",
          "type": "address"
        },
        {
          "internalType": "bytes32[]",
          "name": "proof",
          "type": "bytes32[]"
        },
        {
          "internalType": "uint64",
          "name": "timestamp",
          "type": "uint64"
        },
        {
          "internalType": "bytes",
          "name": "signature",
          "type": "bytes"
        }
      ],
      "name": "crossmint",
      "outputs": [],
      "stateMutability": "payable",
      "type": "function"
    },
    {
      "inputs": [
        {
          "internalType": "uint256",
          "name": "tokenId",
          "type": "uint256"
        }
      ],
      "name": "explicitOwnershipOf",
      "outputs": [
        {
          "components": [
            {
              "internalType": "address",
              "name": "addr",
              "type": "address"
            },
            {
              "internalType": "uint64",
              "name": "startTimestamp",
              "type": "uint64"
            },
            {
              "internalType": "bool",
              "name": "burned",
              "type": "bool"
            },
            {
              "internalType": "uint24",
              "name": "extraData",
              "type": "uint24"
            }
          ],
          "internalType": "struct IERC721A.TokenOwnership",
          "name": "",
          "type": "tuple"
        }
      ],
      "stateMutability": "view",
      "type": "function"
    },
    {
      "inputs": [
        {
          "internalType": "uint256[]",
          "name": "tokenIds",
          "type": "uint256[]"
        }
      ],
      "name": "explicitOwnershipsOf",
      "outputs": [
        {
          "components": [
            {
              "internalType": "address",
              "name": "addr",
              "type": "address"
            },
            {
              "internalType": "uint64",
              "name": "startTimestamp",
              "type": "uint64"
            },
            {
              "internalType": "bool",
              "name": "burned",
              "type": "bool"
            },
            {
              "internalType": "uint24",
              "name": "extraData",
              "type": "uint24"
            }
          ],
          "internalType": "struct IERC721A.TokenOwnership[]",
          "name": "",
          "type": "tuple[]"
        }
      ],
      "stateMutability": "view",
      "type": "function"
    },
    {
      "inputs": [
        {
          "internalType": "uint64",
          "name": "timestamp",
          "type": "uint64"
        }
      ],
      "name": "getActiveStageFromTimestamp",
      "outputs": [
        {
          "internalType": "uint256",
          "name": "",
          "type": "uint256"
        }
      ],
      "stateMutability": "view",
      "type": "function"
    },
    {
      "inputs": [
        {
          "internalType": "uint256",
          "name": "tokenId",
          "type": "uint256"
        }
      ],
      "name": "getApproved",
      "outputs": [
        {
          "internalType": "address",
          "name": "",
          "type": "address"
        }
      ],
      "stateMutability": "view",
      "type": "function"
    },
    {
      "inputs": [],
      "name": "getAuctionActive",
      "outputs": [
        {
          "internalType": "bool",
          "name": "",
          "type": "bool"
        }
      ],
      "stateMutability": "view",
      "type": "function"
    },
    {
      "inputs": [],
      "name": "getClaimable",
      "outputs": [
        {
          "internalType": "bool",
          "name": "",
          "type": "bool"
        }
      ],
      "stateMutability": "view",
      "type": "function"
    },
    {
      "inputs": [
        {
          "internalType": "address",
          "name": "minter",
          "type": "address"
        },
        {
          "internalType": "uint32",
          "name": "qty",
          "type": "uint32"
        },
        {
          "internalType": "uint64",
          "name": "timestamp",
          "type": "uint64"
        }
      ],
      "name": "getCosignDigest",
      "outputs": [
        {
          "internalType": "bytes32",
          "name": "",
          "type": "bytes32"
        }
      ],
      "stateMutability": "view",
      "type": "function"
    },
    {
      "inputs": [
        {
          "internalType": "address",
          "name": "minter",
          "type": "address"
        }
      ],
      "name": "getCosignNonce",
      "outputs": [
        {
          "internalType": "uint256",
          "name": "",
          "type": "uint256"
        }
      ],
      "stateMutability": "view",
      "type": "function"
    },
    {
      "inputs": [],
      "name": "getCosigner",
      "outputs": [
        {
          "internalType": "address",
          "name": "",
          "type": "address"
        }
      ],
      "stateMutability": "view",
      "type": "function"
    },
    {
      "inputs": [],
      "name": "getCrossmintAddress",
      "outputs": [
        {
          "internalType": "address",
          "name": "",
          "type": "address"
        }
      ],
      "stateMutability": "view",
      "type": "function"
    },
    {
      "inputs": [],
      "name": "getEndTimeUnixSecods",
      "outputs": [
        {
          "internalType": "uint64",
          "name": "",
          "type": "uint64"
        }
      ],
      "stateMutability": "view",
      "type": "function"
    },
    {
      "inputs": [],
      "name": "getGlobalWalletLimit",
      "outputs": [
        {
          "internalType": "uint256",
          "name": "",
          "type": "uint256"
        }
      ],
      "stateMutability": "view",
      "type": "function"
    },
    {
      "inputs": [],
      "name": "getMaxMintableSupply",
      "outputs": [
        {
          "internalType": "uint256",
          "name": "",
          "type": "uint256"
        }
      ],
      "stateMutability": "view",
      "type": "function"
    },
    {
      "inputs": [],
      "name": "getMinimumContributionInWei",
      "outputs": [
        {
          "internalType": "uint256",
          "name": "",
          "type": "uint256"
        }
      ],
      "stateMutability": "view",
      "type": "function"
    },
    {
      "inputs": [],
      "name": "getMintable",
      "outputs": [
        {
          "internalType": "bool",
          "name": "",
          "type": "bool"
        }
      ],
      "stateMutability": "view",
      "type": "function"
    },
    {
      "inputs": [],
      "name": "getNumberStages",
      "outputs": [
        {
          "internalType": "uint256",
          "name": "",
          "type": "uint256"
        }
      ],
      "stateMutability": "view",
      "type": "function"
    },
    {
      "inputs": [],
      "name": "getPrice",
      "outputs": [
        {
          "internalType": "uint256",
          "name": "",
          "type": "uint256"
        }
      ],
      "stateMutability": "view",
      "type": "function"
    },
    {
      "inputs": [
        {
          "internalType": "uint256",
          "name": "index",
          "type": "uint256"
        }
      ],
      "name": "getStageInfo",
      "outputs": [
        {
          "components": [
            {
              "internalType": "uint80",
              "name": "price",
              "type": "uint80"
            },
            {
              "internalType": "uint32",
              "name": "walletLimit",
              "type": "uint32"
            },
            {
              "internalType": "bytes32",
              "name": "merkleRoot",
              "type": "bytes32"
            },
            {
              "internalType": "uint24",
              "name": "maxStageSupply",
              "type": "uint24"
            },
            {
              "internalType": "uint64",
              "name": "startTimeUnixSeconds",
              "type": "uint64"
            },
            {
              "internalType": "uint64",
              "name": "endTimeUnixSeconds",
              "type": "uint64"
            }
          ],
          "internalType": "struct IERC721M.MintStageInfo",
          "name": "",
          "type": "tuple"
        },
        {
          "internalType": "uint32",
          "name": "",
          "type": "uint32"
        },
        {
          "internalType": "uint256",
          "name": "",
          "type": "uint256"
        }
      ],
      "stateMutability": "view",
      "type": "function"
    },
    {
      "inputs": [],
      "name": "getStartTimeUnixSecods",
      "outputs": [
        {
          "internalType": "uint64",
          "name": "",
          "type": "uint64"
        }
      ],
      "stateMutability": "view",
      "type": "function"
    },
    {
      "inputs": [],
      "name": "getTimestampExpirySeconds",
      "outputs": [
        {
          "internalType": "uint64",
          "name": "",
          "type": "uint64"
        }
      ],
      "stateMutability": "view",
      "type": "function"
    },
    {
      "inputs": [],
      "name": "getTokenURISuffix",
      "outputs": [
        {
          "internalType": "string",
          "name": "",
          "type": "string"
        }
      ],
      "stateMutability": "view",
      "type": "function"
    },
    {
      "inputs": [],
      "name": "getTotalUsers",
      "outputs": [
        {
          "internalType": "uint256",
          "name": "",
          "type": "uint256"
        }
      ],
      "stateMutability": "view",
      "type": "function"
    },
    {
      "inputs": [
        {
          "internalType": "address",
          "name": "user",
          "type": "address"
        }
      ],
      "name": "getUserData",
      "outputs": [
        {
          "components": [
            {
              "internalType": "uint216",
              "name": "contribution",
              "type": "uint216"
            },
            {
              "internalType": "uint32",
              "name": "tokensClaimed",
              "type": "uint32"
            },
            {
              "internalType": "bool",
              "name": "refundClaimed",
              "type": "bool"
            }
          ],
          "internalType": "struct IBucketAuction.User",
          "name": "",
          "type": "tuple"
        }
      ],
      "stateMutability": "view",
      "type": "function"
    },
    {
      "inputs": [
        {
          "internalType": "uint256",
          "name": "limit",
          "type": "uint256"
        },
        {
          "internalType": "uint256",
          "name": "offset",
          "type": "uint256"
        }
      ],
      "name": "getUserDataPage",
      "outputs": [
        {
          "components": [
            {
              "internalType": "uint216",
              "name": "contribution",
              "type": "uint216"
            },
            {
              "internalType": "uint32",
              "name": "tokensClaimed",
              "type": "uint32"
            },
            {
              "internalType": "bool",
              "name": "refundClaimed",
              "type": "bool"
            }
          ],
          "internalType": "struct IBucketAuction.User[]",
          "name": "",
          "type": "tuple[]"
        },
        {
          "internalType": "address[]",
          "name": "",
          "type": "address[]"
        },
        {
          "internalType": "uint256",
          "name": "total",
          "type": "uint256"
        }
      ],
      "stateMutability": "view",
      "type": "function"
    },
    {
      "inputs": [
        {
          "internalType": "address",
          "name": "owner",
          "type": "address"
        },
        {
          "internalType": "address",
          "name": "operator",
          "type": "address"
        }
      ],
      "name": "isApprovedForAll",
      "outputs": [
        {
          "internalType": "bool",
          "name": "",
          "type": "bool"
        }
      ],
      "stateMutability": "view",
      "type": "function"
    },
    {
      "inputs": [
        {
          "internalType": "uint32",
          "name": "qty",
          "type": "uint32"
        },
        {
          "internalType": "bytes32[]",
          "name": "proof",
          "type": "bytes32[]"
        },
        {
          "internalType": "uint64",
          "name": "timestamp",
          "type": "uint64"
        },
        {
          "internalType": "bytes",
          "name": "signature",
          "type": "bytes"
        }
      ],
      "name": "mint",
      "outputs": [],
      "stateMutability": "payable",
      "type": "function"
    },
    {
      "inputs": [],
      "name": "name",
      "outputs": [
        {
          "internalType": "string",
          "name": "",
          "type": "string"
        }
      ],
      "stateMutability": "view",
      "type": "function"
    },
    {
      "inputs": [],
      "name": "owner",
      "outputs": [
        {
          "internalType": "address",
          "name": "",
          "type": "address"
        }
      ],
      "stateMutability": "view",
      "type": "function"
    },
    {
      "inputs": [
        {
          "internalType": "uint32",
          "name": "qty",
          "type": "uint32"
        },
        {
          "internalType": "address",
          "name": "to",
          "type": "address"
        }
      ],
      "name": "ownerMint",
      "outputs": [],
      "stateMutability": "nonpayable",
      "type": "function"
    },
    {
      "inputs": [
        {
          "internalType": "uint256",
          "name": "tokenId",
          "type": "uint256"
        }
      ],
      "name": "ownerOf",
      "outputs": [
        {
          "internalType": "address",
          "name": "",
          "type": "address"
        }
      ],
      "stateMutability": "view",
      "type": "function"
    },
    {
      "inputs": [
        {
          "internalType": "address",
          "name": "a",
          "type": "address"
        }
      ],
      "name": "refundAmount",
      "outputs": [
        {
          "internalType": "uint256",
          "name": "",
          "type": "uint256"
        }
      ],
      "stateMutability": "view",
      "type": "function"
    },
    {
      "inputs": [],
      "name": "renounceOwnership",
      "outputs": [],
      "stateMutability": "nonpayable",
      "type": "function"
    },
    {
      "inputs": [
        {
          "internalType": "address",
          "name": "from",
          "type": "address"
        },
        {
          "internalType": "address",
          "name": "to",
          "type": "address"
        },
        {
          "internalType": "uint256",
          "name": "tokenId",
          "type": "uint256"
        }
      ],
      "name": "safeTransferFrom",
      "outputs": [],
      "stateMutability": "payable",
      "type": "function"
    },
    {
      "inputs": [
        {
          "internalType": "address",
          "name": "from",
          "type": "address"
        },
        {
          "internalType": "address",
          "name": "to",
          "type": "address"
        },
        {
          "internalType": "uint256",
          "name": "tokenId",
          "type": "uint256"
        },
        {
          "internalType": "bytes",
          "name": "_data",
          "type": "bytes"
        }
      ],
      "name": "safeTransferFrom",
      "outputs": [],
      "stateMutability": "payable",
      "type": "function"
    },
    {
      "inputs": [
        {
          "internalType": "address",
          "name": "to",
          "type": "address"
        }
      ],
      "name": "sendAllTokens",
      "outputs": [],
      "stateMutability": "nonpayable",
      "type": "function"
    },
    {
      "inputs": [
        {
          "internalType": "address",
          "name": "to",
          "type": "address"
        }
      ],
      "name": "sendRefund",
      "outputs": [],
      "stateMutability": "nonpayable",
      "type": "function"
    },
    {
      "inputs": [
        {
          "internalType": "address[]",
          "name": "addresses",
          "type": "address[]"
        }
      ],
      "name": "sendRefundBatch",
      "outputs": [],
      "stateMutability": "nonpayable",
      "type": "function"
    },
    {
      "inputs": [
        {
          "internalType": "address",
          "name": "to",
          "type": "address"
        },
        {
          "internalType": "uint256",
          "name": "n",
          "type": "uint256"
        }
      ],
      "name": "sendTokens",
      "outputs": [],
      "stateMutability": "nonpayable",
      "type": "function"
    },
    {
      "inputs": [
        {
          "internalType": "address",
          "name": "to",
          "type": "address"
        }
      ],
      "name": "sendTokensAndRefund",
      "outputs": [],
      "stateMutability": "nonpayable",
      "type": "function"
    },
    {
      "inputs": [
        {
          "internalType": "address[]",
          "name": "addresses",
          "type": "address[]"
        }
      ],
      "name": "sendTokensAndRefundBatch",
      "outputs": [],
      "stateMutability": "nonpayable",
      "type": "function"
    },
    {
      "inputs": [
        {
          "internalType": "address[]",
          "name": "addresses",
          "type": "address[]"
        }
      ],
      "name": "sendTokensBatch",
      "outputs": [],
      "stateMutability": "nonpayable",
      "type": "function"
    },
    {
      "inputs": [
        {
          "internalType": "address",
          "name": "operator",
          "type": "address"
        },
        {
          "internalType": "bool",
          "name": "approved",
          "type": "bool"
        }
      ],
      "name": "setApprovalForAll",
      "outputs": [],
      "stateMutability": "nonpayable",
      "type": "function"
    },
    {
      "inputs": [
        {
          "internalType": "string",
          "name": "baseURI",
          "type": "string"
        }
      ],
      "name": "setBaseURI",
      "outputs": [],
      "stateMutability": "nonpayable",
      "type": "function"
    },
    {
      "inputs": [],
      "name": "setBaseURIPermanent",
      "outputs": [],
      "stateMutability": "nonpayable",
      "type": "function"
    },
    {
      "inputs": [
        {
          "internalType": "bool",
          "name": "b",
          "type": "bool"
        }
      ],
      "name": "setClaimable",
      "outputs": [],
      "stateMutability": "nonpayable",
      "type": "function"
    },
    {
      "inputs": [
        {
          "internalType": "address",
          "name": "cosigner",
          "type": "address"
        }
      ],
      "name": "setCosigner",
      "outputs": [],
      "stateMutability": "nonpayable",
      "type": "function"
    },
    {
      "inputs": [
        {
          "internalType": "address",
          "name": "crossmintAddress",
          "type": "address"
        }
      ],
      "name": "setCrossmintAddress",
      "outputs": [],
      "stateMutability": "nonpayable",
      "type": "function"
    },
    {
      "inputs": [
        {
          "internalType": "uint256",
          "name": "globalWalletLimit",
          "type": "uint256"
        }
      ],
      "name": "setGlobalWalletLimit",
      "outputs": [],
      "stateMutability": "nonpayable",
      "type": "function"
    },
    {
      "inputs": [
        {
          "internalType": "uint256",
          "name": "maxMintableSupply",
          "type": "uint256"
        }
      ],
      "name": "setMaxMintableSupply",
      "outputs": [],
      "stateMutability": "nonpayable",
      "type": "function"
    },
    {
      "inputs": [
        {
          "internalType": "uint256",
          "name": "minimumContributionInWei",
          "type": "uint256"
        }
      ],
      "name": "setMinimumContribution",
      "outputs": [],
      "stateMutability": "nonpayable",
      "type": "function"
    },
    {
      "inputs": [
        {
          "internalType": "bool",
          "name": "mintable",
          "type": "bool"
        }
      ],
      "name": "setMintable",
      "outputs": [],
      "stateMutability": "nonpayable",
      "type": "function"
    },
    {
      "inputs": [
        {
          "internalType": "uint256",
          "name": "priceInWei",
          "type": "uint256"
        }
      ],
      "name": "setPrice",
      "outputs": [],
      "stateMutability": "nonpayable",
      "type": "function"
    },
    {
      "inputs": [
        {
          "components": [
            {
              "internalType": "uint80",
              "name": "price",
              "type": "uint80"
            },
            {
              "internalType": "uint32",
              "name": "walletLimit",
              "type": "uint32"
            },
            {
              "internalType": "bytes32",
              "name": "merkleRoot",
              "type": "bytes32"
            },
            {
              "internalType": "uint24",
              "name": "maxStageSupply",
              "type": "uint24"
            },
            {
              "internalType": "uint64",
              "name": "startTimeUnixSeconds",
              "type": "uint64"
            },
            {
              "internalType": "uint64",
              "name": "endTimeUnixSeconds",
              "type": "uint64"
            }
          ],
          "internalType": "struct IERC721M.MintStageInfo[]",
          "name": "newStages",
          "type": "tuple[]"
        }
      ],
      "name": "setStages",
      "outputs": [],
      "stateMutability": "nonpayable",
      "type": "function"
    },
    {
      "inputs": [
        {
          "internalType": "uint64",
          "name": "startTime",
          "type": "uint64"
        },
        {
          "internalType": "uint64",
          "name": "endTime",
          "type": "uint64"
        }
      ],
      "name": "setStartAndEndTimeUnixSeconds",
      "outputs": [],
      "stateMutability": "nonpayable",
      "type": "function"
    },
    {
      "inputs": [
        {
          "internalType": "uint64",
          "name": "expiry",
          "type": "uint64"
        }
      ],
      "name": "setTimestampExpirySeconds",
      "outputs": [],
      "stateMutability": "nonpayable",
      "type": "function"
    },
    {
      "inputs": [
        {
          "internalType": "string",
          "name": "suffix",
          "type": "string"
        }
      ],
      "name": "setTokenURISuffix",
      "outputs": [],
      "stateMutability": "nonpayable",
      "type": "function"
    },
    {
      "inputs": [
        {
          "internalType": "bytes4",
          "name": "interfaceId",
          "type": "bytes4"
        }
      ],
      "name": "supportsInterface",
      "outputs": [
        {
          "internalType": "bool",
          "name": "",
          "type": "bool"
        }
      ],
      "stateMutability": "view",
      "type": "function"
    },
    {
      "inputs": [],
      "name": "symbol",
      "outputs": [
        {
          "internalType": "string",
          "name": "",
          "type": "string"
        }
      ],
      "stateMutability": "view",
      "type": "function"
    },
    {
      "inputs": [
        {
          "internalType": "uint256",
          "name": "tokenId",
          "type": "uint256"
        }
      ],
      "name": "tokenURI",
      "outputs": [
        {
          "internalType": "string",
          "name": "",
          "type": "string"
        }
      ],
      "stateMutability": "view",
      "type": "function"
    },
    {
      "inputs": [
        {
          "internalType": "address",
          "name": "owner",
          "type": "address"
        }
      ],
      "name": "tokensOfOwner",
      "outputs": [
        {
          "internalType": "uint256[]",
          "name": "",
          "type": "uint256[]"
        }
      ],
      "stateMutability": "view",
      "type": "function"
    },
    {
      "inputs": [
        {
          "internalType": "address",
          "name": "owner",
          "type": "address"
        },
        {
          "internalType": "uint256",
          "name": "start",
          "type": "uint256"
        },
        {
          "internalType": "uint256",
          "name": "stop",
          "type": "uint256"
        }
      ],
      "name": "tokensOfOwnerIn",
      "outputs": [
        {
          "internalType": "uint256[]",
          "name": "",
          "type": "uint256[]"
        }
      ],
      "stateMutability": "view",
      "type": "function"
    },
    {
      "inputs": [
        {
          "internalType": "address",
          "name": "a",
          "type": "address"
        }
      ],
      "name": "totalMintedByAddress",
      "outputs": [
        {
          "internalType": "uint256",
          "name": "",
          "type": "uint256"
        }
      ],
      "stateMutability": "view",
      "type": "function"
    },
    {
      "inputs": [],
      "name": "totalSupply",
      "outputs": [
        {
          "internalType": "uint256",
          "name": "",
          "type": "uint256"
        }
      ],
      "stateMutability": "view",
      "type": "function"
    },
    {
      "inputs": [
        {
          "internalType": "address",
          "name": "from",
          "type": "address"
        },
        {
          "internalType": "address",
          "name": "to",
          "type": "address"
        },
        {
          "internalType": "uint256",
          "name": "tokenId",
          "type": "uint256"
        }
      ],
      "name": "transferFrom",
      "outputs": [],
      "stateMutability": "payable",
      "type": "function"
    },
    {
      "inputs": [
        {
          "internalType": "address",
          "name": "newOwner",
          "type": "address"
        }
      ],
      "name": "transferOwnership",
      "outputs": [],
      "stateMutability": "nonpayable",
      "type": "function"
    },
    {
      "inputs": [
        {
          "internalType": "uint256",
          "name": "index",
          "type": "uint256"
        },
        {
          "internalType": "uint80",
          "name": "price",
          "type": "uint80"
        },
        {
          "internalType": "uint32",
          "name": "walletLimit",
          "type": "uint32"
        },
        {
          "internalType": "bytes32",
          "name": "merkleRoot",
          "type": "bytes32"
        },
        {
          "internalType": "uint24",
          "name": "maxStageSupply",
          "type": "uint24"
        },
        {
          "internalType": "uint64",
          "name": "startTimeUnixSeconds",
          "type": "uint64"
        },
        {
          "internalType": "uint64",
          "name": "endTimeUnixSeconds",
          "type": "uint64"
        }
      ],
      "name": "updateStage",
      "outputs": [],
      "stateMutability": "nonpayable",
      "type": "function"
    },
    {
      "inputs": [],
      "name": "withdraw",
      "outputs": [],
      "stateMutability": "nonpayable",
      "type": "function"
    }
  ],
  "bytecode": "0x60806040523480156200001157600080fd5b50604051620053dd380380620053dd8339810160408190526200003491620002a4565b88888888888861012c868660026200004d83826200041a565b5060036200005c82826200041a565b505060008055506200006e3362000158565b6001600955838311156200009557604051630590c51360e01b815260040160405180910390fd5b600a805460ff19169055600c849055600d839055600f620000b786826200041a565b50600a805462010000600160f01b0319166a01000000000000000000006001600160a01b0394909416840262010000600160501b03191617620100006001600160401b039384168102919091179091556013805460149c909c5561ff01600160901b0319909b1699821602600160501b600160901b03191698909817969097169096029490941761ff00191690955550620004e69950505050505050505050565b600880546001600160a01b038381166001600160a01b0319831681179093556040519116919082907f8be0079c531659141344cd1fd0a4f28419497f9722a3daafe3b4186f6b6457e090600090a35050565b634e487b7160e01b600052604160045260246000fd5b600082601f830112620001d257600080fd5b81516001600160401b0380821115620001ef57620001ef620001aa565b604051601f8301601f19908116603f011681019082821181831017156200021a576200021a620001aa565b816040528381526020925086838588010111156200023757600080fd5b600091505b838210156200025b57858201830151818301840152908201906200023c565b600093810190920192909252949350505050565b80516001600160a01b03811681146200028757600080fd5b919050565b80516001600160401b03811681146200028757600080fd5b60008060008060008060008060006101208a8c031215620002c457600080fd5b89516001600160401b0380821115620002dc57600080fd5b620002ea8d838e01620001c0565b9a5060208c01519150808211156200030157600080fd5b6200030f8d838e01620001c0565b995060408c01519150808211156200032657600080fd5b50620003358c828d01620001c0565b97505060608a0151955060808a015194506200035460a08b016200026f565b935060c08a015192506200036b60e08b016200028c565b91506200037c6101008b016200028c565b90509295985092959850929598565b600181811c90821680620003a057607f821691505b602082108103620003c157634e487b7160e01b600052602260045260246000fd5b50919050565b601f8211156200041557600081815260208120601f850160051c81016020861015620003f05750805b601f850160051c820191505b818110156200041157828155600101620003fc565b5050505b505050565b81516001600160401b03811115620004365762000436620001aa565b6200044e816200044784546200038b565b84620003c7565b602080601f8311600181146200048657600084156200046d5750858301515b600019600386901b1c1916600185901b17855562000411565b600085815260208120601f198616915b82811015620004b75788860151825594840194600190910190840162000496565b5085821015620004d65787850151600019600388901b60f8161c191681555b5050505050600190811b01905550565b614ee780620004f66000396000f3fe6080604052600436106104315760003560e01c80638f93151111610229578063b88d4fde1161012e578063e985e9c5116100b6578063efdaa2ec1161007a578063efdaa2ec14610cf9578063f2fde38b14610d0e578063f698bceb14610d2e578063f8d0969614610d46578063ffc9896b14610d6657600080fd5b8063e985e9c514610c41578063e9d7c06814610c8a578063ed2e2b0214610c9f578063ee28b74414610cce578063efb6b11f14610ce657600080fd5b8063cae4d676116100fd578063cae4d67614610bac578063ce2b0ec014610bcc578063d956634f14610bec578063db422e0b14610c01578063dba3e70414610c2157600080fd5b8063b88d4fde14610b2c578063c02bd9a514610b3f578063c23dc68f14610b5f578063c87b56dd14610b8c57600080fd5b8063a22cb465116101b1578063a9852bfb11610180578063a9852bfb14610a97578063aac5ab1f14610ab7578063acde5d2814610ad7578063b50248e714610af7578063b7a9fa6014610b1757600080fd5b8063a22cb4651461099b578063a3759f60146109bb578063a466cb1a14610a57578063a718cd4e14610a7757600080fd5b806398d5fdca116101f857806398d5fdca14610931578063997556241461094657806399a2557a146109665780639be572f614610986578063a06c492f1461091157600080fd5b80638f931511146108be57806391b7f5ed146108dc57806395d89b41146108fc57806397cf84fc1461091157600080fd5b80633ccfd60b1161033a57806367808a34116102c25780637c84ef13116102865780637c84ef13146108195780638462151c1461083e5780638bcccb631461086b5780638da5cb5b146108805780638dcdb09d1461089e57600080fd5b806367808a341461078f57806370a08231146107af57806370da24ee146107cf578063715018a6146107e457806373e1607e146107f957600080fd5b806355f804b31161030957806355f804b3146106ef5780635b9103361461070f5780635bbb21771461072f57806362acbd9a1461075c5780636352211e1461076f57600080fd5b80633ccfd60b1461068e57806342842e0e146106a35780634ae0402f146106b65780634b1c53b4146106da57600080fd5b806318160ddd116103bd578063285d70d41161038c578063285d70d4146105e957806333bbbf0614610609578063372992e41461062e578063378c93ad1461064e578063379a02061461066e57600080fd5b806318160ddd146105955780631998aeef146105ae5780631ce03eed146105b657806323b872dd146105d657600080fd5b806306fdde031161040457806306fdde03146104e5578063074ba79d14610507578063081812fc14610535578063095ea7b31461056d5780631053a8151461058057600080fd5b806301ffc9a714610436578063020451381461046b578063035b65941461048d57806305ab421d146104c5575b600080fd5b34801561044257600080fd5b5061045661045136600461404d565b610dfd565b60405190151581526020015b60405180910390f35b34801561047757600080fd5b5061048b610486366004614086565b610e4f565b005b34801561049957600080fd5b506013546201000090046001600160401b03165b6040516001600160401b039091168152602001610462565b3480156104d157600080fd5b5061048b6104e03660046140a1565b610ecd565b3480156104f157600080fd5b506104fa610ee3565b604051610462919061411b565b34801561051357600080fd5b50610527610522366004614086565b610f75565b604051908152602001610462565b34801561054157600080fd5b5061055561055036600461412e565b610fc9565b6040516001600160a01b039091168152602001610462565b61048b61057b3660046140a1565b61100d565b34801561058c57600080fd5b5061048b6110ad565b3480156105a157600080fd5b5060015460005403610527565b61048b6110ff565b3480156105c257600080fd5b506105276105d1366004614172565b61120f565b61048b6105e43660046141b5565b61134f565b3480156105f557600080fd5b5061048b610604366004614201565b6114e8565b34801561061557600080fd5b50600a54600160501b90046001600160a01b0316610555565b34801561063a57600080fd5b5061048b61064936600461412e565b611531565b34801561065a57600080fd5b5061048b610669366004614201565b611591565b34801561067a57600080fd5b5061048b61068936600461421c565b6115da565b34801561069a57600080fd5b5061048b611682565b61048b6106b13660046141b5565b61172d565b3480156106c257600080fd5b50600a546201000090046001600160401b03166104ad565b3480156106e657600080fd5b50600c54610527565b3480156106fb57600080fd5b5061048b61070a366004614290565b61174d565b34801561071b57600080fd5b5061048b61072a366004614315565b6117bd565b34801561073b57600080fd5b5061074f61074a366004614315565b61183b565b6040516104629190614386565b61048b61076a3660046143c8565b611906565b34801561077b57600080fd5b5061055561078a36600461412e565b611984565b34801561079b57600080fd5b506105276107aa36600461446c565b61198f565b3480156107bb57600080fd5b506105276107ca366004614086565b611a57565b3480156107db57600080fd5b50601054610527565b3480156107f057600080fd5b5061048b611aa5565b34801561080557600080fd5b5061048b6108143660046144b1565b611ab7565b34801561082557600080fd5b50601354600160501b90046001600160401b03166104ad565b34801561084a57600080fd5b5061085e610859366004614086565b611d57565b6040516104629190614529565b34801561087757600080fd5b50601454610527565b34801561088c57600080fd5b506008546001600160a01b0316610555565b3480156108aa57600080fd5b5061048b6108b9366004614561565b611e5f565b3480156108ca57600080fd5b50600b546001600160a01b0316610555565b3480156108e857600080fd5b5061048b6108f736600461412e565b612334565b34801561090857600080fd5b506104fa6123f0565b34801561091d57600080fd5b5061052761092c366004614086565b6123ff565b34801561093d57600080fd5b50601554610527565b34801561095257600080fd5b5061048b610961366004614086565b612429565b34801561097257600080fd5b5061085e6109813660046145d5565b61247f565b34801561099257600080fd5b506105276125f6565b3480156109a757600080fd5b5061048b6109b6366004614608565b612607565b3480156109c757600080fd5b506109db6109d636600461412e565b612673565b6040805184516001600160501b0316815260208086015163ffffffff90811691830191909152858301519282019290925260608086015162ffffff16908201526080808601516001600160401b039081169183019190915260a095860151169481019490945290911660c083015260e082015261010001610462565b348015610a6357600080fd5b5061048b610a72366004614315565b6127bc565b348015610a8357600080fd5b5061048b610a92366004614315565b61280b565b348015610aa357600080fd5b5061048b610ab2366004614290565b61285a565b348015610ac357600080fd5b5061048b610ad2366004614632565b61286f565b348015610ae357600080fd5b50610527610af2366004614086565b6128c8565b348015610b0357600080fd5b5061048b610b123660046146fe565b61291c565b348015610b2357600080fd5b506104fa612966565b61048b610b3a36600461476c565b612975565b348015610b4b57600080fd5b5061048b610b5a366004614086565b6129b9565b348015610b6b57600080fd5b50610b7f610b7a36600461412e565b6129d1565b60405161046291906147bb565b348015610b9857600080fd5b506104fa610ba736600461412e565b612a49565b348015610bb857600080fd5b5061048b610bc7366004614086565b612b52565b348015610bd857600080fd5b5061048b610be736600461446c565b612c62565b348015610bf857600080fd5b5061048b612cc3565b348015610c0d57600080fd5b5061048b610c1c366004614086565b612d01565b348015610c2d57600080fd5b5061048b610c3c36600461412e565b612d24565b348015610c4d57600080fd5b50610456610c5c3660046147c9565b6001600160a01b03918216600090815260076020908152604080832093909416825291909152205460ff1690565b348015610c9657600080fd5b50610456612d61565b348015610cab57600080fd5b50610cbf610cba3660046147e5565b612d9a565b60405161046293929190614807565b348015610cda57600080fd5b5060135460ff16610456565b61048b610cf43660046148c2565b612f67565b348015610d0557600080fd5b50600d54610527565b348015610d1a57600080fd5b5061048b610d29366004614086565b612f88565b348015610d3a57600080fd5b50600a5460ff16610456565b348015610d5257600080fd5b5061048b610d6136600461412e565b612ffe565b348015610d7257600080fd5b50610df0610d81366004614086565b6040805160608082018352600080835260208084018290529284018190526001600160a01b03949094168452601682529282902082519384018352546001600160d81b0381168452600160d81b810463ffffffff1691840191909152600160f81b900460ff1615159082015290565b6040516104629190614955565b60006301ffc9a760e01b6001600160e01b031983161480610e2e57506380ac58cd60e01b6001600160e01b03198316145b80610e495750635b5e139f60e01b6001600160e01b03198316145b92915050565b610e5761305e565b600a80547fffff0000000000000000000000000000000000000000ffffffffffffffffffff16600160501b6001600160a01b038416908102919091179091556040519081527faea1573caf7b4fdd079b947d86c1be6c725642c47582f8f9bd2c7d2a30bf0bd9906020015b60405180910390a150565b610ed561305e565b610edf82826130b8565b5050565b606060028054610ef290614987565b80601f0160208091040260200160405190810160405280929190818152602001828054610f1e90614987565b8015610f6b5780601f10610f4057610100808354040283529160200191610f6b565b820191906000526020600020905b815481529060010190602001808311610f4e57829003601f168201915b5050505050905090565b6000601554600003610f9a576040516313a8ad7d60e11b815260040160405180910390fd5b6015546001600160a01b038316600090815260166020526040902054610e4991906001600160d81b03166149ed565b6000610fd48261316d565b610ff1576040516333d1c03960e21b815260040160405180910390fd5b506000908152600660205260409020546001600160a01b031690565b600061101882611984565b9050336001600160a01b03821614611051576110348133610c5c565b611051576040516367d9dca160e11b815260040160405180910390fd5b60008281526006602052604080822080546001600160a01b0319166001600160a01b0387811691821790925591518593918516917f8c5be1e5ebec7d5bd14f71427d1e84f3dd0314c0f7b2291e5b200ac8c7c3b92591a4505050565b6110b561305e565b600a805461ff0019166101001790556040517fc6a6c2b165e62c9d37fc51a18ed76e5be22304bc1d337877c98f31c23e40b0f5906110f590600e90614a01565b60405180910390a1565b60135442620100009091046001600160401b03161180611132575060135442600160501b9091046001600160401b031611155b15611150576040516307d6617160e31b815260040160405180910390fd5b611158613194565b33600090815260166020526040902080546014546001600160d81b0390911634019081101561119a5760405163dd828e1560e01b815260040160405180910390fd5b81546001600160d81b0319166001600160d81b0382161782556111be6017336131ed565b5060408051348152602081018390524781830152905133917f4dcc013473324698bfbe263facec4ea4b1bc43624236542deabec62c2122b305919081900360600190a2505061120d6001600955565b565b600a54600090600160501b90046001600160a01b0316611242576040516353bd4fb360e11b815260040160405180910390fd5b611345308585600a8054906101000a90046001600160a01b0316866112644690565b61126d8b6123ff565b604051606097881b6bffffffffffffffffffffffff19908116602083015296881b8716603482015260e09590951b6001600160e01b031916604886015292861b909416604c84015260c01b6001600160c01b031916938201939093526068810191909152608881019190915260a801604051602081830303815290604052805190602001206040517f19457468657265756d205369676e6564204d6573736167653a0a3332000000006020820152603c8101829052600090605c01604051602081830303815290604052805190602001209050919050565b90505b9392505050565b600061135a82613202565b9050836001600160a01b0316816001600160a01b03161461138d5760405162a1148160e81b815260040160405180910390fd5b60008281526006602052604090208054338082146001600160a01b038816909114176113da576113bd8633610c5c565b6113da57604051632ce44b5f60e11b815260040160405180910390fd5b6001600160a01b03851661140157604051633a954ecd60e21b815260040160405180910390fd5b801561140c57600082555b6001600160a01b038681166000908152600560205260408082208054600019019055918716808252919020805460010190554260a01b17600160e11b17600085815260046020526040812091909155600160e11b8416900361149e5760018401600081815260046020526040812054900361149c57600054811461149c5760008181526004602052604090208490555b505b83856001600160a01b0316876001600160a01b03167fddf252ad1be2c89b69c2b068fc378daa952ba7f163c4a11628f55a4df523b3ef60405160405180910390a45b505050505050565b6114f061305e565b600a805460ff19168215159081179091556040519081527fe717a2bfc51e250b028aaac5eb448e76f4df26b9609956782bff49097bb792cf90602001610ec2565b61153961305e565b600c5481111561155c57604051630590c51360e01b815260040160405180910390fd5b600d8190556040518181527f5307de8ad7d34d5ddfd5171435c143bdc645493980f453eb5d7cdb3e494a1b3590602001610ec2565b61159961305e565b6013805460ff19168215159081179091556040519081527f18d99b89a15641fa45e09c4916c435eb2bee98b29a0157c251869471e0cf28c990602001610ec2565b6115e261305e565b6015541561160357604051632b67583760e21b815260040160405180910390fd5b816001600160401b0316816001600160401b03161161163557604051631750215560e11b815260040160405180910390fd5b6013805471ffffffffffffffffffffffffffffffff00001916620100006001600160401b039485160267ffffffffffffffff60501b191617600160501b9290931691909102919091179055565b61168a61305e565b6040514790600090339083908381818185875af1925050503d80600081146116ce576040519150601f19603f3d011682016040523d82523d6000602084013e6116d3565b606091505b50509050806116f557604051631d42c86760e21b815260040160405180910390fd5b6040518281527f5b6b431d4476a211bb7d41c20d1aab9ae2321deee0d20be3d9fc9b1093fa6e3d906020015b60405180910390a15050565b61174883838360405180602001604052806000815250612975565b505050565b61175561305e565b600a54610100900460ff161561177e576040516306ccad4160e41b815260040160405180910390fd5b600e61178b828483614ad2565b507f23c8c9488efebfd474e85a7956de6f39b17c7ab88502d42a623db2d8e382bbaa8282604051611721929190614b91565b6117c561305e565b60005b81811015611748576118298383838181106117e5576117e5614bc0565b90506020020160208101906117fa9190614086565b61182485858581811061180f5761180f614bc0565b90506020020160208101906105229190614086565b6130b8565b8061183381614bd6565b9150506117c8565b6060816000816001600160401b038111156118585761185861465c565b6040519080825280602002602001820160405280156118aa57816020015b6040805160808101825260008082526020808301829052928201819052606082015282526000199092019101816118765790505b50905060005b8281146118fd576118d88686838181106118cc576118cc614bc0565b905060200201356129d1565b8282815181106118ea576118ea614bc0565b60209081029190910101526001016118b0565b50949350505050565b61190e613194565b600b546001600160a01b031661193757604051637e9f68eb60e11b815260040160405180910390fd5b600b546001600160a01b031633146119625760405163f46fd68360e01b815260040160405180910390fd5b61197187878787878787613269565b61197b6001600955565b50505050505050565b6000610e4982613202565b6000805b601054811015611a3d57601081815481106119b0576119b0614bc0565b60009182526020909120600260039092020101546001600160401b036301000000909104811690841610801590611a205750601081815481106119f5576119f5614bc0565b60009182526020909120600260039092020101546001600160401b03600160581b9091048116908416105b15611a2b5792915050565b80611a3581614bd6565b915050611993565b5060405163e82a532960e01b815260040160405180910390fd5b60006001600160a01b038216611a80576040516323d3ad8160e21b815260040160405180910390fd5b506001600160a01b03166000908152600560205260409020546001600160401b031690565b611aad61305e565b61120d60006136c3565b611abf61305e565b6010548710611ae15760405163e82a532960e01b815260040160405180910390fd5b60018710611b7957600a546201000090046001600160401b03166010611b0860018a614bef565b81548110611b1857611b18614bc0565b9060005260206000209060030201600201600b9054906101000a90046001600160401b0316611b479190614c02565b6001600160401b0316826001600160401b03161015611b7957604051636bc1af9360e01b815260040160405180910390fd5b611b838282613715565b8560108881548110611b9757611b97614bc0565b906000526020600020906003020160000160006101000a8154816001600160501b0302191690836001600160501b031602179055508460108881548110611be057611be0614bc0565b9060005260206000209060030201600001600a6101000a81548163ffffffff021916908363ffffffff1602179055508360108881548110611c2357611c23614bc0565b9060005260206000209060030201600101819055508260108881548110611c4c57611c4c614bc0565b906000526020600020906003020160020160006101000a81548162ffffff021916908362ffffff1602179055508160108881548110611c8d57611c8d614bc0565b906000526020600020906003020160020160036101000a8154816001600160401b0302191690836001600160401b031602179055508060108881548110611cd657611cd6614bc0565b9060005260206000209060030201600201600b6101000a8154816001600160401b0302191690836001600160401b031602179055507fb3268648542a1bb1b2dd12e3b14aeb5a3ab22c592de96bdd3e842154a5b394fa87878787878787604051611d469796959493929190614c29565b60405180910390a150505050505050565b60606000806000611d6785611a57565b90506000816001600160401b03811115611d8357611d8361465c565b604051908082528060200260200182016040528015611dac578160200160208202803683370190505b509050611dd960408051608081018252600080825260208201819052918101829052606081019190915290565b60005b838614611e5357611dec81613747565b91508160400151611e4b5781516001600160a01b031615611e0c57815194505b876001600160a01b0316856001600160a01b031603611e4b5780838780600101985081518110611e3e57611e3e614bc0565b6020026020010181815250505b600101611ddc565b50909695505050505050565b611e6761305e565b60105460005b81811015611ee2576010805480611e8657611e86614c79565b60008281526020812060036000199093019283020180546001600160701b03191681556001810191909155600201805472ffffffffffffffffffffffffffffffffffffff19169055905580611eda81614bd6565b915050611e6d565b50600a546201000090046001600160401b031660005b8381101561232d5760018110611fa257818585611f16600185614bef565b818110611f2557611f25614bc0565b905060c0020160a0016020810190611f3d919061446c565b611f479190614c02565b6001600160401b0316858583818110611f6257611f62614bc0565b905060c002016080016020810190611f7a919061446c565b6001600160401b03161015611fa257604051636bc1af9360e01b815260040160405180910390fd5b611ffe858583818110611fb757611fb7614bc0565b905060c002016080016020810190611fcf919061446c565b868684818110611fe157611fe1614bc0565b905060c0020160a0016020810190611ff9919061446c565b613715565b60106040518060c0016040528087878581811061201d5761201d614bc0565b61203392602060c0909202019081019150614c8f565b6001600160501b0316815260200187878581811061205357612053614bc0565b905060c00201602001602081019061206b9190614caa565b63ffffffff16815260200187878581811061208857612088614bc0565b905060c002016040013581526020018787858181106120a9576120a9614bc0565b905060c0020160600160208101906120c19190614cc5565b62ffffff1681526020018787858181106120dd576120dd614bc0565b905060c0020160800160208101906120f5919061446c565b6001600160401b0316815260200187878581811061211557612115614bc0565b905060c0020160a001602081019061212d919061446c565b6001600160401b039081169091528254600181810185556000948552602094859020845160039093020180549585015163ffffffff16600160501b026001600160701b03199096166001600160501b0390931692909217949094178155604083015193810193909355606082015160029093018054608084015160a0909401518316600160581b0267ffffffffffffffff60581b19949093166301000000026affffffffffffffffffffff1990911662ffffff9095169490941793909317919091161790557fb3268648542a1bb1b2dd12e3b14aeb5a3ab22c592de96bdd3e842154a5b394fa8186868281811061222657612226614bc0565b61223c92602060c0909202019081019150614c8f565b87878581811061224e5761224e614bc0565b905060c0020160200160208101906122669190614caa565b88888681811061227857612278614bc0565b905060c002016040013589898781811061229457612294614bc0565b905060c0020160600160208101906122ac9190614cc5565b8a8a888181106122be576122be614bc0565b905060c0020160800160208101906122d6919061446c565b8b8b898181106122e8576122e8614bc0565b905060c0020160a0016020810190612300919061446c565b6040516123139796959493929190614c29565b60405180910390a18061232581614bd6565b915050611ef8565b5050505050565b61233c61305e565b60135460ff16156123605760405163463c963760e11b815260040160405180910390fd5b601354600160501b90046001600160401b0316421161239257604051638c15906560e01b815260040160405180910390fd5b601354610100900460ff16156123bb5760405163a64907bf60e01b815260040160405180910390fd5b60158190556040518181527f4f5539c0409dfc4cb06f64cbd31237e1fbfe443f531584bf4dd77ec7fc5ba7b190602001610ec2565b606060038054610ef290614987565b6001600160a01b038116600090815260056020526040808220546001600160401b03911c16610e49565b61243161305e565b600b80546001600160a01b0319166001600160a01b0383169081179091556040519081527ff477d93c015f2a73c2ccc5ed37078d12123b80fc5d12e0014c60b913bc1a1ec490602001610ec2565b60608183106124a157604051631960ccad60e11b815260040160405180910390fd5b6000806124ad60005490565b9050808411156124bb578093505b60006124c687611a57565b9050848610156124e557858503818110156124df578091505b506124e9565b5060005b6000816001600160401b038111156125035761250361465c565b60405190808252806020026020018201604052801561252c578160200160208202803683370190505b5090508160000361254257935061134892505050565b600061254d886129d1565b90506000816040015161255e575080515b885b8881141580156125705750848714155b156125e55761257e81613747565b925082604001516125dd5782516001600160a01b03161561259e57825191505b8a6001600160a01b0316826001600160a01b0316036125dd57808488806001019950815181106125d0576125d0614bc0565b6020026020010181815250505b600101612560565b505050928352509095945050505050565b60006126026017613783565b905090565b3360008181526007602090815260408083206001600160a01b03871680855290835292819020805460ff191686151590811790915590519081529192917f17307eab39ab6107e8899845ad3d59bd9653f200f220920489ca2b5937696c31910160405180910390a35050565b6040805160c081018252600080825260208201819052918101829052606081018290526080810182905260a0810191909152601054600090819084106126ef5760405162461bcd60e51b815260206004820152600c60248201526b496e76616c6964537461676560a01b60448201526064015b60405180910390fd5b60008481526011602090815260408083203384528252808320548784526012909252909120546010805463ffffffff909316928790811061273257612732614bc0565b60009182526020918290206040805160c08101825260039390930290910180546001600160501b0381168452600160501b900463ffffffff169383019390935260018301549082015260029091015462ffffff81166060830152630100000081046001600160401b039081166080840152600160581b9091041660a0820152969195509350915050565b6127c461305e565b60005b81811015611748576127f98383838181106127e4576127e4614bc0565b9050602002016020810190610c1c9190614086565b8061280381614bd6565b9150506127c7565b61281361305e565b60005b818110156117485761284883838381811061283357612833614bc0565b9050602002016020810190610bc79190614086565b8061285281614bd6565b915050612816565b61286261305e565b600f611748828483614ad2565b61287761305e565b8163ffffffff16600c548161288f6001546000540390565b6128999190614ce0565b11156128b85760405163800113cb60e01b815260040160405180910390fd5b611748828463ffffffff1661378d565b60006015546000036128ed576040516313a8ad7d60e11b815260040160405180910390fd5b6015546001600160a01b038316600090815260166020526040902054610e4991906001600160d81b0316614cf3565b600a5461294490600160501b90046001600160a01b031661293e86868661120f565b836137a7565b6129605760405162b7fad960e11b815260040160405180910390fd5b50505050565b6060600f8054610ef290614987565b61298084848461134f565b6001600160a01b0383163b156129605761299c848484846138e9565b612960576040516368d2bf6b60e11b815260040160405180910390fd5b6129c161305e565b6129ce8161182483610f75565b50565b6040805160808082018352600080835260208084018290528385018290526060808501839052855193840186528284529083018290529382018190529281018390529091506000548310612a255792915050565b612a2e83613747565b9050806040015115612a405792915050565b611348836139d4565b6060612a548261316d565b612a7157604051630a14c4b560e41b815260040160405180910390fd5b6000600e8054612a8090614987565b80601f0160208091040260200160405190810160405280929190818152602001828054612aac90614987565b8015612af95780601f10612ace57610100808354040283529160200191612af9565b820191906000526020600020905b815481529060010190602001808311612adc57829003601f168201915b505050505090508051600003612b1e5760405180602001604052806000815250611348565b80612b2884613a09565b600f604051602001612b3c93929190614d07565b6040516020818303038152906040529392505050565b612b5a61305e565b6015546000819003612b7f576040516313a8ad7d60e11b815260040160405180910390fd5b6001600160a01b03821660009081526016602052604090208054600160f81b900460ff1615612bc157604051638246991960e01b815260040160405180910390fd5b80546001600160f81b038116600160f81b178255600090612bec9084906001600160d81b0316614cf3565b90506000846001600160a01b03168260405160006040518083038185875af1925050503d8060008114612c3b576040519150601f19603f3d011682016040523d82523d6000602084013e612c40565b606091505b505090508061232d576040516312171d8360e31b815260040160405180910390fd5b612c6a61305e565b600a805469ffffffffffffffff00001916620100006001600160401b038416908102919091179091556040519081527f41b9126ccd8cb4505310c40a376055b5ef246bd4c9214de02af31ef4f26b1b5f90602001610ec2565b60135460ff16612ce657604051633123d42760e11b815260040160405180910390fd5b612cee613194565b612cf733613a4d565b61120d6001600955565b612d0961305e565b612d11613194565b612d1a81613a4d565b6129ce6001600955565b612d2c61305e565b60148190556040518181527fd0f4420817917bede76c780c0ce000d6f59fb37194178cce2ad2c7fc09dddd4190602001610ec2565b60135460009042620100009091046001600160401b031611801590612602575050601354600160501b90046001600160401b0316421090565b606080600080612daa6017613783565b905085612db78683614bef565b811115612dcb57612dc88683614bef565b90505b6000816001600160401b03811115612de557612de561465c565b604051908082528060200260200182016040528015612e3057816020015b6040805160608101825260008082526020808301829052928201528252600019909201910181612e035790505b5090506000826001600160401b03811115612e4d57612e4d61465c565b604051908082528060200260200182016040528015612e76578160200160208202803683370190505b50905060005b83811015612f56576000612e9b612e938b84614ce0565b601790613bc7565b6001600160a01b038116600090815260166020908152604091829020825160608101845290546001600160d81b0381168252600160d81b810463ffffffff1692820192909252600160f81b90910460ff16151591810191909152855191925090859084908110612f0d57612f0d614bc0565b602002602001018190525080838381518110612f2b57612f2b614bc0565b6001600160a01b03909216602092830291909101909101525080612f4e81614bd6565b915050612e7c565b509095509350909150509250925092565b612f6f613194565b612f7e86338787878787613269565b6114e06001600955565b612f9061305e565b6001600160a01b038116612ff55760405162461bcd60e51b815260206004820152602660248201527f4f776e61626c653a206e6577206f776e657220697320746865207a65726f206160448201526564647265737360d01b60648201526084016126e6565b6129ce816136c3565b61300661305e565b600c548111156130295760405163430b83b160e11b815260040160405180910390fd5b600c8190556040518181527fc7bbc2b288fc13314546ea4aa51f6bcf71b7ba4740beeb3d32e9acef57b6668a90602001610ec2565b6008546001600160a01b0316331461120d5760405162461bcd60e51b815260206004820181905260248201527f4f776e61626c653a2063616c6c6572206973206e6f7420746865206f776e657260448201526064016126e6565b60155460008190036130dd576040516313a8ad7d60e11b815260040160405180910390fd5b6001600160a01b03831660009081526016602052604090208054600160d81b900463ffffffff1661310e8482614ce0565b82549091506131279084906001600160d81b03166149ed565b81111561314757604051630958705d60e31b815260040160405180910390fd5b815463ffffffff60d81b1916600160d81b63ffffffff83160217825561232d8585613bd3565b6000805482108015610e49575050600090815260046020526040902054600160e01b161590565b6002600954036131e65760405162461bcd60e51b815260206004820152601f60248201527f5265656e7472616e637947756172643a207265656e7472616e742063616c6c0060448201526064016126e6565b6002600955565b6000611348836001600160a01b038416613c49565b6000816000548110156132505760008181526004602052604081205490600160e01b8216900361324e575b8060000361134857506000190160008181526004602052604090205461322d565b505b604051636f96cda160e11b815260040160405180910390fd5b600a5460ff1661328c57604051630952c8a960e11b815260040160405180910390fd5b8663ffffffff16600c54816132a46001546000540390565b6132ae9190614ce0565b11156132cd5760405163800113cb60e01b815260040160405180910390fd5b426133066040805160c081018252600080825260208201819052918101829052606081018290526080810182905260a081019190915290565b600a54600160501b90046001600160a01b03161561336d57613360338b8888888080601f01602080910402602001604051908101604052809392919081815260200183838082843760009201919091525061291c92505050565b61336986613c98565b8591505b60006133788361198f565b90506010818154811061338d5761338d614bc0565b60009182526020918290206040805160c081018252600390930290910180546001600160501b03811680855263ffffffff600160501b9092048216958501959095526001820154928401929092526002015462ffffff811660608401526001600160401b036301000000820481166080850152600160581b9091041660a083015290935061341e91908d1690614da7565b6001600160501b031634101561344757604051630717c22560e51b815260040160405180910390fd5b606082015162ffffff16156134a157606082015160008281526012602052604090205462ffffff909116906134839063ffffffff8e1690614ce0565b11156134a15760405162d0844960e21b815260040160405180910390fd5b600d541561350857600d548b63ffffffff166134df8c6001600160a01b03166000908152600560205260409081902054901c6001600160401b031690565b6134e99190614ce0565b11156135085760405163751304ed60e11b815260040160405180910390fd5b602082015163ffffffff161561357a5760208083015160008381526011835260408082206001600160a01b038f168352909352919091205463ffffffff91821691613555918e9116614dd6565b63ffffffff16111561357a5760405163b4f3729b60e01b815260040160405180910390fd5b6040820151156136215781604001516136038a8a80806020026020016040519081016040528093929190818152602001838360200280828437600092019190915250506040516135e892508f915060200160609190911b6bffffffffffffffffffffffff1916815260140190565b60405160208183030381529060405280519060200120613cdd565b14613621576040516309bde33960e01b815260040160405180910390fd5b60008181526011602090815260408083206001600160a01b038e168452909152812080548d929061365990849063ffffffff16614dd6565b92506101000a81548163ffffffff021916908363ffffffff1602179055508a63ffffffff166012600083815260200190815260200160002060008282546136a09190614ce0565b909155506136b690508a63ffffffff8d1661378d565b5050505050505050505050565b600880546001600160a01b038381166001600160a01b0319831681179093556040519116919082907f8be0079c531659141344cd1fd0a4f28419497f9722a3daafe3b4186f6b6457e090600090a35050565b806001600160401b0316826001600160401b031610610edf57604051631750215560e11b815260040160405180910390fd5b604080516080810182526000808252602082018190529181018290526060810191909152600082815260046020526040902054610e4990613d2a565b6000610e49825490565b610edf828260405180602001604052806000815250613d71565b60008060006137b68585613dd7565b909250905060008160048111156137cf576137cf614df3565b1480156137ed5750856001600160a01b0316826001600160a01b0316145b156137fd57600192505050611348565b600080876001600160a01b0316631626ba7e60e01b8888604051602401613825929190614e09565b60408051601f198184030181529181526020820180516001600160e01b03166001600160e01b03199094169390931790925290516138639190614e22565b600060405180830381855afa9150503d806000811461389e576040519150601f19603f3d011682016040523d82523d6000602084013e6138a3565b606091505b50915091508180156138b6575080516020145b80156138dd57508051630b135d3f60e11b906138db9083016020908101908401614e3e565b145b98975050505050505050565b604051630a85bd0160e11b81526000906001600160a01b0385169063150b7a029061391e903390899088908890600401614e57565b6020604051808303816000875af1925050508015613959575060408051601f3d908101601f1916820190925261395691810190614e94565b60015b6139b7573d808015613987576040519150601f19603f3d011682016040523d82523d6000602084013e61398c565b606091505b5080516000036139af576040516368d2bf6b60e11b815260040160405180910390fd5b805181602001fd5b6001600160e01b031916630a85bd0160e11b149050949350505050565b604080516080810182526000808252602082018190529181018290526060810191909152610e49613a0483613202565b613d2a565b606060a06040510180604052602081039150506000815280825b600183039250600a81066030018353600a900480613a235750819003601f19909101908152919050565b6015546000819003613a72576040516313a8ad7d60e11b815260040160405180910390fd5b6001600160a01b038216600090815260166020526040902080546001600160d81b03811690600160f81b900460ff1615613abf57604051638246991960e01b815260040160405180910390fd5b81546001600160f81b038116600160f81b178355600090613aea9085906001600160d81b0316614cf3565b90506000856001600160a01b03168260405160006040518083038185875af1925050503d8060008114613b39576040519150601f19603f3d011682016040523d82523d6000602084013e613b3e565b606091505b5050905080613b60576040516312171d8360e31b815260040160405180910390fd5b6000613b6c86856149ed565b9050801561197b578454600160d81b900463ffffffff1615613ba157604051632aeca36d60e11b815260040160405180910390fd5b845463ffffffff60d81b1916600160d81b63ffffffff83160217855561197b8782613bd3565b60006113488383613e1c565b80600c5481613be56001546000540390565b613bef9190614ce0565b1115613c0e5760405163800113cb60e01b815260040160405180910390fd5b613c18838361378d565b601354610100900460ff16158015613c305750600082115b15611748576013805461ff001916610100179055505050565b6000818152600183016020526040812054613c9057508154600181810184556000848152602080822090930184905584548482528286019093526040902091909155610e49565b506000610e49565b600a54613cb4906201000090046001600160401b031642614bef565b816001600160401b031610156129ce576040516313634e8d60e11b815260040160405180910390fd5b600081815b8451811015613d2257613d0e82868381518110613d0157613d01614bc0565b6020026020010151613e46565b915080613d1a81614bd6565b915050613ce2565b509392505050565b604080516080810182526001600160a01b038316815260a083901c6001600160401b03166020820152600160e01b831615159181019190915260e89190911c606082015290565b613d7b8383613e75565b6001600160a01b0383163b15611748576000548281035b613da560008683806001019450866138e9565b613dc2576040516368d2bf6b60e11b815260040160405180910390fd5b818110613d9257816000541461232d57600080fd5b6000808251604103613e0d5760208301516040840151606085015160001a613e0187828585613f73565b94509450505050613e15565b506000905060025b9250929050565b6000826000018281548110613e3357613e33614bc0565b9060005260206000200154905092915050565b6000818310613e62576000828152602084905260409020611348565b6000838152602083905260409020611348565b6000805490829003613e9a5760405163b562e8dd60e01b815260040160405180910390fd5b6001600160a01b03831660008181526005602090815260408083208054680100000000000000018802019055848352600490915281206001851460e11b4260a01b178317905582840190839083907fddf252ad1be2c89b69c2b068fc378daa952ba7f163c4a11628f55a4df523b3ef8180a4600183015b818114613f4957808360007fddf252ad1be2c89b69c2b068fc378daa952ba7f163c4a11628f55a4df523b3ef600080a4600101613f11565b5081600003613f6a57604051622e076360e81b815260040160405180910390fd5b60005550505050565b6000807f7fffffffffffffffffffffffffffffff5d576e7357a4501ddfe92f46681b20a0831115613faa575060009050600361402e565b6040805160008082526020820180845289905260ff881692820192909252606081018690526080810185905260019060a0016020604051602081039080840390855afa158015613ffe573d6000803e3d6000fd5b5050604051601f1901519150506001600160a01b0381166140275760006001925092505061402e565b9150600090505b94509492505050565b6001600160e01b0319811681146129ce57600080fd5b60006020828403121561405f57600080fd5b813561134881614037565b80356001600160a01b038116811461408157600080fd5b919050565b60006020828403121561409857600080fd5b6113488261406a565b600080604083850312156140b457600080fd5b6140bd8361406a565b946020939093013593505050565b60005b838110156140e65781810151838201526020016140ce565b50506000910152565b600081518084526141078160208601602086016140cb565b601f01601f19169290920160200192915050565b60208152600061134860208301846140ef565b60006020828403121561414057600080fd5b5035919050565b803563ffffffff8116811461408157600080fd5b80356001600160401b038116811461408157600080fd5b60008060006060848603121561418757600080fd5b6141908461406a565b925061419e60208501614147565b91506141ac6040850161415b565b90509250925092565b6000806000606084860312156141ca57600080fd5b6141d38461406a565b92506141e16020850161406a565b9150604084013590509250925092565b8035801515811461408157600080fd5b60006020828403121561421357600080fd5b611348826141f1565b6000806040838503121561422f57600080fd5b6142388361415b565b91506142466020840161415b565b90509250929050565b60008083601f84011261426157600080fd5b5081356001600160401b0381111561427857600080fd5b602083019150836020828501011115613e1557600080fd5b600080602083850312156142a357600080fd5b82356001600160401b038111156142b957600080fd5b6142c58582860161424f565b90969095509350505050565b60008083601f8401126142e357600080fd5b5081356001600160401b038111156142fa57600080fd5b6020830191508360208260051b8501011115613e1557600080fd5b6000806020838503121561432857600080fd5b82356001600160401b0381111561433e57600080fd5b6142c5858286016142d1565b80516001600160a01b031682526020808201516001600160401b03169083015260408082015115159083015260609081015162ffffff16910152565b6020808252825182820181905260009190848201906040850190845b81811015611e53576143b583855161434a565b92840192608092909201916001016143a2565b600080600080600080600060a0888a0312156143e357600080fd5b6143ec88614147565b96506143fa6020890161406a565b955060408801356001600160401b038082111561441657600080fd5b6144228b838c016142d1565b909750955085915061443660608b0161415b565b945060808a013591508082111561444c57600080fd5b506144598a828b0161424f565b989b979a50959850939692959293505050565b60006020828403121561447e57600080fd5b6113488261415b565b80356001600160501b038116811461408157600080fd5b803562ffffff8116811461408157600080fd5b600080600080600080600060e0888a0312156144cc57600080fd5b873596506144dc60208901614487565b95506144ea60408901614147565b9450606088013593506144ff6080890161449e565b925061450d60a0890161415b565b915061451b60c0890161415b565b905092959891949750929550565b6020808252825182820181905260009190848201906040850190845b81811015611e5357835183529284019291840191600101614545565b6000806020838503121561457457600080fd5b82356001600160401b038082111561458b57600080fd5b818501915085601f83011261459f57600080fd5b8135818111156145ae57600080fd5b86602060c0830285010111156145c357600080fd5b60209290920196919550909350505050565b6000806000606084860312156145ea57600080fd5b6145f38461406a565b95602085013595506040909401359392505050565b6000806040838503121561461b57600080fd5b6146248361406a565b9150614246602084016141f1565b6000806040838503121561464557600080fd5b61464e83614147565b91506142466020840161406a565b634e487b7160e01b600052604160045260246000fd5b600082601f83011261468357600080fd5b81356001600160401b038082111561469d5761469d61465c565b604051601f8301601f19908116603f011681019082821181831017156146c5576146c561465c565b816040528381528660208588010111156146de57600080fd5b836020870160208301376000602085830101528094505050505092915050565b6000806000806080858703121561471457600080fd5b61471d8561406a565b935061472b60208601614147565b92506147396040860161415b565b915060608501356001600160401b0381111561475457600080fd5b61476087828801614672565b91505092959194509250565b6000806000806080858703121561478257600080fd5b61478b8561406a565b93506147996020860161406a565b92506040850135915060608501356001600160401b0381111561475457600080fd5b60808101610e49828461434a565b600080604083850312156147dc57600080fd5b61464e8361406a565b600080604083850312156147f857600080fd5b50508035926020909101359150565b60608082528451828201819052600091906020906080850190828901855b8281101561486d5761485d84835180516001600160d81b0316825260208082015163ffffffff16908301526040908101511515910152565b9285019290840190600101614825565b50505084810382860152865180825290820192508682019060005b818110156148ad5782516001600160a01b031685529383019391830191600101614888565b50505050604092909201929092529392505050565b600080600080600080608087890312156148db57600080fd5b6148e487614147565b955060208701356001600160401b038082111561490057600080fd5b61490c8a838b016142d1565b909750955085915061492060408a0161415b565b9450606089013591508082111561493657600080fd5b5061494389828a0161424f565b979a9699509497509295939492505050565b81516001600160d81b0316815260208083015163ffffffff169082015260408083015115159082015260608101610e49565b600181811c9082168061499b57607f821691505b6020821081036149bb57634e487b7160e01b600052602260045260246000fd5b50919050565b634e487b7160e01b600052601260045260246000fd5b634e487b7160e01b600052601160045260246000fd5b6000826149fc576149fc6149c1565b500490565b6000602080835260008454614a1581614987565b80848701526040600180841660008114614a365760018114614a5057614a7e565b60ff1985168984015283151560051b890183019550614a7e565b896000528660002060005b85811015614a765781548b8201860152908301908801614a5b565b8a0184019650505b509398975050505050505050565b601f82111561174857600081815260208120601f850160051c81016020861015614ab35750805b601f850160051c820191505b818110156114e057828155600101614abf565b6001600160401b03831115614ae957614ae961465c565b614afd83614af78354614987565b83614a8c565b6000601f841160018114614b315760008515614b195750838201355b600019600387901b1c1916600186901b17835561232d565b600083815260209020601f19861690835b82811015614b625786850135825560209485019460019092019101614b42565b5086821015614b7f5760001960f88860031b161c19848701351681555b505060018560011b0183555050505050565b60208152816020820152818360408301376000818301604090810191909152601f909201601f19160101919050565b634e487b7160e01b600052603260045260246000fd5b600060018201614be857614be86149d7565b5060010190565b81810381811115610e4957610e496149d7565b6001600160401b03818116838216019080821115614c2257614c226149d7565b5092915050565b9687526001600160501b0395909516602087015263ffffffff939093166040860152606085019190915262ffffff1660808401526001600160401b0390811660a08401521660c082015260e00190565b634e487b7160e01b600052603160045260246000fd5b600060208284031215614ca157600080fd5b61134882614487565b600060208284031215614cbc57600080fd5b61134882614147565b600060208284031215614cd757600080fd5b6113488261449e565b80820180821115610e4957610e496149d7565b600082614d0257614d026149c1565b500690565b600084516020614d1a8285838a016140cb565b855191840191614d2d8184848a016140cb565b8554920191600090614d3e81614987565b60018281168015614d565760018114614d6b57614d97565b60ff1984168752821515830287019450614d97565b896000528560002060005b84811015614d8f57815489820152908301908701614d76565b505082870194505b50929a9950505050505050505050565b60006001600160501b0380831681851681830481118215151615614dcd57614dcd6149d7565b02949350505050565b63ffffffff818116838216019080821115614c2257614c226149d7565b634e487b7160e01b600052602160045260246000fd5b82815260406020820152600061134560408301846140ef565b60008251614e348184602087016140cb565b9190910192915050565b600060208284031215614e5057600080fd5b5051919050565b6001600160a01b0385811682528416602082015260408101839052608060608201819052600090614e8a908301846140ef565b9695505050505050565b600060208284031215614ea657600080fd5b81516113488161403756fea2646970667358221220b927e975538d3b73f88d04c9e775d81cc3393f19541ce8ba7cb3f82cb5805d4864736f6c63430008100033",
  "linkReferences": {},
  "deployedLinkReferences": {}
}