{
  "_format": "hh-sol-artifact-1",
  "contractName": "ERC721MOperatorFilterer",
  "sourceName": "contracts/ERC721MOperatorFilterer.sol",
  "abi": [
    {
      "inputs": [
        {
          "internalType": "string",
          "name": "collectionName",
          "type": "string"
        },
        {
          "internalType": "string",
          "name": "collectionSymbol",
          "type": "string"
        },
        {
          "internalType": "string",
          "name": "tokenURISuffix",
          "type": "string"
        },
        {
          "internalType": "uint256",
          "name": "maxMintableSupply",
          "type": "uint256"
        },
        {
          "internalType": "uint256",
          "name": "globalWalletLimit",
          "type": "uint256"
        },
        {
          "internalType": "address",
          "name": "cosigner",
          "type": "address"
        },
        {
          "internalType": "uint64",
          "name": "timestampExpirySeconds",
          "type": "uint64"
        }
      ],
      "stateMutability": "nonpayable",
      "type": "constructor"
    },
    {
      "inputs": [],
      "name": "ApprovalCallerNotOwnerNorApproved",
      "type": "error"
    },
    {
      "inputs": [],
      "name": "ApprovalQueryForNonexistentToken",
      "type": "error"
    },
    {
      "inputs": [],
      "name": "BalanceQueryForZeroAddress",
      "type": "error"
    },
    {
      "inputs": [],
      "name": "CannotIncreaseMaxMintableSupply",
      "type": "error"
    },
    {
      "inputs": [],
      "name": "CannotUpdatePermanentBaseURI",
      "type": "error"
    },
    {
      "inputs": [],
      "name": "CosignerNotSet",
      "type": "error"
    },
    {
      "inputs": [],
      "name": "CrossmintAddressNotSet",
      "type": "error"
    },
    {
      "inputs": [],
      "name": "CrossmintOnly",
      "type": "error"
    },
    {
      "inputs": [],
      "name": "GlobalWalletLimitOverflow",
      "type": "error"
    },
    {
      "inputs": [],
      "name": "InsufficientStageTimeGap",
      "type": "error"
    },
    {
      "inputs": [],
      "name": "InvalidCosignSignature",
      "type": "error"
    },
    {
      "inputs": [],
      "name": "InvalidProof",
      "type": "error"
    },
    {
      "inputs": [],
      "name": "InvalidQueryRange",
      "type": "error"
    },
    {
      "inputs": [],
      "name": "InvalidStage",
      "type": "error"
    },
    {
      "inputs": [],
      "name": "InvalidStageArgsLength",
      "type": "error"
    },
    {
      "inputs": [],
      "name": "InvalidStartAndEndTimestamp",
      "type": "error"
    },
    {
      "inputs": [],
      "name": "MintERC2309QuantityExceedsLimit",
      "type": "error"
    },
    {
      "inputs": [],
      "name": "MintToZeroAddress",
      "type": "error"
    },
    {
      "inputs": [],
      "name": "MintZeroQuantity",
      "type": "error"
    },
    {
      "inputs": [],
      "name": "Mintable",
      "type": "error"
    },
    {
      "inputs": [],
      "name": "NoSupplyLeft",
      "type": "error"
    },
    {
      "inputs": [],
      "name": "NotEnoughValue",
      "type": "error"
    },
    {
      "inputs": [],
      "name": "NotMintable",
      "type": "error"
    },
    {
      "inputs": [
        {
          "internalType": "address",
          "name": "operator",
          "type": "address"
        }
      ],
      "name": "OperatorNotAllowed",
      "type": "error"
    },
    {
      "inputs": [],
      "name": "OwnerQueryForNonexistentToken",
      "type": "error"
    },
    {
      "inputs": [],
      "name": "OwnershipNotInitializedForExtraData",
      "type": "error"
    },
    {
      "inputs": [],
      "name": "StageSupplyExceeded",
      "type": "error"
    },
    {
      "inputs": [],
      "name": "TimestampExpired",
      "type": "error"
    },
    {
      "inputs": [],
      "name": "TransferCallerNotOwnerNorApproved",
      "type": "error"
    },
    {
      "inputs": [],
      "name": "TransferFromIncorrectOwner",
      "type": "error"
    },
    {
      "inputs": [],
      "name": "TransferToNonERC721ReceiverImplementer",
      "type": "error"
    },
    {
      "inputs": [],
      "name": "TransferToZeroAddress",
      "type": "error"
    },
    {
      "inputs": [],
      "name": "URIQueryForNonexistentToken",
      "type": "error"
    },
    {
      "inputs": [],
      "name": "WalletGlobalLimitExceeded",
      "type": "error"
    },
    {
      "inputs": [],
      "name": "WalletStageLimitExceeded",
      "type": "error"
    },
    {
      "inputs": [],
      "name": "WithdrawFailed",
      "type": "error"
    },
    {
      "anonymous": false,
      "inputs": [
        {
          "indexed": true,
          "internalType": "address",
          "name": "owner",
          "type": "address"
        },
        {
          "indexed": true,
          "internalType": "address",
          "name": "approved",
          "type": "address"
        },
        {
          "indexed": true,
          "internalType": "uint256",
          "name": "tokenId",
          "type": "uint256"
        }
      ],
      "name": "Approval",
      "type": "event"
    },
    {
      "anonymous": false,
      "inputs": [
        {
          "indexed": true,
          "internalType": "address",
          "name": "owner",
          "type": "address"
        },
        {
          "indexed": true,
          "internalType": "address",
          "name": "operator",
          "type": "address"
        },
        {
          "indexed": false,
          "internalType": "bool",
          "name": "approved",
          "type": "bool"
        }
      ],
      "name": "ApprovalForAll",
      "type": "event"
    },
    {
      "anonymous": false,
      "inputs": [
        {
          "indexed": true,
          "internalType": "uint256",
          "name": "fromTokenId",
          "type": "uint256"
        },
        {
          "indexed": false,
          "internalType": "uint256",
          "name": "toTokenId",
          "type": "uint256"
        },
        {
          "indexed": true,
          "internalType": "address",
          "name": "from",
          "type": "address"
        },
        {
          "indexed": true,
          "internalType": "address",
          "name": "to",
          "type": "address"
        }
      ],
      "name": "ConsecutiveTransfer",
      "type": "event"
    },
    {
      "anonymous": false,
      "inputs": [
        {
          "indexed": true,
          "internalType": "address",
          "name": "previousOwner",
          "type": "address"
        },
        {
          "indexed": true,
          "internalType": "address",
          "name": "newOwner",
          "type": "address"
        }
      ],
      "name": "OwnershipTransferred",
      "type": "event"
    },
    {
      "anonymous": false,
      "inputs": [
        {
          "indexed": false,
          "internalType": "string",
          "name": "baseURI",
          "type": "string"
        }
      ],
      "name": "PermanentBaseURI",
      "type": "event"
    },
    {
      "anonymous": false,
      "inputs": [
        {
          "indexed": false,
          "internalType": "uint256",
          "name": "activeStage",
          "type": "uint256"
        }
      ],
      "name": "SetActiveStage",
      "type": "event"
    },
    {
      "anonymous": false,
      "inputs": [
        {
          "indexed": false,
          "internalType": "string",
          "name": "baseURI",
          "type": "string"
        }
      ],
      "name": "SetBaseURI",
      "type": "event"
    },
    {
      "anonymous": false,
      "inputs": [
        {
          "indexed": false,
          "internalType": "address",
          "name": "cosigner",
          "type": "address"
        }
      ],
      "name": "SetCosigner",
      "type": "event"
    },
    {
      "anonymous": false,
      "inputs": [
        {
          "indexed": false,
          "internalType": "address",
          "name": "crossmintAddress",
          "type": "address"
        }
      ],
      "name": "SetCrossmintAddress",
      "type": "event"
    },
    {
      "anonymous": false,
      "inputs": [
        {
          "indexed": false,
          "internalType": "uint256",
          "name": "globalWalletLimit",
          "type": "uint256"
        }
      ],
      "name": "SetGlobalWalletLimit",
      "type": "event"
    },
    {
      "anonymous": false,
      "inputs": [
        {
          "indexed": false,
          "internalType": "uint256",
          "name": "maxMintableSupply",
          "type": "uint256"
        }
      ],
      "name": "SetMaxMintableSupply",
      "type": "event"
    },
    {
      "anonymous": false,
      "inputs": [
        {
          "indexed": false,
          "internalType": "bool",
          "name": "mintable",
          "type": "bool"
        }
      ],
      "name": "SetMintable",
      "type": "event"
    },
    {
      "anonymous": false,
      "inputs": [
        {
          "indexed": false,
          "internalType": "uint64",
          "name": "expiry",
          "type": "uint64"
        }
      ],
      "name": "SetTimestampExpirySeconds",
      "type": "event"
    },
    {
      "anonymous": false,
      "inputs": [
        {
          "indexed": true,
          "internalType": "address",
          "name": "from",
          "type": "address"
        },
        {
          "indexed": true,
          "internalType": "address",
          "name": "to",
          "type": "address"
        },
        {
          "indexed": true,
          "internalType": "uint256",
          "name": "tokenId",
          "type": "uint256"
        }
      ],
      "name": "Transfer",
      "type": "event"
    },
    {
      "anonymous": false,
      "inputs": [
        {
          "indexed": false,
          "internalType": "uint256",
          "name": "stage",
          "type": "uint256"
        },
        {
          "indexed": false,
          "internalType": "uint80",
          "name": "price",
          "type": "uint80"
        },
        {
          "indexed": false,
          "internalType": "uint32",
          "name": "walletLimit",
          "type": "uint32"
        },
        {
          "indexed": false,
          "internalType": "bytes32",
          "name": "merkleRoot",
          "type": "bytes32"
        },
        {
          "indexed": false,
          "internalType": "uint24",
          "name": "maxStageSupply",
          "type": "uint24"
        },
        {
          "indexed": false,
          "internalType": "uint64",
          "name": "startTimeUnixSeconds",
          "type": "uint64"
        },
        {
          "indexed": false,
          "internalType": "uint64",
          "name": "endTimeUnixSeconds",
          "type": "uint64"
        }
      ],
      "name": "UpdateStage",
      "type": "event"
    },
    {
      "anonymous": false,
      "inputs": [
        {
          "indexed": false,
          "internalType": "uint256",
          "name": "value",
          "type": "uint256"
        }
      ],
      "name": "Withdraw",
      "type": "event"
    },
    {
      "inputs": [
        {
          "internalType": "address",
          "name": "to",
          "type": "address"
        },
        {
          "internalType": "uint256",
          "name": "tokenId",
          "type": "uint256"
        }
      ],
      "name": "approve",
      "outputs": [],
      "stateMutability": "payable",
      "type": "function"
    },
    {
      "inputs": [
        {
          "internalType": "address",
          "name": "minter",
          "type": "address"
        },
        {
          "internalType": "uint32",
          "name": "qty",
          "type": "uint32"
        },
        {
          "internalType": "uint64",
          "name": "timestamp",
          "type": "uint64"
        },
        {
          "internalType": "bytes",
          "name": "signature",
          "type": "bytes"
        }
      ],
      "name": "assertValidCosign",
      "outputs": [],
      "stateMutability": "view",
      "type": "function"
    },
    {
      "inputs": [
        {
          "internalType": "address",
          "name": "owner",
          "type": "address"
        }
      ],
      "name": "balanceOf",
      "outputs": [
        {
          "internalType": "uint256",
          "name": "",
          "type": "uint256"
        }
      ],
      "stateMutability": "view",
      "type": "function"
    },
    {
      "inputs": [
        {
          "internalType": "uint32",
          "name": "qty",
          "type": "uint32"
        },
        {
          "internalType": "address",
          "name": "to",
          "type": "address"
        },
        {
          "internalType": "bytes32[]",
          "name": "proof",
          "type": "bytes32[]"
        },
        {
          "internalType": "uint64",
          "name": "timestamp",
          "type": "uint64"
        },
        {
          "internalType": "bytes",
          "name": "signature",
          "type": "bytes"
        }
      ],
      "name": "crossmint",
      "outputs": [],
      "stateMutability": "payable",
      "type": "function"
    },
    {
      "inputs": [
        {
          "internalType": "uint256",
          "name": "tokenId",
          "type": "uint256"
        }
      ],
      "name": "explicitOwnershipOf",
      "outputs": [
        {
          "components": [
            {
              "internalType": "address",
              "name": "addr",
              "type": "address"
            },
            {
              "internalType": "uint64",
              "name": "startTimestamp",
              "type": "uint64"
            },
            {
              "internalType": "bool",
              "name": "burned",
              "type": "bool"
            },
            {
              "internalType": "uint24",
              "name": "extraData",
              "type": "uint24"
            }
          ],
          "internalType": "struct IERC721A.TokenOwnership",
          "name": "",
          "type": "tuple"
        }
      ],
      "stateMutability": "view",
      "type": "function"
    },
    {
      "inputs": [
        {
          "internalType": "uint256[]",
          "name": "tokenIds",
          "type": "uint256[]"
        }
      ],
      "name": "explicitOwnershipsOf",
      "outputs": [
        {
          "components": [
            {
              "internalType": "address",
              "name": "addr",
              "type": "address"
            },
            {
              "internalType": "uint64",
              "name": "startTimestamp",
              "type": "uint64"
            },
            {
              "internalType": "bool",
              "name": "burned",
              "type": "bool"
            },
            {
              "internalType": "uint24",
              "name": "extraData",
              "type": "uint24"
            }
          ],
          "internalType": "struct IERC721A.TokenOwnership[]",
          "name": "",
          "type": "tuple[]"
        }
      ],
      "stateMutability": "view",
      "type": "function"
    },
    {
      "inputs": [
        {
          "internalType": "uint64",
          "name": "timestamp",
          "type": "uint64"
        }
      ],
      "name": "getActiveStageFromTimestamp",
      "outputs": [
        {
          "internalType": "uint256",
          "name": "",
          "type": "uint256"
        }
      ],
      "stateMutability": "view",
      "type": "function"
    },
    {
      "inputs": [
        {
          "internalType": "uint256",
          "name": "tokenId",
          "type": "uint256"
        }
      ],
      "name": "getApproved",
      "outputs": [
        {
          "internalType": "address",
          "name": "",
          "type": "address"
        }
      ],
      "stateMutability": "view",
      "type": "function"
    },
    {
      "inputs": [
        {
          "internalType": "address",
          "name": "minter",
          "type": "address"
        },
        {
          "internalType": "uint32",
          "name": "qty",
          "type": "uint32"
        },
        {
          "internalType": "uint64",
          "name": "timestamp",
          "type": "uint64"
        }
      ],
      "name": "getCosignDigest",
      "outputs": [
        {
          "internalType": "bytes32",
          "name": "",
          "type": "bytes32"
        }
      ],
      "stateMutability": "view",
      "type": "function"
    },
    {
      "inputs": [
        {
          "internalType": "address",
          "name": "minter",
          "type": "address"
        }
      ],
      "name": "getCosignNonce",
      "outputs": [
        {
          "internalType": "uint256",
          "name": "",
          "type": "uint256"
        }
      ],
      "stateMutability": "view",
      "type": "function"
    },
    {
      "inputs": [],
      "name": "getCosigner",
      "outputs": [
        {
          "internalType": "address",
          "name": "",
          "type": "address"
        }
      ],
      "stateMutability": "view",
      "type": "function"
    },
    {
      "inputs": [],
      "name": "getCrossmintAddress",
      "outputs": [
        {
          "internalType": "address",
          "name": "",
          "type": "address"
        }
      ],
      "stateMutability": "view",
      "type": "function"
    },
    {
      "inputs": [],
      "name": "getGlobalWalletLimit",
      "outputs": [
        {
          "internalType": "uint256",
          "name": "",
          "type": "uint256"
        }
      ],
      "stateMutability": "view",
      "type": "function"
    },
    {
      "inputs": [],
      "name": "getMaxMintableSupply",
      "outputs": [
        {
          "internalType": "uint256",
          "name": "",
          "type": "uint256"
        }
      ],
      "stateMutability": "view",
      "type": "function"
    },
    {
      "inputs": [],
      "name": "getMintable",
      "outputs": [
        {
          "internalType": "bool",
          "name": "",
          "type": "bool"
        }
      ],
      "stateMutability": "view",
      "type": "function"
    },
    {
      "inputs": [],
      "name": "getNumberStages",
      "outputs": [
        {
          "internalType": "uint256",
          "name": "",
          "type": "uint256"
        }
      ],
      "stateMutability": "view",
      "type": "function"
    },
    {
      "inputs": [
        {
          "internalType": "uint256",
          "name": "index",
          "type": "uint256"
        }
      ],
      "name": "getStageInfo",
      "outputs": [
        {
          "components": [
            {
              "internalType": "uint80",
              "name": "price",
              "type": "uint80"
            },
            {
              "internalType": "uint32",
              "name": "walletLimit",
              "type": "uint32"
            },
            {
              "internalType": "bytes32",
              "name": "merkleRoot",
              "type": "bytes32"
            },
            {
              "internalType": "uint24",
              "name": "maxStageSupply",
              "type": "uint24"
            },
            {
              "internalType": "uint64",
              "name": "startTimeUnixSeconds",
              "type": "uint64"
            },
            {
              "internalType": "uint64",
              "name": "endTimeUnixSeconds",
              "type": "uint64"
            }
          ],
          "internalType": "struct IERC721M.MintStageInfo",
          "name": "",
          "type": "tuple"
        },
        {
          "internalType": "uint32",
          "name": "",
          "type": "uint32"
        },
        {
          "internalType": "uint256",
          "name": "",
          "type": "uint256"
        }
      ],
      "stateMutability": "view",
      "type": "function"
    },
    {
      "inputs": [],
      "name": "getTimestampExpirySeconds",
      "outputs": [
        {
          "internalType": "uint64",
          "name": "",
          "type": "uint64"
        }
      ],
      "stateMutability": "view",
      "type": "function"
    },
    {
      "inputs": [],
      "name": "getTokenURISuffix",
      "outputs": [
        {
          "internalType": "string",
          "name": "",
          "type": "string"
        }
      ],
      "stateMutability": "view",
      "type": "function"
    },
    {
      "inputs": [
        {
          "internalType": "address",
          "name": "owner",
          "type": "address"
        },
        {
          "internalType": "address",
          "name": "operator",
          "type": "address"
        }
      ],
      "name": "isApprovedForAll",
      "outputs": [
        {
          "internalType": "bool",
          "name": "",
          "type": "bool"
        }
      ],
      "stateMutability": "view",
      "type": "function"
    },
    {
      "inputs": [
        {
          "internalType": "uint32",
          "name": "qty",
          "type": "uint32"
        },
        {
          "internalType": "bytes32[]",
          "name": "proof",
          "type": "bytes32[]"
        },
        {
          "internalType": "uint64",
          "name": "timestamp",
          "type": "uint64"
        },
        {
          "internalType": "bytes",
          "name": "signature",
          "type": "bytes"
        }
      ],
      "name": "mint",
      "outputs": [],
      "stateMutability": "payable",
      "type": "function"
    },
    {
      "inputs": [],
      "name": "name",
      "outputs": [
        {
          "internalType": "string",
          "name": "",
          "type": "string"
        }
      ],
      "stateMutability": "view",
      "type": "function"
    },
    {
      "inputs": [],
      "name": "owner",
      "outputs": [
        {
          "internalType": "address",
          "name": "",
          "type": "address"
        }
      ],
      "stateMutability": "view",
      "type": "function"
    },
    {
      "inputs": [
        {
          "internalType": "uint32",
          "name": "qty",
          "type": "uint32"
        },
        {
          "internalType": "address",
          "name": "to",
          "type": "address"
        }
      ],
      "name": "ownerMint",
      "outputs": [],
      "stateMutability": "nonpayable",
      "type": "function"
    },
    {
      "inputs": [
        {
          "internalType": "uint256",
          "name": "tokenId",
          "type": "uint256"
        }
      ],
      "name": "ownerOf",
      "outputs": [
        {
          "internalType": "address",
          "name": "",
          "type": "address"
        }
      ],
      "stateMutability": "view",
      "type": "function"
    },
    {
      "inputs": [],
      "name": "renounceOwnership",
      "outputs": [],
      "stateMutability": "nonpayable",
      "type": "function"
    },
    {
      "inputs": [
        {
          "internalType": "address",
          "name": "from",
          "type": "address"
        },
        {
          "internalType": "address",
          "name": "to",
          "type": "address"
        },
        {
          "internalType": "uint256",
          "name": "tokenId",
          "type": "uint256"
        }
      ],
      "name": "safeTransferFrom",
      "outputs": [],
      "stateMutability": "payable",
      "type": "function"
    },
    {
      "inputs": [
        {
          "internalType": "address",
          "name": "from",
          "type": "address"
        },
        {
          "internalType": "address",
          "name": "to",
          "type": "address"
        },
        {
          "internalType": "uint256",
          "name": "tokenId",
          "type": "uint256"
        },
        {
          "internalType": "bytes",
          "name": "data",
          "type": "bytes"
        }
      ],
      "name": "safeTransferFrom",
      "outputs": [],
      "stateMutability": "payable",
      "type": "function"
    },
    {
      "inputs": [
        {
          "internalType": "address",
          "name": "operator",
          "type": "address"
        },
        {
          "internalType": "bool",
          "name": "approved",
          "type": "bool"
        }
      ],
      "name": "setApprovalForAll",
      "outputs": [],
      "stateMutability": "nonpayable",
      "type": "function"
    },
    {
      "inputs": [
        {
          "internalType": "string",
          "name": "baseURI",
          "type": "string"
        }
      ],
      "name": "setBaseURI",
      "outputs": [],
      "stateMutability": "nonpayable",
      "type": "function"
    },
    {
      "inputs": [],
      "name": "setBaseURIPermanent",
      "outputs": [],
      "stateMutability": "nonpayable",
      "type": "function"
    },
    {
      "inputs": [
        {
          "internalType": "address",
          "name": "cosigner",
          "type": "address"
        }
      ],
      "name": "setCosigner",
      "outputs": [],
      "stateMutability": "nonpayable",
      "type": "function"
    },
    {
      "inputs": [
        {
          "internalType": "address",
          "name": "crossmintAddress",
          "type": "address"
        }
      ],
      "name": "setCrossmintAddress",
      "outputs": [],
      "stateMutability": "nonpayable",
      "type": "function"
    },
    {
      "inputs": [
        {
          "internalType": "uint256",
          "name": "globalWalletLimit",
          "type": "uint256"
        }
      ],
      "name": "setGlobalWalletLimit",
      "outputs": [],
      "stateMutability": "nonpayable",
      "type": "function"
    },
    {
      "inputs": [
        {
          "internalType": "uint256",
          "name": "maxMintableSupply",
          "type": "uint256"
        }
      ],
      "name": "setMaxMintableSupply",
      "outputs": [],
      "stateMutability": "nonpayable",
      "type": "function"
    },
    {
      "inputs": [
        {
          "internalType": "bool",
          "name": "mintable",
          "type": "bool"
        }
      ],
      "name": "setMintable",
      "outputs": [],
      "stateMutability": "nonpayable",
      "type": "function"
    },
    {
      "inputs": [
        {
          "components": [
            {
              "internalType": "uint80",
              "name": "price",
              "type": "uint80"
            },
            {
              "internalType": "uint32",
              "name": "walletLimit",
              "type": "uint32"
            },
            {
              "internalType": "bytes32",
              "name": "merkleRoot",
              "type": "bytes32"
            },
            {
              "internalType": "uint24",
              "name": "maxStageSupply",
              "type": "uint24"
            },
            {
              "internalType": "uint64",
              "name": "startTimeUnixSeconds",
              "type": "uint64"
            },
            {
              "internalType": "uint64",
              "name": "endTimeUnixSeconds",
              "type": "uint64"
            }
          ],
          "internalType": "struct IERC721M.MintStageInfo[]",
          "name": "newStages",
          "type": "tuple[]"
        }
      ],
      "name": "setStages",
      "outputs": [],
      "stateMutability": "nonpayable",
      "type": "function"
    },
    {
      "inputs": [
        {
          "internalType": "uint64",
          "name": "expiry",
          "type": "uint64"
        }
      ],
      "name": "setTimestampExpirySeconds",
      "outputs": [],
      "stateMutability": "nonpayable",
      "type": "function"
    },
    {
      "inputs": [
        {
          "internalType": "string",
          "name": "suffix",
          "type": "string"
        }
      ],
      "name": "setTokenURISuffix",
      "outputs": [],
      "stateMutability": "nonpayable",
      "type": "function"
    },
    {
      "inputs": [
        {
          "internalType": "bytes4",
          "name": "interfaceId",
          "type": "bytes4"
        }
      ],
      "name": "supportsInterface",
      "outputs": [
        {
          "internalType": "bool",
          "name": "",
          "type": "bool"
        }
      ],
      "stateMutability": "view",
      "type": "function"
    },
    {
      "inputs": [],
      "name": "symbol",
      "outputs": [
        {
          "internalType": "string",
          "name": "",
          "type": "string"
        }
      ],
      "stateMutability": "view",
      "type": "function"
    },
    {
      "inputs": [
        {
          "internalType": "uint256",
          "name": "tokenId",
          "type": "uint256"
        }
      ],
      "name": "tokenURI",
      "outputs": [
        {
          "internalType": "string",
          "name": "",
          "type": "string"
        }
      ],
      "stateMutability": "view",
      "type": "function"
    },
    {
      "inputs": [
        {
          "internalType": "address",
          "name": "owner",
          "type": "address"
        }
      ],
      "name": "tokensOfOwner",
      "outputs": [
        {
          "internalType": "uint256[]",
          "name": "",
          "type": "uint256[]"
        }
      ],
      "stateMutability": "view",
      "type": "function"
    },
    {
      "inputs": [
        {
          "internalType": "address",
          "name": "owner",
          "type": "address"
        },
        {
          "internalType": "uint256",
          "name": "start",
          "type": "uint256"
        },
        {
          "internalType": "uint256",
          "name": "stop",
          "type": "uint256"
        }
      ],
      "name": "tokensOfOwnerIn",
      "outputs": [
        {
          "internalType": "uint256[]",
          "name": "",
          "type": "uint256[]"
        }
      ],
      "stateMutability": "view",
      "type": "function"
    },
    {
      "inputs": [
        {
          "internalType": "address",
          "name": "a",
          "type": "address"
        }
      ],
      "name": "totalMintedByAddress",
      "outputs": [
        {
          "internalType": "uint256",
          "name": "",
          "type": "uint256"
        }
      ],
      "stateMutability": "view",
      "type": "function"
    },
    {
      "inputs": [],
      "name": "totalSupply",
      "outputs": [
        {
          "internalType": "uint256",
          "name": "",
          "type": "uint256"
        }
      ],
      "stateMutability": "view",
      "type": "function"
    },
    {
      "inputs": [
        {
          "internalType": "address",
          "name": "from",
          "type": "address"
        },
        {
          "internalType": "address",
          "name": "to",
          "type": "address"
        },
        {
          "internalType": "uint256",
          "name": "tokenId",
          "type": "uint256"
        }
      ],
      "name": "transferFrom",
      "outputs": [],
      "stateMutability": "payable",
      "type": "function"
    },
    {
      "inputs": [
        {
          "internalType": "address",
          "name": "newOwner",
          "type": "address"
        }
      ],
      "name": "transferOwnership",
      "outputs": [],
      "stateMutability": "nonpayable",
      "type": "function"
    },
    {
      "inputs": [
        {
          "internalType": "uint256",
          "name": "index",
          "type": "uint256"
        },
        {
          "internalType": "uint80",
          "name": "price",
          "type": "uint80"
        },
        {
          "internalType": "uint32",
          "name": "walletLimit",
          "type": "uint32"
        },
        {
          "internalType": "bytes32",
          "name": "merkleRoot",
          "type": "bytes32"
        },
        {
          "internalType": "uint24",
          "name": "maxStageSupply",
          "type": "uint24"
        },
        {
          "internalType": "uint64",
          "name": "startTimeUnixSeconds",
          "type": "uint64"
        },
        {
          "internalType": "uint64",
          "name": "endTimeUnixSeconds",
          "type": "uint64"
        }
      ],
      "name": "updateStage",
      "outputs": [],
      "stateMutability": "nonpayable",
      "type": "function"
    },
    {
      "inputs": [],
      "name": "withdraw",
      "outputs": [],
      "stateMutability": "nonpayable",
      "type": "function"
    }
  ],
  "bytecode": "0x60806040523480156200001157600080fd5b5060405162004735380380620047358339810160408190526200003491620003af565b733cc6cdda760b79bafa08df41ecfa224f810dceb66001888888888888888686600262000062838262000518565b50600362000071828262000518565b5050600080555062000083336200027b565b600160095583831115620000aa57604051630590c51360e01b815260040160405180910390fd5b600a805460ff19169055600c849055600d839055600f620000cc868262000518565b50600a80546001600160401b03909216620100000262010000600160501b03196001600160a01b039094166a0100000000000000000000029390931662010000600160f01b0319909216919091179190911790555050506daaeb6d7670e522a718067333cd4e3b1591506200026c9050578015620001ba57604051633e9f1edf60e11b81523060048201526001600160a01b03831660248201526daaeb6d7670e522a718067333cd4e90637d3e3dbe906044015b600060405180830381600087803b1580156200019b57600080fd5b505af1158015620001b0573d6000803e3d6000fd5b505050506200026c565b6001600160a01b038216156200020b5760405163a0af290360e01b81523060048201526001600160a01b03831660248201526daaeb6d7670e522a718067333cd4e9063a0af29039060440162000180565b604051632210724360e11b81523060048201526daaeb6d7670e522a718067333cd4e90634420e48690602401600060405180830381600087803b1580156200025257600080fd5b505af115801562000267573d6000803e3d6000fd5b505050505b505050505050505050620005e4565b600880546001600160a01b038381166001600160a01b0319831681179093556040519116919082907f8be0079c531659141344cd1fd0a4f28419497f9722a3daafe3b4186f6b6457e090600090a35050565b634e487b7160e01b600052604160045260246000fd5b600082601f830112620002f557600080fd5b81516001600160401b0380821115620003125762000312620002cd565b604051601f8301601f19908116603f011681019082821181831017156200033d576200033d620002cd565b816040528381526020925086838588010111156200035a57600080fd5b600091505b838210156200037e57858201830151818301840152908201906200035f565b600093810190920192909252949350505050565b80516001600160401b0381168114620003aa57600080fd5b919050565b600080600080600080600060e0888a031215620003cb57600080fd5b87516001600160401b0380821115620003e357600080fd5b620003f18b838c01620002e3565b985060208a01519150808211156200040857600080fd5b620004168b838c01620002e3565b975060408a01519150808211156200042d57600080fd5b506200043c8a828b01620002e3565b60608a015160808b015160a08c0151929850909650945090506001600160a01b03811681146200046b57600080fd5b91506200047b60c0890162000392565b905092959891949750929550565b600181811c908216806200049e57607f821691505b602082108103620004bf57634e487b7160e01b600052602260045260246000fd5b50919050565b601f8211156200051357600081815260208120601f850160051c81016020861015620004ee5750805b601f850160051c820191505b818110156200050f57828155600101620004fa565b5050505b505050565b81516001600160401b03811115620005345762000534620002cd565b6200054c8162000545845462000489565b84620004c5565b602080601f8311600181146200058457600084156200056b5750858301515b600019600386901b1c1916600185901b1785556200050f565b600085815260208120601f198616915b82811015620005b55788860151825594840194600190910190840162000594565b5085821015620005d45787850151600019600388901b60f8161c191681555b5050505050600190811b01905550565b61414180620005f46000396000f3fe6080604052600436106102c95760003560e01c80638462151c11610175578063aac5ab1f116100dc578063ce2b0ec011610095578063efdaa2ec1161006f578063efdaa2ec146108eb578063f2fde38b14610900578063f698bceb14610920578063f8d096961461093857600080fd5b8063ce2b0ec01461086f578063e985e9c51461088f578063efb6b11f146108d857600080fd5b8063aac5ab1f146107ba578063b50248e7146107da578063b7a9fa60146107fa578063b88d4fde1461080f578063c23dc68f14610822578063c87b56dd1461084f57600080fd5b8063997556241161012e578063997556241461069e57806399a2557a146106be578063a06c492f1461067e578063a22cb465146106de578063a3759f60146106fe578063a9852bfb1461079a57600080fd5b80638462151c146105e05780638da5cb5b1461060d5780638dcdb09d1461062b5780638f9315111461064b57806395d89b411461066957806397cf84fc1461067e57600080fd5b80633ccfd60b1161023457806362acbd9a116101ed57806370a08231116101c757806370a082311461057657806370da24ee14610596578063715018a6146105ab57806373e1607e146105c057600080fd5b806362acbd9a146105235780636352211e1461053657806367808a341461055657600080fd5b80633ccfd60b1461046257806342842e0e146104775780634ae0402f1461048a5780634b1c53b4146104c157806355f804b3146104d65780635bbb2177146104f657600080fd5b806318160ddd1161028657806318160ddd146103a75780631ce03eed146103ca57806323b872dd146103ea578063285d70d4146103fd57806333bbbf061461041d578063372992e41461044257600080fd5b806301ffc9a7146102ce578063020451381461030357806306fdde0314610325578063081812fc14610347578063095ea7b31461037f5780631053a81514610392575b600080fd5b3480156102da57600080fd5b506102ee6102e93660046133f4565b610958565b60405190151581526020015b60405180910390f35b34801561030f57600080fd5b5061032361031e36600461342d565b6109aa565b005b34801561033157600080fd5b5061033a610a28565b6040516102fa9190613498565b34801561035357600080fd5b506103676103623660046134ab565b610aba565b6040516001600160a01b0390911681526020016102fa565b61032361038d3660046134c4565b610afe565b34801561039e57600080fd5b50610323610b9e565b3480156103b357600080fd5b50600154600054035b6040519081526020016102fa565b3480156103d657600080fd5b506103bc6103e5366004613519565b610bf0565b6103236103f836600461355c565b610d30565b34801561040957600080fd5b506103236104183660046135a6565b610e91565b34801561042957600080fd5b50600a54600160501b90046001600160a01b0316610367565b34801561044e57600080fd5b5061032361045d3660046134ab565b610eda565b34801561046e57600080fd5b50610323610f3a565b61032361048536600461355c565b610fe5565b34801561049657600080fd5b50600a546201000090046001600160401b03166040516001600160401b0390911681526020016102fa565b3480156104cd57600080fd5b50600c546103bc565b3480156104e257600080fd5b506103236104f1366004613604565b611136565b34801561050257600080fd5b50610516610511366004613689565b6111a6565b6040516102fa91906136fa565b61032361053136600461373c565b611271565b34801561054257600080fd5b506103676105513660046134ab565b6112ef565b34801561056257600080fd5b506103bc6105713660046137e0565b6112fa565b34801561058257600080fd5b506103bc61059136600461342d565b6113c2565b3480156105a257600080fd5b506010546103bc565b3480156105b757600080fd5b50610323611410565b3480156105cc57600080fd5b506103236105db366004613825565b611424565b3480156105ec57600080fd5b506106006105fb36600461342d565b6116c4565b6040516102fa919061389d565b34801561061957600080fd5b506008546001600160a01b0316610367565b34801561063757600080fd5b506103236106463660046138d5565b6117cc565b34801561065757600080fd5b50600b546001600160a01b0316610367565b34801561067557600080fd5b5061033a611ca1565b34801561068a57600080fd5b506103bc61069936600461342d565b611cb0565b3480156106aa57600080fd5b506103236106b936600461342d565b611cda565b3480156106ca57600080fd5b506106006106d9366004613949565b611d30565b3480156106ea57600080fd5b506103236106f936600461397c565b611ea7565b34801561070a57600080fd5b5061071e6107193660046134ab565b611f13565b6040805184516001600160501b0316815260208086015163ffffffff90811691830191909152858301519282019290925260608086015162ffffff16908201526080808601516001600160401b039081169183019190915260a095860151169481019490945290911660c083015260e0820152610100016102fa565b3480156107a657600080fd5b506103236107b5366004613604565b612057565b3480156107c657600080fd5b506103236107d53660046139b3565b612071565b3480156107e657600080fd5b506103236107f5366004613a88565b6120ca565b34801561080657600080fd5b5061033a61210e565b61032361081d366004613af6565b61211d565b34801561082e57600080fd5b5061084261083d3660046134ab565b612275565b6040516102fa9190613b45565b34801561085b57600080fd5b5061033a61086a3660046134ab565b6122ed565b34801561087b57600080fd5b5061032361088a3660046137e0565b6123f6565b34801561089b57600080fd5b506102ee6108aa366004613b53565b6001600160a01b03918216600090815260076020908152604080832093909416825291909152205460ff1690565b6103236108e6366004613b6f565b612457565b3480156108f757600080fd5b50600d546103bc565b34801561090c57600080fd5b5061032361091b36600461342d565b612480565b34801561092c57600080fd5b50600a5460ff166102ee565b34801561094457600080fd5b506103236109533660046134ab565b6124f9565b60006301ffc9a760e01b6001600160e01b03198316148061098957506380ac58cd60e01b6001600160e01b03198316145b806109a45750635b5e139f60e01b6001600160e01b03198316145b92915050565b6109b2612559565b600a80547fffff0000000000000000000000000000000000000000ffffffffffffffffffff16600160501b6001600160a01b038416908102919091179091556040519081527faea1573caf7b4fdd079b947d86c1be6c725642c47582f8f9bd2c7d2a30bf0bd9906020015b60405180910390a150565b606060028054610a3790613c02565b80601f0160208091040260200160405190810160405280929190818152602001828054610a6390613c02565b8015610ab05780601f10610a8557610100808354040283529160200191610ab0565b820191906000526020600020905b815481529060010190602001808311610a9357829003601f168201915b5050505050905090565b6000610ac5826125b3565b610ae2576040516333d1c03960e21b815260040160405180910390fd5b506000908152600660205260409020546001600160a01b031690565b6000610b09826112ef565b9050336001600160a01b03821614610b4257610b2581336108aa565b610b42576040516367d9dca160e11b815260040160405180910390fd5b60008281526006602052604080822080546001600160a01b0319166001600160a01b0387811691821790925591518593918516917f8c5be1e5ebec7d5bd14f71427d1e84f3dd0314c0f7b2291e5b200ac8c7c3b92591a4505050565b610ba6612559565b600a805461ff0019166101001790556040517fc6a6c2b165e62c9d37fc51a18ed76e5be22304bc1d337877c98f31c23e40b0f590610be690600e90613c3c565b60405180910390a1565b600a54600090600160501b90046001600160a01b0316610c23576040516353bd4fb360e11b815260040160405180910390fd5b610d26308585600a8054906101000a90046001600160a01b031686610c454690565b610c4e8b611cb0565b604051606097881b6bffffffffffffffffffffffff19908116602083015296881b8716603482015260e09590951b6001600160e01b031916604886015292861b909416604c84015260c01b6001600160c01b031916938201939093526068810191909152608881019190915260a801604051602081830303815290604052805190602001206040517f19457468657265756d205369676e6564204d6573736167653a0a3332000000006020820152603c8101829052600090605c01604051602081830303815290604052805190602001209050919050565b90505b9392505050565b826daaeb6d7670e522a718067333cd4e3b15610e8057336001600160a01b03821603610d6657610d618484846125da565b610e8b565b604051633185c44d60e21b81523060048201523360248201526daaeb6d7670e522a718067333cd4e9063c617113490604401602060405180830381865afa158015610db5573d6000803e3d6000fd5b505050506040513d601f19601f82011682018060405250810190610dd99190613cc7565b8015610e5c5750604051633185c44d60e21b81523060048201526001600160a01b03821660248201526daaeb6d7670e522a718067333cd4e9063c617113490604401602060405180830381865afa158015610e38573d6000803e3d6000fd5b505050506040513d601f19601f82011682018060405250810190610e5c9190613cc7565b610e8057604051633b79c77360e21b81523360048201526024015b60405180910390fd5b610e8b8484846125da565b50505050565b610e99612559565b600a805460ff19168215159081179091556040519081527fe717a2bfc51e250b028aaac5eb448e76f4df26b9609956782bff49097bb792cf90602001610a1d565b610ee2612559565b600c54811115610f0557604051630590c51360e01b815260040160405180910390fd5b600d8190556040518181527f5307de8ad7d34d5ddfd5171435c143bdc645493980f453eb5d7cdb3e494a1b3590602001610a1d565b610f42612559565b6040514790600090339083908381818185875af1925050503d8060008114610f86576040519150601f19603f3d011682016040523d82523d6000602084013e610f8b565b606091505b5050905080610fad57604051631d42c86760e21b815260040160405180910390fd5b6040518281527f5b6b431d4476a211bb7d41c20d1aab9ae2321deee0d20be3d9fc9b1093fa6e3d906020015b60405180910390a15050565b826daaeb6d7670e522a718067333cd4e3b1561112b57336001600160a01b0382160361101657610d6184848461276f565b604051633185c44d60e21b81523060048201523360248201526daaeb6d7670e522a718067333cd4e9063c617113490604401602060405180830381865afa158015611065573d6000803e3d6000fd5b505050506040513d601f19601f820116820180604052508101906110899190613cc7565b801561110c5750604051633185c44d60e21b81523060048201526001600160a01b03821660248201526daaeb6d7670e522a718067333cd4e9063c617113490604401602060405180830381865afa1580156110e8573d6000803e3d6000fd5b505050506040513d601f19601f8201168201806040525081019061110c9190613cc7565b61112b57604051633b79c77360e21b8152336004820152602401610e77565b610e8b84848461276f565b61113e612559565b600a54610100900460ff1615611167576040516306ccad4160e41b815260040160405180910390fd5b600e611174828483613d2a565b507f23c8c9488efebfd474e85a7956de6f39b17c7ab88502d42a623db2d8e382bbaa8282604051610fd9929190613de9565b6060816000816001600160401b038111156111c3576111c36139e6565b60405190808252806020026020018201604052801561121557816020015b6040805160808101825260008082526020808301829052928201819052606082015282526000199092019101816111e15790505b50905060005b8281146112685761124386868381811061123757611237613e18565b90506020020135612275565b82828151811061125557611255613e18565b602090810291909101015260010161121b565b50949350505050565b61127961278a565b600b546001600160a01b03166112a257604051637e9f68eb60e11b815260040160405180910390fd5b600b546001600160a01b031633146112cd5760405163f46fd68360e01b815260040160405180910390fd5b6112dc878787878787876127e3565b6112e66001600955565b50505050505050565b60006109a482612c3d565b6000805b6010548110156113a8576010818154811061131b5761131b613e18565b60009182526020909120600260039092020101546001600160401b03630100000090910481169084161080159061138b57506010818154811061136057611360613e18565b60009182526020909120600260039092020101546001600160401b03600160581b9091048116908416105b156113965792915050565b806113a081613e44565b9150506112fe565b5060405163e82a532960e01b815260040160405180910390fd5b60006001600160a01b0382166113eb576040516323d3ad8160e21b815260040160405180910390fd5b506001600160a01b03166000908152600560205260409020546001600160401b031690565b611418612559565b6114226000612ca4565b565b61142c612559565b601054871061144e5760405163e82a532960e01b815260040160405180910390fd5b600187106114e657600a546201000090046001600160401b0316601061147560018a613e5d565b8154811061148557611485613e18565b9060005260206000209060030201600201600b9054906101000a90046001600160401b03166114b49190613e70565b6001600160401b0316826001600160401b031610156114e657604051636bc1af9360e01b815260040160405180910390fd5b6114f08282612cf6565b856010888154811061150457611504613e18565b906000526020600020906003020160000160006101000a8154816001600160501b0302191690836001600160501b03160217905550846010888154811061154d5761154d613e18565b9060005260206000209060030201600001600a6101000a81548163ffffffff021916908363ffffffff160217905550836010888154811061159057611590613e18565b90600052602060002090600302016001018190555082601088815481106115b9576115b9613e18565b906000526020600020906003020160020160006101000a81548162ffffff021916908362ffffff16021790555081601088815481106115fa576115fa613e18565b906000526020600020906003020160020160036101000a8154816001600160401b0302191690836001600160401b03160217905550806010888154811061164357611643613e18565b9060005260206000209060030201600201600b6101000a8154816001600160401b0302191690836001600160401b031602179055507fb3268648542a1bb1b2dd12e3b14aeb5a3ab22c592de96bdd3e842154a5b394fa878787878787876040516116b39796959493929190613e97565b60405180910390a150505050505050565b606060008060006116d4856113c2565b90506000816001600160401b038111156116f0576116f06139e6565b604051908082528060200260200182016040528015611719578160200160208202803683370190505b50905061174660408051608081018252600080825260208201819052918101829052606081019190915290565b60005b8386146117c05761175981612d2c565b915081604001516117b85781516001600160a01b03161561177957815194505b876001600160a01b0316856001600160a01b0316036117b857808387806001019850815181106117ab576117ab613e18565b6020026020010181815250505b600101611749565b50909695505050505050565b6117d4612559565b60105460005b8181101561184f5760108054806117f3576117f3613ee7565b60008281526020812060036000199093019283020180546001600160701b03191681556001810191909155600201805472ffffffffffffffffffffffffffffffffffffff1916905590558061184781613e44565b9150506117da565b50600a546201000090046001600160401b031660005b83811015611c9a576001811061190f57818585611883600185613e5d565b81811061189257611892613e18565b905060c0020160a00160208101906118aa91906137e0565b6118b49190613e70565b6001600160401b03168585838181106118cf576118cf613e18565b905060c0020160800160208101906118e791906137e0565b6001600160401b0316101561190f57604051636bc1af9360e01b815260040160405180910390fd5b61196b85858381811061192457611924613e18565b905060c00201608001602081019061193c91906137e0565b86868481811061194e5761194e613e18565b905060c0020160a001602081019061196691906137e0565b612cf6565b60106040518060c0016040528087878581811061198a5761198a613e18565b6119a092602060c0909202019081019150613efd565b6001600160501b031681526020018787858181106119c0576119c0613e18565b905060c0020160200160208101906119d89190613f18565b63ffffffff1681526020018787858181106119f5576119f5613e18565b905060c00201604001358152602001878785818110611a1657611a16613e18565b905060c002016060016020810190611a2e9190613f33565b62ffffff168152602001878785818110611a4a57611a4a613e18565b905060c002016080016020810190611a6291906137e0565b6001600160401b03168152602001878785818110611a8257611a82613e18565b905060c0020160a0016020810190611a9a91906137e0565b6001600160401b039081169091528254600181810185556000948552602094859020845160039093020180549585015163ffffffff16600160501b026001600160701b03199096166001600160501b0390931692909217949094178155604083015193810193909355606082015160029093018054608084015160a0909401518316600160581b0267ffffffffffffffff60581b19949093166301000000026affffffffffffffffffffff1990911662ffffff9095169490941793909317919091161790557fb3268648542a1bb1b2dd12e3b14aeb5a3ab22c592de96bdd3e842154a5b394fa81868682818110611b9357611b93613e18565b611ba992602060c0909202019081019150613efd565b878785818110611bbb57611bbb613e18565b905060c002016020016020810190611bd39190613f18565b888886818110611be557611be5613e18565b905060c0020160400135898987818110611c0157611c01613e18565b905060c002016060016020810190611c199190613f33565b8a8a88818110611c2b57611c2b613e18565b905060c002016080016020810190611c4391906137e0565b8b8b89818110611c5557611c55613e18565b905060c0020160a0016020810190611c6d91906137e0565b604051611c809796959493929190613e97565b60405180910390a180611c9281613e44565b915050611865565b5050505050565b606060038054610a3790613c02565b6001600160a01b038116600090815260056020526040808220546001600160401b03911c166109a4565b611ce2612559565b600b80546001600160a01b0319166001600160a01b0383169081179091556040519081527ff477d93c015f2a73c2ccc5ed37078d12123b80fc5d12e0014c60b913bc1a1ec490602001610a1d565b6060818310611d5257604051631960ccad60e11b815260040160405180910390fd5b600080611d5e60005490565b905080841115611d6c578093505b6000611d77876113c2565b905084861015611d965785850381811015611d90578091505b50611d9a565b5060005b6000816001600160401b03811115611db457611db46139e6565b604051908082528060200260200182016040528015611ddd578160200160208202803683370190505b50905081600003611df3579350610d2992505050565b6000611dfe88612275565b905060008160400151611e0f575080515b885b888114158015611e215750848714155b15611e9657611e2f81612d2c565b92508260400151611e8e5782516001600160a01b031615611e4f57825191505b8a6001600160a01b0316826001600160a01b031603611e8e5780848880600101995081518110611e8157611e81613e18565b6020026020010181815250505b600101611e11565b505050928352509095945050505050565b3360008181526007602090815260408083206001600160a01b03871680855290835292819020805460ff191686151590811790915590519081529192917f17307eab39ab6107e8899845ad3d59bd9653f200f220920489ca2b5937696c31910160405180910390a35050565b6040805160c081018252600080825260208201819052918101829052606081018290526080810182905260a081019190915260105460009081908410611f8a5760405162461bcd60e51b815260206004820152600c60248201526b496e76616c6964537461676560a01b6044820152606401610e77565b60008481526011602090815260408083203384528252808320548784526012909252909120546010805463ffffffff9093169287908110611fcd57611fcd613e18565b60009182526020918290206040805160c08101825260039390930290910180546001600160501b0381168452600160501b900463ffffffff169383019390935260018301549082015260029091015462ffffff81166060830152630100000081046001600160401b039081166080840152600160581b9091041660a0820152969195509350915050565b61205f612559565b600f61206c828483613d2a565b505050565b612079612559565b8163ffffffff16600c54816120916001546000540390565b61209b9190613f4e565b11156120ba5760405163800113cb60e01b815260040160405180910390fd5b61206c828463ffffffff16612d68565b600a546120f290600160501b90046001600160a01b03166120ec868686610bf0565b83612d82565b610e8b5760405162b7fad960e11b815260040160405180910390fd5b6060600f8054610a3790613c02565b836daaeb6d7670e522a718067333cd4e3b1561226957336001600160a01b038216036121545761214f85858585612ec4565b611c9a565b604051633185c44d60e21b81523060048201523360248201526daaeb6d7670e522a718067333cd4e9063c617113490604401602060405180830381865afa1580156121a3573d6000803e3d6000fd5b505050506040513d601f19601f820116820180604052508101906121c79190613cc7565b801561224a5750604051633185c44d60e21b81523060048201526001600160a01b03821660248201526daaeb6d7670e522a718067333cd4e9063c617113490604401602060405180830381865afa158015612226573d6000803e3d6000fd5b505050506040513d601f19601f8201168201806040525081019061224a9190613cc7565b61226957604051633b79c77360e21b8152336004820152602401610e77565b611c9a85858585612ec4565b60408051608080820183526000808352602080840182905283850182905260608085018390528551938401865282845290830182905293820181905292810183905290915060005483106122c95792915050565b6122d283612d2c565b90508060400151156122e45792915050565b610d2983612f08565b60606122f8826125b3565b61231557604051630a14c4b560e41b815260040160405180910390fd5b6000600e805461232490613c02565b80601f016020809104026020016040519081016040528092919081815260200182805461235090613c02565b801561239d5780601f106123725761010080835404028352916020019161239d565b820191906000526020600020905b81548152906001019060200180831161238057829003601f168201915b5050505050905080516000036123c25760405180602001604052806000815250610d29565b806123cc84612f3d565b600f6040516020016123e093929190613f61565b6040516020818303038152906040529392505050565b6123fe612559565b600a805469ffffffffffffffff00001916620100006001600160401b038416908102919091179091556040519081527f41b9126ccd8cb4505310c40a376055b5ef246bd4c9214de02af31ef4f26b1b5f90602001610a1d565b61245f61278a565b61246e863387878787876127e3565b6124786001600955565b505050505050565b612488612559565b6001600160a01b0381166124ed5760405162461bcd60e51b815260206004820152602660248201527f4f776e61626c653a206e6577206f776e657220697320746865207a65726f206160448201526564647265737360d01b6064820152608401610e77565b6124f681612ca4565b50565b612501612559565b600c548111156125245760405163430b83b160e11b815260040160405180910390fd5b600c8190556040518181527fc7bbc2b288fc13314546ea4aa51f6bcf71b7ba4740beeb3d32e9acef57b6668a90602001610a1d565b6008546001600160a01b031633146114225760405162461bcd60e51b815260206004820181905260248201527f4f776e61626c653a2063616c6c6572206973206e6f7420746865206f776e65726044820152606401610e77565b60008054821080156109a4575050600090815260046020526040902054600160e01b161590565b60006125e582612c3d565b9050836001600160a01b0316816001600160a01b0316146126185760405162a1148160e81b815260040160405180910390fd5b60008281526006602052604090208054338082146001600160a01b038816909114176126655761264886336108aa565b61266557604051632ce44b5f60e11b815260040160405180910390fd5b6001600160a01b03851661268c57604051633a954ecd60e21b815260040160405180910390fd5b801561269757600082555b6001600160a01b038681166000908152600560205260408082208054600019019055918716808252919020805460010190554260a01b17600160e11b17600085815260046020526040812091909155600160e11b84169003612729576001840160008181526004602052604081205490036127275760005481146127275760008181526004602052604090208490555b505b83856001600160a01b0316876001600160a01b03167fddf252ad1be2c89b69c2b068fc378daa952ba7f163c4a11628f55a4df523b3ef60405160405180910390a4612478565b61206c8383836040518060200160405280600081525061211d565b6002600954036127dc5760405162461bcd60e51b815260206004820152601f60248201527f5265656e7472616e637947756172643a207265656e7472616e742063616c6c006044820152606401610e77565b6002600955565b600a5460ff1661280657604051630952c8a960e11b815260040160405180910390fd5b8663ffffffff16600c548161281e6001546000540390565b6128289190613f4e565b11156128475760405163800113cb60e01b815260040160405180910390fd5b426128806040805160c081018252600080825260208201819052918101829052606081018290526080810182905260a081019190915290565b600a54600160501b90046001600160a01b0316156128e7576128da338b8888888080601f0160208091040260200160405190810160405280939291908181526020018383808284376000920191909152506120ca92505050565b6128e386612f81565b8591505b60006128f2836112fa565b90506010818154811061290757612907613e18565b60009182526020918290206040805160c081018252600390930290910180546001600160501b03811680855263ffffffff600160501b9092048216958501959095526001820154928401929092526002015462ffffff811660608401526001600160401b036301000000820481166080850152600160581b9091041660a083015290935061299891908d1690614001565b6001600160501b03163410156129c157604051630717c22560e51b815260040160405180910390fd5b606082015162ffffff1615612a1b57606082015160008281526012602052604090205462ffffff909116906129fd9063ffffffff8e1690613f4e565b1115612a1b5760405162d0844960e21b815260040160405180910390fd5b600d5415612a8257600d548b63ffffffff16612a598c6001600160a01b03166000908152600560205260409081902054901c6001600160401b031690565b612a639190613f4e565b1115612a825760405163751304ed60e11b815260040160405180910390fd5b602082015163ffffffff1615612af45760208083015160008381526011835260408082206001600160a01b038f168352909352919091205463ffffffff91821691612acf918e9116614030565b63ffffffff161115612af45760405163b4f3729b60e01b815260040160405180910390fd5b604082015115612b9b578160400151612b7d8a8a8080602002602001604051908101604052809392919081815260200183836020028082843760009201919091525050604051612b6292508f915060200160609190911b6bffffffffffffffffffffffff1916815260140190565b60405160208183030381529060405280519060200120612fc6565b14612b9b576040516309bde33960e01b815260040160405180910390fd5b60008181526011602090815260408083206001600160a01b038e168452909152812080548d9290612bd390849063ffffffff16614030565b92506101000a81548163ffffffff021916908363ffffffff1602179055508a63ffffffff16601260008381526020019081526020016000206000828254612c1a9190613f4e565b90915550612c3090508a63ffffffff8d16612d68565b5050505050505050505050565b600081600054811015612c8b5760008181526004602052604081205490600160e01b82169003612c89575b80600003610d29575060001901600081815260046020526040902054612c68565b505b604051636f96cda160e11b815260040160405180910390fd5b600880546001600160a01b038381166001600160a01b0319831681179093556040519116919082907f8be0079c531659141344cd1fd0a4f28419497f9722a3daafe3b4186f6b6457e090600090a35050565b806001600160401b0316826001600160401b031610612d2857604051631750215560e11b815260040160405180910390fd5b5050565b6040805160808101825260008082526020820181905291810182905260608101919091526000828152600460205260409020546109a490613013565b612d2882826040518060200160405280600081525061305a565b6000806000612d9185856130c0565b90925090506000816004811115612daa57612daa61404d565b148015612dc85750856001600160a01b0316826001600160a01b0316145b15612dd857600192505050610d29565b600080876001600160a01b0316631626ba7e60e01b8888604051602401612e00929190614063565b60408051601f198184030181529181526020820180516001600160e01b03166001600160e01b0319909416939093179092529051612e3e919061407c565b600060405180830381855afa9150503d8060008114612e79576040519150601f19603f3d011682016040523d82523d6000602084013e612e7e565b606091505b5091509150818015612e91575080516020145b8015612eb857508051630b135d3f60e11b90612eb69083016020908101908401614098565b145b98975050505050505050565b612ecf848484610d30565b6001600160a01b0383163b15610e8b57612eeb84848484613105565b610e8b576040516368d2bf6b60e11b815260040160405180910390fd5b6040805160808101825260008082526020820181905291810182905260608101919091526109a4612f3883612c3d565b613013565b606060a06040510180604052602081039150506000815280825b600183039250600a81066030018353600a900480612f575750819003601f19909101908152919050565b600a54612f9d906201000090046001600160401b031642613e5d565b816001600160401b031610156124f6576040516313634e8d60e11b815260040160405180910390fd5b600081815b845181101561300b57612ff782868381518110612fea57612fea613e18565b60200260200101516131f0565b91508061300381613e44565b915050612fcb565b509392505050565b604080516080810182526001600160a01b038316815260a083901c6001600160401b03166020820152600160e01b831615159181019190915260e89190911c606082015290565b613064838361321c565b6001600160a01b0383163b1561206c576000548281035b61308e6000868380600101945086613105565b6130ab576040516368d2bf6b60e11b815260040160405180910390fd5b81811061307b578160005414611c9a57600080fd5b60008082516041036130f65760208301516040840151606085015160001a6130ea8782858561331a565b945094505050506130fe565b506000905060025b9250929050565b604051630a85bd0160e11b81526000906001600160a01b0385169063150b7a029061313a9033908990889088906004016140b1565b6020604051808303816000875af1925050508015613175575060408051601f3d908101601f19168201909252613172918101906140ee565b60015b6131d3573d8080156131a3576040519150601f19603f3d011682016040523d82523d6000602084013e6131a8565b606091505b5080516000036131cb576040516368d2bf6b60e11b815260040160405180910390fd5b805181602001fd5b6001600160e01b031916630a85bd0160e11b149050949350505050565b600081831061320c576000828152602084905260409020610d29565b5060009182526020526040902090565b60008054908290036132415760405163b562e8dd60e01b815260040160405180910390fd5b6001600160a01b03831660008181526005602090815260408083208054680100000000000000018802019055848352600490915281206001851460e11b4260a01b178317905582840190839083907fddf252ad1be2c89b69c2b068fc378daa952ba7f163c4a11628f55a4df523b3ef8180a4600183015b8181146132f057808360007fddf252ad1be2c89b69c2b068fc378daa952ba7f163c4a11628f55a4df523b3ef600080a46001016132b8565b508160000361331157604051622e076360e81b815260040160405180910390fd5b60005550505050565b6000807f7fffffffffffffffffffffffffffffff5d576e7357a4501ddfe92f46681b20a083111561335157506000905060036133d5565b6040805160008082526020820180845289905260ff881692820192909252606081018690526080810185905260019060a0016020604051602081039080840390855afa1580156133a5573d6000803e3d6000fd5b5050604051601f1901519150506001600160a01b0381166133ce576000600192509250506133d5565b9150600090505b94509492505050565b6001600160e01b0319811681146124f657600080fd5b60006020828403121561340657600080fd5b8135610d29816133de565b80356001600160a01b038116811461342857600080fd5b919050565b60006020828403121561343f57600080fd5b610d2982613411565b60005b8381101561346357818101518382015260200161344b565b50506000910152565b60008151808452613484816020860160208601613448565b601f01601f19169290920160200192915050565b602081526000610d29602083018461346c565b6000602082840312156134bd57600080fd5b5035919050565b600080604083850312156134d757600080fd5b6134e083613411565b946020939093013593505050565b803563ffffffff8116811461342857600080fd5b80356001600160401b038116811461342857600080fd5b60008060006060848603121561352e57600080fd5b61353784613411565b9250613545602085016134ee565b915061355360408501613502565b90509250925092565b60008060006060848603121561357157600080fd5b61357a84613411565b925061358860208501613411565b9150604084013590509250925092565b80151581146124f657600080fd5b6000602082840312156135b857600080fd5b8135610d2981613598565b60008083601f8401126135d557600080fd5b5081356001600160401b038111156135ec57600080fd5b6020830191508360208285010111156130fe57600080fd5b6000806020838503121561361757600080fd5b82356001600160401b0381111561362d57600080fd5b613639858286016135c3565b90969095509350505050565b60008083601f84011261365757600080fd5b5081356001600160401b0381111561366e57600080fd5b6020830191508360208260051b85010111156130fe57600080fd5b6000806020838503121561369c57600080fd5b82356001600160401b038111156136b257600080fd5b61363985828601613645565b80516001600160a01b031682526020808201516001600160401b03169083015260408082015115159083015260609081015162ffffff16910152565b6020808252825182820181905260009190848201906040850190845b818110156117c0576137298385516136be565b9284019260809290920191600101613716565b600080600080600080600060a0888a03121561375757600080fd5b613760886134ee565b965061376e60208901613411565b955060408801356001600160401b038082111561378a57600080fd5b6137968b838c01613645565b90975095508591506137aa60608b01613502565b945060808a01359150808211156137c057600080fd5b506137cd8a828b016135c3565b989b979a50959850939692959293505050565b6000602082840312156137f257600080fd5b610d2982613502565b80356001600160501b038116811461342857600080fd5b803562ffffff8116811461342857600080fd5b600080600080600080600060e0888a03121561384057600080fd5b87359650613850602089016137fb565b955061385e604089016134ee565b94506060880135935061387360808901613812565b925061388160a08901613502565b915061388f60c08901613502565b905092959891949750929550565b6020808252825182820181905260009190848201906040850190845b818110156117c0578351835292840192918401916001016138b9565b600080602083850312156138e857600080fd5b82356001600160401b03808211156138ff57600080fd5b818501915085601f83011261391357600080fd5b81358181111561392257600080fd5b86602060c08302850101111561393757600080fd5b60209290920196919550909350505050565b60008060006060848603121561395e57600080fd5b61396784613411565b95602085013595506040909401359392505050565b6000806040838503121561398f57600080fd5b61399883613411565b915060208301356139a881613598565b809150509250929050565b600080604083850312156139c657600080fd5b6139cf836134ee565b91506139dd60208401613411565b90509250929050565b634e487b7160e01b600052604160045260246000fd5b600082601f830112613a0d57600080fd5b81356001600160401b0380821115613a2757613a276139e6565b604051601f8301601f19908116603f01168101908282118183101715613a4f57613a4f6139e6565b81604052838152866020858801011115613a6857600080fd5b836020870160208301376000602085830101528094505050505092915050565b60008060008060808587031215613a9e57600080fd5b613aa785613411565b9350613ab5602086016134ee565b9250613ac360408601613502565b915060608501356001600160401b03811115613ade57600080fd5b613aea878288016139fc565b91505092959194509250565b60008060008060808587031215613b0c57600080fd5b613b1585613411565b9350613b2360208601613411565b92506040850135915060608501356001600160401b03811115613ade57600080fd5b608081016109a482846136be565b60008060408385031215613b6657600080fd5b6139cf83613411565b60008060008060008060808789031215613b8857600080fd5b613b91876134ee565b955060208701356001600160401b0380821115613bad57600080fd5b613bb98a838b01613645565b9097509550859150613bcd60408a01613502565b94506060890135915080821115613be357600080fd5b50613bf089828a016135c3565b979a9699509497509295939492505050565b600181811c90821680613c1657607f821691505b602082108103613c3657634e487b7160e01b600052602260045260246000fd5b50919050565b6000602080835260008454613c5081613c02565b80848701526040600180841660008114613c715760018114613c8b57613cb9565b60ff1985168984015283151560051b890183019550613cb9565b896000528660002060005b85811015613cb15781548b8201860152908301908801613c96565b8a0184019650505b509398975050505050505050565b600060208284031215613cd957600080fd5b8151610d2981613598565b601f82111561206c57600081815260208120601f850160051c81016020861015613d0b5750805b601f850160051c820191505b8181101561247857828155600101613d17565b6001600160401b03831115613d4157613d416139e6565b613d5583613d4f8354613c02565b83613ce4565b6000601f841160018114613d895760008515613d715750838201355b600019600387901b1c1916600186901b178355611c9a565b600083815260209020601f19861690835b82811015613dba5786850135825560209485019460019092019101613d9a565b5086821015613dd75760001960f88860031b161c19848701351681555b505060018560011b0183555050505050565b60208152816020820152818360408301376000818301604090810191909152601f909201601f19160101919050565b634e487b7160e01b600052603260045260246000fd5b634e487b7160e01b600052601160045260246000fd5b600060018201613e5657613e56613e2e565b5060010190565b818103818111156109a4576109a4613e2e565b6001600160401b03818116838216019080821115613e9057613e90613e2e565b5092915050565b9687526001600160501b0395909516602087015263ffffffff939093166040860152606085019190915262ffffff1660808401526001600160401b0390811660a08401521660c082015260e00190565b634e487b7160e01b600052603160045260246000fd5b600060208284031215613f0f57600080fd5b610d29826137fb565b600060208284031215613f2a57600080fd5b610d29826134ee565b600060208284031215613f4557600080fd5b610d2982613812565b808201808211156109a4576109a4613e2e565b600084516020613f748285838a01613448565b855191840191613f878184848a01613448565b8554920191600090613f9881613c02565b60018281168015613fb05760018114613fc557613ff1565b60ff1984168752821515830287019450613ff1565b896000528560002060005b84811015613fe957815489820152908301908701613fd0565b505082870194505b50929a9950505050505050505050565b60006001600160501b038083168185168183048111821515161561402757614027613e2e565b02949350505050565b63ffffffff818116838216019080821115613e9057613e90613e2e565b634e487b7160e01b600052602160045260246000fd5b828152604060208201526000610d26604083018461346c565b6000825161408e818460208701613448565b9190910192915050565b6000602082840312156140aa57600080fd5b5051919050565b6001600160a01b03858116825284166020820152604081018390526080606082018190526000906140e49083018461346c565b9695505050505050565b60006020828403121561410057600080fd5b8151610d29816133de56fea26469706673582212203e3c9dfd817c6c26ce30608cc919853db5867175e30ae29d7491cfe56f1593d864736f6c63430008100033",
  "linkReferences": {},
  "deployedLinkReferences": {}
}