{
  "_format": "hh-sol-artifact-1",
  "contractName": "ERC721MCallback",
  "sourceName": "contracts/ERC721MCallback.sol",
  "abi": [
    {
      "inputs": [
        {
          "internalType": "string",
          "name": "collectionName",
          "type": "string"
        },
        {
          "internalType": "string",
          "name": "collectionSymbol",
          "type": "string"
        },
        {
          "internalType": "string",
          "name": "tokenURISuffix",
          "type": "string"
        },
        {
          "internalType": "uint256",
          "name": "maxMintableSupply",
          "type": "uint256"
        },
        {
          "internalType": "uint256",
          "name": "globalWalletLimit",
          "type": "uint256"
        },
        {
          "internalType": "address",
          "name": "cosigner",
          "type": "address"
        }
      ],
      "stateMutability": "nonpayable",
      "type": "constructor"
    },
    {
      "inputs": [],
      "name": "ApprovalCallerNotOwnerNorApproved",
      "type": "error"
    },
    {
      "inputs": [],
      "name": "ApprovalQueryForNonexistentToken",
      "type": "error"
    },
    {
      "inputs": [],
      "name": "BalanceQueryForZeroAddress",
      "type": "error"
    },
    {
      "inputs": [
        {
          "internalType": "address",
          "name": "callbackContract",
          "type": "address"
        },
        {
          "internalType": "bytes4",
          "name": "callbackFunction",
          "type": "bytes4"
        }
      ],
      "name": "CallbackFailed",
      "type": "error"
    },
    {
      "inputs": [],
      "name": "CannotIncreaseMaxMintableSupply",
      "type": "error"
    },
    {
      "inputs": [],
      "name": "CannotUpdatePermanentBaseURI",
      "type": "error"
    },
    {
      "inputs": [],
      "name": "CosignerNotSet",
      "type": "error"
    },
    {
      "inputs": [],
      "name": "CrossmintAddressNotSet",
      "type": "error"
    },
    {
      "inputs": [],
      "name": "CrossmintOnly",
      "type": "error"
    },
    {
      "inputs": [],
      "name": "GlobalWalletLimitOverflow",
      "type": "error"
    },
    {
      "inputs": [],
      "name": "InsufficientStageTimeGap",
      "type": "error"
    },
    {
      "inputs": [
        {
          "internalType": "uint256",
          "name": "expected",
          "type": "uint256"
        },
        {
          "internalType": "uint256",
          "name": "actual",
          "type": "uint256"
        }
      ],
      "name": "InvalidCallbackDatasLength",
      "type": "error"
    },
    {
      "inputs": [],
      "name": "InvalidCosignSignature",
      "type": "error"
    },
    {
      "inputs": [],
      "name": "InvalidProof",
      "type": "error"
    },
    {
      "inputs": [],
      "name": "InvalidQueryRange",
      "type": "error"
    },
    {
      "inputs": [],
      "name": "InvalidStage",
      "type": "error"
    },
    {
      "inputs": [],
      "name": "InvalidStageArgsLength",
      "type": "error"
    },
    {
      "inputs": [],
      "name": "InvalidStartAndEndTimestamp",
      "type": "error"
    },
    {
      "inputs": [],
      "name": "MintERC2309QuantityExceedsLimit",
      "type": "error"
    },
    {
      "inputs": [],
      "name": "MintToZeroAddress",
      "type": "error"
    },
    {
      "inputs": [],
      "name": "MintZeroQuantity",
      "type": "error"
    },
    {
      "inputs": [],
      "name": "Mintable",
      "type": "error"
    },
    {
      "inputs": [],
      "name": "NoSupplyLeft",
      "type": "error"
    },
    {
      "inputs": [],
      "name": "NotEnoughValue",
      "type": "error"
    },
    {
      "inputs": [],
      "name": "NotMintable",
      "type": "error"
    },
    {
      "inputs": [],
      "name": "OwnerQueryForNonexistentToken",
      "type": "error"
    },
    {
      "inputs": [],
      "name": "OwnershipNotInitializedForExtraData",
      "type": "error"
    },
    {
      "inputs": [],
      "name": "StageSupplyExceeded",
      "type": "error"
    },
    {
      "inputs": [],
      "name": "TimestampExpired",
      "type": "error"
    },
    {
      "inputs": [],
      "name": "TransferCallerNotOwnerNorApproved",
      "type": "error"
    },
    {
      "inputs": [],
      "name": "TransferFromIncorrectOwner",
      "type": "error"
    },
    {
      "inputs": [],
      "name": "TransferToNonERC721ReceiverImplementer",
      "type": "error"
    },
    {
      "inputs": [],
      "name": "TransferToZeroAddress",
      "type": "error"
    },
    {
      "inputs": [],
      "name": "URIQueryForNonexistentToken",
      "type": "error"
    },
    {
      "inputs": [],
      "name": "WalletGlobalLimitExceeded",
      "type": "error"
    },
    {
      "inputs": [],
      "name": "WalletStageLimitExceeded",
      "type": "error"
    },
    {
      "inputs": [],
      "name": "WithdrawFailed",
      "type": "error"
    },
    {
      "anonymous": false,
      "inputs": [
        {
          "indexed": true,
          "internalType": "address",
          "name": "owner",
          "type": "address"
        },
        {
          "indexed": true,
          "internalType": "address",
          "name": "approved",
          "type": "address"
        },
        {
          "indexed": true,
          "internalType": "uint256",
          "name": "tokenId",
          "type": "uint256"
        }
      ],
      "name": "Approval",
      "type": "event"
    },
    {
      "anonymous": false,
      "inputs": [
        {
          "indexed": true,
          "internalType": "address",
          "name": "owner",
          "type": "address"
        },
        {
          "indexed": true,
          "internalType": "address",
          "name": "operator",
          "type": "address"
        },
        {
          "indexed": false,
          "internalType": "bool",
          "name": "approved",
          "type": "bool"
        }
      ],
      "name": "ApprovalForAll",
      "type": "event"
    },
    {
      "anonymous": false,
      "inputs": [
        {
          "indexed": true,
          "internalType": "uint256",
          "name": "fromTokenId",
          "type": "uint256"
        },
        {
          "indexed": false,
          "internalType": "uint256",
          "name": "toTokenId",
          "type": "uint256"
        },
        {
          "indexed": true,
          "internalType": "address",
          "name": "from",
          "type": "address"
        },
        {
          "indexed": true,
          "internalType": "address",
          "name": "to",
          "type": "address"
        }
      ],
      "name": "ConsecutiveTransfer",
      "type": "event"
    },
    {
      "anonymous": false,
      "inputs": [
        {
          "indexed": true,
          "internalType": "address",
          "name": "previousOwner",
          "type": "address"
        },
        {
          "indexed": true,
          "internalType": "address",
          "name": "newOwner",
          "type": "address"
        }
      ],
      "name": "OwnershipTransferred",
      "type": "event"
    },
    {
      "anonymous": false,
      "inputs": [
        {
          "indexed": false,
          "internalType": "string",
          "name": "baseURI",
          "type": "string"
        }
      ],
      "name": "PermanentBaseURI",
      "type": "event"
    },
    {
      "anonymous": false,
      "inputs": [
        {
          "indexed": false,
          "internalType": "uint256",
          "name": "activeStage",
          "type": "uint256"
        }
      ],
      "name": "SetActiveStage",
      "type": "event"
    },
    {
      "anonymous": false,
      "inputs": [
        {
          "indexed": false,
          "internalType": "string",
          "name": "baseURI",
          "type": "string"
        }
      ],
      "name": "SetBaseURI",
      "type": "event"
    },
    {
      "anonymous": false,
      "inputs": [
        {
          "indexed": false,
          "internalType": "address",
          "name": "cosigner",
          "type": "address"
        }
      ],
      "name": "SetCosigner",
      "type": "event"
    },
    {
      "anonymous": false,
      "inputs": [
        {
          "indexed": false,
          "internalType": "address",
          "name": "crossmintAddress",
          "type": "address"
        }
      ],
      "name": "SetCrossmintAddress",
      "type": "event"
    },
    {
      "anonymous": false,
      "inputs": [
        {
          "indexed": false,
          "internalType": "uint256",
          "name": "globalWalletLimit",
          "type": "uint256"
        }
      ],
      "name": "SetGlobalWalletLimit",
      "type": "event"
    },
    {
      "anonymous": false,
      "inputs": [
        {
          "indexed": false,
          "internalType": "uint256",
          "name": "maxMintableSupply",
          "type": "uint256"
        }
      ],
      "name": "SetMaxMintableSupply",
      "type": "event"
    },
    {
      "anonymous": false,
      "inputs": [
        {
          "indexed": false,
          "internalType": "bool",
          "name": "mintable",
          "type": "bool"
        }
      ],
      "name": "SetMintable",
      "type": "event"
    },
    {
      "anonymous": false,
      "inputs": [
        {
          "indexed": false,
          "internalType": "uint64",
          "name": "expiry",
          "type": "uint64"
        }
      ],
      "name": "SetTimestampExpirySeconds",
      "type": "event"
    },
    {
      "anonymous": false,
      "inputs": [
        {
          "indexed": true,
          "internalType": "address",
          "name": "from",
          "type": "address"
        },
        {
          "indexed": true,
          "internalType": "address",
          "name": "to",
          "type": "address"
        },
        {
          "indexed": true,
          "internalType": "uint256",
          "name": "tokenId",
          "type": "uint256"
        }
      ],
      "name": "Transfer",
      "type": "event"
    },
    {
      "anonymous": false,
      "inputs": [
        {
          "indexed": false,
          "internalType": "uint256",
          "name": "stage",
          "type": "uint256"
        },
        {
          "indexed": false,
          "internalType": "uint80",
          "name": "price",
          "type": "uint80"
        },
        {
          "indexed": false,
          "internalType": "uint32",
          "name": "walletLimit",
          "type": "uint32"
        },
        {
          "indexed": false,
          "internalType": "bytes32",
          "name": "merkleRoot",
          "type": "bytes32"
        },
        {
          "indexed": false,
          "internalType": "uint24",
          "name": "maxStageSupply",
          "type": "uint24"
        },
        {
          "indexed": false,
          "internalType": "uint64",
          "name": "startTimeUnixSeconds",
          "type": "uint64"
        },
        {
          "indexed": false,
          "internalType": "uint64",
          "name": "endTimeUnixSeconds",
          "type": "uint64"
        }
      ],
      "name": "UpdateStage",
      "type": "event"
    },
    {
      "anonymous": false,
      "inputs": [
        {
          "indexed": false,
          "internalType": "uint256",
          "name": "value",
          "type": "uint256"
        }
      ],
      "name": "Withdraw",
      "type": "event"
    },
    {
      "inputs": [
        {
          "internalType": "address",
          "name": "to",
          "type": "address"
        },
        {
          "internalType": "uint256",
          "name": "tokenId",
          "type": "uint256"
        }
      ],
      "name": "approve",
      "outputs": [],
      "stateMutability": "payable",
      "type": "function"
    },
    {
      "inputs": [
        {
          "internalType": "address",
          "name": "minter",
          "type": "address"
        },
        {
          "internalType": "uint32",
          "name": "qty",
          "type": "uint32"
        },
        {
          "internalType": "uint64",
          "name": "timestamp",
          "type": "uint64"
        },
        {
          "internalType": "bytes",
          "name": "signature",
          "type": "bytes"
        }
      ],
      "name": "assertValidCosign",
      "outputs": [],
      "stateMutability": "view",
      "type": "function"
    },
    {
      "inputs": [
        {
          "internalType": "address",
          "name": "owner",
          "type": "address"
        }
      ],
      "name": "balanceOf",
      "outputs": [
        {
          "internalType": "uint256",
          "name": "",
          "type": "uint256"
        }
      ],
      "stateMutability": "view",
      "type": "function"
    },
    {
      "inputs": [
        {
          "internalType": "uint32",
          "name": "qty",
          "type": "uint32"
        },
        {
          "internalType": "address",
          "name": "to",
          "type": "address"
        },
        {
          "internalType": "bytes32[]",
          "name": "proof",
          "type": "bytes32[]"
        },
        {
          "internalType": "uint64",
          "name": "timestamp",
          "type": "uint64"
        },
        {
          "internalType": "bytes",
          "name": "signature",
          "type": "bytes"
        }
      ],
      "name": "crossmint",
      "outputs": [],
      "stateMutability": "payable",
      "type": "function"
    },
    {
      "inputs": [
        {
          "internalType": "uint256",
          "name": "tokenId",
          "type": "uint256"
        }
      ],
      "name": "explicitOwnershipOf",
      "outputs": [
        {
          "components": [
            {
              "internalType": "address",
              "name": "addr",
              "type": "address"
            },
            {
              "internalType": "uint64",
              "name": "startTimestamp",
              "type": "uint64"
            },
            {
              "internalType": "bool",
              "name": "burned",
              "type": "bool"
            },
            {
              "internalType": "uint24",
              "name": "extraData",
              "type": "uint24"
            }
          ],
          "internalType": "struct IERC721A.TokenOwnership",
          "name": "",
          "type": "tuple"
        }
      ],
      "stateMutability": "view",
      "type": "function"
    },
    {
      "inputs": [
        {
          "internalType": "uint256[]",
          "name": "tokenIds",
          "type": "uint256[]"
        }
      ],
      "name": "explicitOwnershipsOf",
      "outputs": [
        {
          "components": [
            {
              "internalType": "address",
              "name": "addr",
              "type": "address"
            },
            {
              "internalType": "uint64",
              "name": "startTimestamp",
              "type": "uint64"
            },
            {
              "internalType": "bool",
              "name": "burned",
              "type": "bool"
            },
            {
              "internalType": "uint24",
              "name": "extraData",
              "type": "uint24"
            }
          ],
          "internalType": "struct IERC721A.TokenOwnership[]",
          "name": "",
          "type": "tuple[]"
        }
      ],
      "stateMutability": "view",
      "type": "function"
    },
    {
      "inputs": [
        {
          "internalType": "uint64",
          "name": "timestamp",
          "type": "uint64"
        }
      ],
      "name": "getActiveStageFromTimestamp",
      "outputs": [
        {
          "internalType": "uint256",
          "name": "",
          "type": "uint256"
        }
      ],
      "stateMutability": "view",
      "type": "function"
    },
    {
      "inputs": [
        {
          "internalType": "uint256",
          "name": "tokenId",
          "type": "uint256"
        }
      ],
      "name": "getApproved",
      "outputs": [
        {
          "internalType": "address",
          "name": "",
          "type": "address"
        }
      ],
      "stateMutability": "view",
      "type": "function"
    },
    {
      "inputs": [],
      "name": "getCallbackInfos",
      "outputs": [
        {
          "components": [
            {
              "internalType": "address",
              "name": "callbackContract",
              "type": "address"
            },
            {
              "internalType": "bytes4",
              "name": "callbackFunction",
              "type": "bytes4"
            }
          ],
          "internalType": "struct IERC721MCallback.CallbackInfo[]",
          "name": "",
          "type": "tuple[]"
        }
      ],
      "stateMutability": "view",
      "type": "function"
    },
    {
      "inputs": [
        {
          "internalType": "address",
          "name": "minter",
          "type": "address"
        },
        {
          "internalType": "uint32",
          "name": "qty",
          "type": "uint32"
        },
        {
          "internalType": "uint64",
          "name": "timestamp",
          "type": "uint64"
        }
      ],
      "name": "getCosignDigest",
      "outputs": [
        {
          "internalType": "bytes32",
          "name": "",
          "type": "bytes32"
        }
      ],
      "stateMutability": "view",
      "type": "function"
    },
    {
      "inputs": [
        {
          "internalType": "address",
          "name": "minter",
          "type": "address"
        }
      ],
      "name": "getCosignNonce",
      "outputs": [
        {
          "internalType": "uint256",
          "name": "",
          "type": "uint256"
        }
      ],
      "stateMutability": "view",
      "type": "function"
    },
    {
      "inputs": [],
      "name": "getCosigner",
      "outputs": [
        {
          "internalType": "address",
          "name": "",
          "type": "address"
        }
      ],
      "stateMutability": "view",
      "type": "function"
    },
    {
      "inputs": [],
      "name": "getCrossmintAddress",
      "outputs": [
        {
          "internalType": "address",
          "name": "",
          "type": "address"
        }
      ],
      "stateMutability": "view",
      "type": "function"
    },
    {
      "inputs": [],
      "name": "getGlobalWalletLimit",
      "outputs": [
        {
          "internalType": "uint256",
          "name": "",
          "type": "uint256"
        }
      ],
      "stateMutability": "view",
      "type": "function"
    },
    {
      "inputs": [],
      "name": "getMaxMintableSupply",
      "outputs": [
        {
          "internalType": "uint256",
          "name": "",
          "type": "uint256"
        }
      ],
      "stateMutability": "view",
      "type": "function"
    },
    {
      "inputs": [],
      "name": "getMintable",
      "outputs": [
        {
          "internalType": "bool",
          "name": "",
          "type": "bool"
        }
      ],
      "stateMutability": "view",
      "type": "function"
    },
    {
      "inputs": [],
      "name": "getNumberStages",
      "outputs": [
        {
          "internalType": "uint256",
          "name": "",
          "type": "uint256"
        }
      ],
      "stateMutability": "view",
      "type": "function"
    },
    {
      "inputs": [],
      "name": "getOnMintApprovals",
      "outputs": [
        {
          "internalType": "address[]",
          "name": "",
          "type": "address[]"
        }
      ],
      "stateMutability": "view",
      "type": "function"
    },
    {
      "inputs": [
        {
          "internalType": "uint256",
          "name": "index",
          "type": "uint256"
        }
      ],
      "name": "getStageInfo",
      "outputs": [
        {
          "components": [
            {
              "internalType": "uint80",
              "name": "price",
              "type": "uint80"
            },
            {
              "internalType": "uint32",
              "name": "walletLimit",
              "type": "uint32"
            },
            {
              "internalType": "bytes32",
              "name": "merkleRoot",
              "type": "bytes32"
            },
            {
              "internalType": "uint24",
              "name": "maxStageSupply",
              "type": "uint24"
            },
            {
              "internalType": "uint64",
              "name": "startTimeUnixSeconds",
              "type": "uint64"
            },
            {
              "internalType": "uint64",
              "name": "endTimeUnixSeconds",
              "type": "uint64"
            }
          ],
          "internalType": "struct IERC721M.MintStageInfo",
          "name": "",
          "type": "tuple"
        },
        {
          "internalType": "uint32",
          "name": "",
          "type": "uint32"
        },
        {
          "internalType": "uint256",
          "name": "",
          "type": "uint256"
        }
      ],
      "stateMutability": "view",
      "type": "function"
    },
    {
      "inputs": [],
      "name": "getTimestampExpirySeconds",
      "outputs": [
        {
          "internalType": "uint64",
          "name": "",
          "type": "uint64"
        }
      ],
      "stateMutability": "view",
      "type": "function"
    },
    {
      "inputs": [],
      "name": "getTokenURISuffix",
      "outputs": [
        {
          "internalType": "string",
          "name": "",
          "type": "string"
        }
      ],
      "stateMutability": "view",
      "type": "function"
    },
    {
      "inputs": [
        {
          "internalType": "address",
          "name": "owner",
          "type": "address"
        },
        {
          "internalType": "address",
          "name": "operator",
          "type": "address"
        }
      ],
      "name": "isApprovedForAll",
      "outputs": [
        {
          "internalType": "bool",
          "name": "",
          "type": "bool"
        }
      ],
      "stateMutability": "view",
      "type": "function"
    },
    {
      "inputs": [
        {
          "internalType": "uint32",
          "name": "qty",
          "type": "uint32"
        },
        {
          "internalType": "bytes32[]",
          "name": "proof",
          "type": "bytes32[]"
        },
        {
          "internalType": "uint64",
          "name": "timestamp",
          "type": "uint64"
        },
        {
          "internalType": "bytes",
          "name": "signature",
          "type": "bytes"
        }
      ],
      "name": "mint",
      "outputs": [],
      "stateMutability": "payable",
      "type": "function"
    },
    {
      "inputs": [
        {
          "internalType": "uint32",
          "name": "qty",
          "type": "uint32"
        },
        {
          "internalType": "bytes32[]",
          "name": "proof",
          "type": "bytes32[]"
        },
        {
          "internalType": "uint64",
          "name": "timestamp",
          "type": "uint64"
        },
        {
          "internalType": "bytes",
          "name": "signature",
          "type": "bytes"
        },
        {
          "internalType": "bytes[]",
          "name": "callbackDatas",
          "type": "bytes[]"
        }
      ],
      "name": "mintWithCallbacks",
      "outputs": [],
      "stateMutability": "payable",
      "type": "function"
    },
    {
      "inputs": [],
      "name": "name",
      "outputs": [
        {
          "internalType": "string",
          "name": "",
          "type": "string"
        }
      ],
      "stateMutability": "view",
      "type": "function"
    },
    {
      "inputs": [],
      "name": "owner",
      "outputs": [
        {
          "internalType": "address",
          "name": "",
          "type": "address"
        }
      ],
      "stateMutability": "view",
      "type": "function"
    },
    {
      "inputs": [
        {
          "internalType": "uint32",
          "name": "qty",
          "type": "uint32"
        },
        {
          "internalType": "address",
          "name": "to",
          "type": "address"
        }
      ],
      "name": "ownerMint",
      "outputs": [],
      "stateMutability": "nonpayable",
      "type": "function"
    },
    {
      "inputs": [
        {
          "internalType": "uint256",
          "name": "tokenId",
          "type": "uint256"
        }
      ],
      "name": "ownerOf",
      "outputs": [
        {
          "internalType": "address",
          "name": "",
          "type": "address"
        }
      ],
      "stateMutability": "view",
      "type": "function"
    },
    {
      "inputs": [],
      "name": "renounceOwnership",
      "outputs": [],
      "stateMutability": "nonpayable",
      "type": "function"
    },
    {
      "inputs": [
        {
          "internalType": "address",
          "name": "from",
          "type": "address"
        },
        {
          "internalType": "address",
          "name": "to",
          "type": "address"
        },
        {
          "internalType": "uint256",
          "name": "tokenId",
          "type": "uint256"
        }
      ],
      "name": "safeTransferFrom",
      "outputs": [],
      "stateMutability": "payable",
      "type": "function"
    },
    {
      "inputs": [
        {
          "internalType": "address",
          "name": "from",
          "type": "address"
        },
        {
          "internalType": "address",
          "name": "to",
          "type": "address"
        },
        {
          "internalType": "uint256",
          "name": "tokenId",
          "type": "uint256"
        },
        {
          "internalType": "bytes",
          "name": "_data",
          "type": "bytes"
        }
      ],
      "name": "safeTransferFrom",
      "outputs": [],
      "stateMutability": "payable",
      "type": "function"
    },
    {
      "inputs": [
        {
          "internalType": "address",
          "name": "operator",
          "type": "address"
        },
        {
          "internalType": "bool",
          "name": "approved",
          "type": "bool"
        }
      ],
      "name": "setApprovalForAll",
      "outputs": [],
      "stateMutability": "nonpayable",
      "type": "function"
    },
    {
      "inputs": [
        {
          "internalType": "string",
          "name": "baseURI",
          "type": "string"
        }
      ],
      "name": "setBaseURI",
      "outputs": [],
      "stateMutability": "nonpayable",
      "type": "function"
    },
    {
      "inputs": [],
      "name": "setBaseURIPermanent",
      "outputs": [],
      "stateMutability": "nonpayable",
      "type": "function"
    },
    {
      "inputs": [
        {
          "components": [
            {
              "internalType": "address",
              "name": "callbackContract",
              "type": "address"
            },
            {
              "internalType": "bytes4",
              "name": "callbackFunction",
              "type": "bytes4"
            }
          ],
          "internalType": "struct IERC721MCallback.CallbackInfo[]",
          "name": "callbackInfos",
          "type": "tuple[]"
        }
      ],
      "name": "setCallbackInfos",
      "outputs": [],
      "stateMutability": "nonpayable",
      "type": "function"
    },
    {
      "inputs": [
        {
          "internalType": "address",
          "name": "cosigner",
          "type": "address"
        }
      ],
      "name": "setCosigner",
      "outputs": [],
      "stateMutability": "nonpayable",
      "type": "function"
    },
    {
      "inputs": [
        {
          "internalType": "address",
          "name": "crossmintAddress",
          "type": "address"
        }
      ],
      "name": "setCrossmintAddress",
      "outputs": [],
      "stateMutability": "nonpayable",
      "type": "function"
    },
    {
      "inputs": [
        {
          "internalType": "uint256",
          "name": "globalWalletLimit",
          "type": "uint256"
        }
      ],
      "name": "setGlobalWalletLimit",
      "outputs": [],
      "stateMutability": "nonpayable",
      "type": "function"
    },
    {
      "inputs": [
        {
          "internalType": "uint256",
          "name": "maxMintableSupply",
          "type": "uint256"
        }
      ],
      "name": "setMaxMintableSupply",
      "outputs": [],
      "stateMutability": "nonpayable",
      "type": "function"
    },
    {
      "inputs": [
        {
          "internalType": "bool",
          "name": "mintable",
          "type": "bool"
        }
      ],
      "name": "setMintable",
      "outputs": [],
      "stateMutability": "nonpayable",
      "type": "function"
    },
    {
      "inputs": [
        {
          "internalType": "address[]",
          "name": "onMintApprovals",
          "type": "address[]"
        }
      ],
      "name": "setOnMintApprovals",
      "outputs": [],
      "stateMutability": "nonpayable",
      "type": "function"
    },
    {
      "inputs": [
        {
          "components": [
            {
              "internalType": "uint80",
              "name": "price",
              "type": "uint80"
            },
            {
              "internalType": "uint32",
              "name": "walletLimit",
              "type": "uint32"
            },
            {
              "internalType": "bytes32",
              "name": "merkleRoot",
              "type": "bytes32"
            },
            {
              "internalType": "uint24",
              "name": "maxStageSupply",
              "type": "uint24"
            },
            {
              "internalType": "uint64",
              "name": "startTimeUnixSeconds",
              "type": "uint64"
            },
            {
              "internalType": "uint64",
              "name": "endTimeUnixSeconds",
              "type": "uint64"
            }
          ],
          "internalType": "struct IERC721M.MintStageInfo[]",
          "name": "newStages",
          "type": "tuple[]"
        }
      ],
      "name": "setStages",
      "outputs": [],
      "stateMutability": "nonpayable",
      "type": "function"
    },
    {
      "inputs": [
        {
          "internalType": "uint64",
          "name": "expiry",
          "type": "uint64"
        }
      ],
      "name": "setTimestampExpirySeconds",
      "outputs": [],
      "stateMutability": "nonpayable",
      "type": "function"
    },
    {
      "inputs": [
        {
          "internalType": "string",
          "name": "suffix",
          "type": "string"
        }
      ],
      "name": "setTokenURISuffix",
      "outputs": [],
      "stateMutability": "nonpayable",
      "type": "function"
    },
    {
      "inputs": [
        {
          "internalType": "bytes4",
          "name": "interfaceId",
          "type": "bytes4"
        }
      ],
      "name": "supportsInterface",
      "outputs": [
        {
          "internalType": "bool",
          "name": "",
          "type": "bool"
        }
      ],
      "stateMutability": "view",
      "type": "function"
    },
    {
      "inputs": [],
      "name": "symbol",
      "outputs": [
        {
          "internalType": "string",
          "name": "",
          "type": "string"
        }
      ],
      "stateMutability": "view",
      "type": "function"
    },
    {
      "inputs": [
        {
          "internalType": "uint256",
          "name": "tokenId",
          "type": "uint256"
        }
      ],
      "name": "tokenURI",
      "outputs": [
        {
          "internalType": "string",
          "name": "",
          "type": "string"
        }
      ],
      "stateMutability": "view",
      "type": "function"
    },
    {
      "inputs": [
        {
          "internalType": "address",
          "name": "owner",
          "type": "address"
        }
      ],
      "name": "tokensOfOwner",
      "outputs": [
        {
          "internalType": "uint256[]",
          "name": "",
          "type": "uint256[]"
        }
      ],
      "stateMutability": "view",
      "type": "function"
    },
    {
      "inputs": [
        {
          "internalType": "address",
          "name": "owner",
          "type": "address"
        },
        {
          "internalType": "uint256",
          "name": "start",
          "type": "uint256"
        },
        {
          "internalType": "uint256",
          "name": "stop",
          "type": "uint256"
        }
      ],
      "name": "tokensOfOwnerIn",
      "outputs": [
        {
          "internalType": "uint256[]",
          "name": "",
          "type": "uint256[]"
        }
      ],
      "stateMutability": "view",
      "type": "function"
    },
    {
      "inputs": [
        {
          "internalType": "address",
          "name": "a",
          "type": "address"
        }
      ],
      "name": "totalMintedByAddress",
      "outputs": [
        {
          "internalType": "uint256",
          "name": "",
          "type": "uint256"
        }
      ],
      "stateMutability": "view",
      "type": "function"
    },
    {
      "inputs": [],
      "name": "totalSupply",
      "outputs": [
        {
          "internalType": "uint256",
          "name": "",
          "type": "uint256"
        }
      ],
      "stateMutability": "view",
      "type": "function"
    },
    {
      "inputs": [
        {
          "internalType": "address",
          "name": "from",
          "type": "address"
        },
        {
          "internalType": "address",
          "name": "to",
          "type": "address"
        },
        {
          "internalType": "uint256",
          "name": "tokenId",
          "type": "uint256"
        }
      ],
      "name": "transferFrom",
      "outputs": [],
      "stateMutability": "payable",
      "type": "function"
    },
    {
      "inputs": [
        {
          "internalType": "address",
          "name": "newOwner",
          "type": "address"
        }
      ],
      "name": "transferOwnership",
      "outputs": [],
      "stateMutability": "nonpayable",
      "type": "function"
    },
    {
      "inputs": [
        {
          "internalType": "uint256",
          "name": "index",
          "type": "uint256"
        },
        {
          "internalType": "uint80",
          "name": "price",
          "type": "uint80"
        },
        {
          "internalType": "uint32",
          "name": "walletLimit",
          "type": "uint32"
        },
        {
          "internalType": "bytes32",
          "name": "merkleRoot",
          "type": "bytes32"
        },
        {
          "internalType": "uint24",
          "name": "maxStageSupply",
          "type": "uint24"
        },
        {
          "internalType": "uint64",
          "name": "startTimeUnixSeconds",
          "type": "uint64"
        },
        {
          "internalType": "uint64",
          "name": "endTimeUnixSeconds",
          "type": "uint64"
        }
      ],
      "name": "updateStage",
      "outputs": [],
      "stateMutability": "nonpayable",
      "type": "function"
    },
    {
      "inputs": [],
      "name": "withdraw",
      "outputs": [],
      "stateMutability": "nonpayable",
      "type": "function"
    }
  ],
  "bytecode": "0x60806040523480156200001157600080fd5b50604051620049a9380380620049a9833981016040819052620000349162000234565b85858585858561012c868660026200004d83826200038b565b5060036200005c82826200038b565b505060008055506200006e336200011d565b6001600955838311156200009557604051630590c51360e01b815260040160405180910390fd5b600a805460ff19169055600c849055600d839055600f620000b786826200038b565b50600a80546001600160401b03909216620100000262010000600160501b03196001600160a01b039094166a0100000000000000000000029390931662010000600160f01b03199092169190911791909117905550620004579950505050505050505050565b600880546001600160a01b038381166001600160a01b0319831681179093556040519116919082907f8be0079c531659141344cd1fd0a4f28419497f9722a3daafe3b4186f6b6457e090600090a35050565b634e487b7160e01b600052604160045260246000fd5b600082601f8301126200019757600080fd5b81516001600160401b0380821115620001b457620001b46200016f565b604051601f8301601f19908116603f01168101908282118183101715620001df57620001df6200016f565b81604052838152602092508683858801011115620001fc57600080fd5b600091505b8382101562000220578582018301518183018401529082019062000201565b600093810190920192909252949350505050565b60008060008060008060c087890312156200024e57600080fd5b86516001600160401b03808211156200026657600080fd5b620002748a838b0162000185565b975060208901519150808211156200028b57600080fd5b620002998a838b0162000185565b96506040890151915080821115620002b057600080fd5b50620002bf89828a0162000185565b606089015160808a015160a08b0151929750909550935090506001600160a01b0381168114620002ee57600080fd5b809150509295509295509295565b600181811c908216806200031157607f821691505b6020821081036200033257634e487b7160e01b600052602260045260246000fd5b50919050565b601f8211156200038657600081815260208120601f850160051c81016020861015620003615750805b601f850160051c820191505b8181101562000382578281556001016200036d565b5050505b505050565b81516001600160401b03811115620003a757620003a76200016f565b620003bf81620003b88454620002fc565b8462000338565b602080601f831160018114620003f75760008415620003de5750858301515b600019600386901b1c1916600185901b17855562000382565b600085815260208120601f198616915b82811015620004285788860151825594840194600190910190840162000407565b5085821015620004475787850151600019600388901b60f8161c191681555b5050505050600190811b01905550565b61454280620004676000396000f3fe6080604052600436106103505760003560e01c80638da5cb5b116101c6578063b88d4fde116100f7578063d4bc244511610095578063efdaa2ec1161006f578063efdaa2ec14610a09578063f2fde38b14610a1e578063f698bceb14610a3e578063f8d0969614610a5657600080fd5b8063d4bc24451461098d578063e985e9c5146109ad578063efb6b11f146109f657600080fd5b8063c58a7c4e116100d1578063c58a7c4e14610909578063c87b56dd1461092b578063ce2b0ec01461094b578063d2963b8b1461096b57600080fd5b8063b88d4fde146108a9578063c23dc68f146108bc578063c375bedb146108e957600080fd5b8063a06c492f11610164578063a9852bfb1161013e578063a9852bfb14610834578063aac5ab1f14610854578063b50248e714610874578063b7a9fa601461089457600080fd5b8063a06c492f14610718578063a22cb46514610778578063a3759f601461079857600080fd5b806395d89b41116101a057806395d89b411461070357806397cf84fc14610718578063997556241461073857806399a2557a1461075857600080fd5b80638da5cb5b146106a75780638dcdb09d146106c55780638f931511146106e557600080fd5b80633ccfd60b116102a05780636352211e1161023e57806370da24ee1161021857806370da24ee14610630578063715018a61461064557806373e1607e1461065a5780638462151c1461067a57600080fd5b80636352211e146105d057806367808a34146105f057806370a082311461061057600080fd5b80634b1c53b41161027a5780634b1c53b41461055b57806355f804b3146105705780635bbb21771461059057806362acbd9a146105bd57600080fd5b80633ccfd60b146104fc57806342842e0e146105115780634ae0402f1461052457600080fd5b806317a75a421161030d57806323b872dd116102e757806323b872dd14610484578063285d70d41461049757806333bbbf06146104b7578063372992e4146104dc57600080fd5b806317a75a421461042e57806318160ddd146104415780631ce03eed1461046457600080fd5b806301ffc9a714610355578063020451381461038a57806306fdde03146103ac578063081812fc146103ce578063095ea7b3146104065780631053a81514610419575b600080fd5b34801561036157600080fd5b50610375610370366004613573565b610a76565b60405190151581526020015b60405180910390f35b34801561039657600080fd5b506103aa6103a53660046135a5565b610ac8565b005b3480156103b857600080fd5b506103c1610b46565b6040516103819190613612565b3480156103da57600080fd5b506103ee6103e9366004613625565b610bd8565b6040516001600160a01b039091168152602001610381565b6103aa61041436600461363e565b610c1c565b34801561042557600080fd5b506103aa610cbc565b6103aa61043c36600461371f565b610d0e565b34801561044d57600080fd5b50600154600054035b604051908152602001610381565b34801561047057600080fd5b5061045661047f3660046137dc565b610f4e565b6103aa610492366004613821565b61108e565b3480156104a357600080fd5b506103aa6104b2366004613872565b611227565b3480156104c357600080fd5b50600a54600160501b90046001600160a01b03166103ee565b3480156104e857600080fd5b506103aa6104f7366004613625565b611270565b34801561050857600080fd5b506103aa6112d0565b6103aa61051f366004613821565b61137b565b34801561053057600080fd5b50600a546201000090046001600160401b03166040516001600160401b039091168152602001610381565b34801561056757600080fd5b50600c54610456565b34801561057c57600080fd5b506103aa61058b36600461388d565b61139b565b34801561059c57600080fd5b506105b06105ab3660046138ce565b61140b565b604051610381919061393f565b6103aa6105cb366004613981565b6114d6565b3480156105dc57600080fd5b506103ee6105eb366004613625565b611554565b3480156105fc57600080fd5b5061045661060b366004613a27565b61155f565b34801561061c57600080fd5b5061045661062b3660046135a5565b611627565b34801561063c57600080fd5b50601054610456565b34801561065157600080fd5b506103aa611675565b34801561066657600080fd5b506103aa610675366004613a6c565b611689565b34801561068657600080fd5b5061069a6106953660046135a5565b611929565b6040516103819190613ae4565b3480156106b357600080fd5b506008546001600160a01b03166103ee565b3480156106d157600080fd5b506103aa6106e0366004613b1c565b611a31565b3480156106f157600080fd5b50600b546001600160a01b03166103ee565b34801561070f57600080fd5b506103c1611f06565b34801561072457600080fd5b506104566107333660046135a5565b611f15565b34801561074457600080fd5b506103aa6107533660046135a5565b611f3f565b34801561076457600080fd5b5061069a610773366004613b90565b611f95565b34801561078457600080fd5b506103aa610793366004613bc5565b61210c565b3480156107a457600080fd5b506107b86107b3366004613625565b612178565b6040805184516001600160501b0316815260208086015163ffffffff90811691830191909152858301519282019290925260608086015162ffffff16908201526080808601516001600160401b039081169183019190915260a095860151169481019490945290911660c083015260e082015261010001610381565b34801561084057600080fd5b506103aa61084f36600461388d565b6122bc565b34801561086057600080fd5b506103aa61086f366004613bfa565b6122d1565b34801561088057600080fd5b506103aa61088f366004613cd3565b61232a565b3480156108a057600080fd5b506103c1612374565b6103aa6108b7366004613d43565b612383565b3480156108c857600080fd5b506108dc6108d7366004613625565b6123c7565b6040516103819190613d96565b3480156108f557600080fd5b506103aa6109043660046138ce565b61243f565b34801561091557600080fd5b5061091e612453565b6040516103819190613da4565b34801561093757600080fd5b506103c1610946366004613625565b6124d3565b34801561095757600080fd5b506103aa610966366004613a27565b6125dc565b34801561097757600080fd5b5061098061263d565b6040516103819190613e06565b34801561099957600080fd5b506103aa6109a8366004613e47565b61269e565b3480156109b957600080fd5b506103756109c8366004613ea9565b6001600160a01b03918216600090815260076020908152604080832093909416825291909152205460ff1690565b6103aa610a04366004613ec7565b61275a565b348015610a1557600080fd5b50600d54610456565b348015610a2a57600080fd5b506103aa610a393660046135a5565b61277b565b348015610a4a57600080fd5b50600a5460ff16610375565b348015610a6257600080fd5b506103aa610a71366004613625565b6127f4565b60006301ffc9a760e01b6001600160e01b031983161480610aa757506380ac58cd60e01b6001600160e01b03198316145b80610ac25750635b5e139f60e01b6001600160e01b03198316145b92915050565b610ad0612854565b600a80547fffff0000000000000000000000000000000000000000ffffffffffffffffffff16600160501b6001600160a01b038416908102919091179091556040519081527faea1573caf7b4fdd079b947d86c1be6c725642c47582f8f9bd2c7d2a30bf0bd9906020015b60405180910390a150565b606060028054610b5590613f5a565b80601f0160208091040260200160405190810160405280929190818152602001828054610b8190613f5a565b8015610bce5780601f10610ba357610100808354040283529160200191610bce565b820191906000526020600020905b815481529060010190602001808311610bb157829003601f168201915b5050505050905090565b6000610be3826128ae565b610c00576040516333d1c03960e21b815260040160405180910390fd5b506000908152600660205260409020546001600160a01b031690565b6000610c2782611554565b9050336001600160a01b03821614610c6057610c4381336109c8565b610c60576040516367d9dca160e11b815260040160405180910390fd5b60008281526006602052604080822080546001600160a01b0319166001600160a01b0387811691821790925591518593918516917f8c5be1e5ebec7d5bd14f71427d1e84f3dd0314c0f7b2291e5b200ac8c7c3b92591a4505050565b610cc4612854565b600a805461ff0019166101001790556040517fc6a6c2b165e62c9d37fc51a18ed76e5be22304bc1d337877c98f31c23e40b0f590610d0490600e90613f94565b60405180910390a1565b610d1d883389898989896128d5565b6013548114610d525760135460405163f8fccb9d60e01b81526004810191909152602481018290526044015b60405180910390fd5b60005b601454811015610df357610dab3360148381548110610d7657610d7661401f565b60009182526020808320909101546001600160a01b039384168352600782526040808420949091168352929052205460ff1690565b610de157610de160148281548110610dc557610dc561401f565b6000918252602090912001546001600160a01b0316600161210c565b80610deb8161404b565b915050610d55565b5060005b601354811015610f4357600060138281548110610e1657610e1661401f565b60009182526020808320604080518082019091529201546001600160a01b038116808452600160a01b90910460e01b6001600160e01b031916918301829052919350868686818110610e6a57610e6a61401f565b9050602002810190610e7c9190614064565b604051602001610e8e939291906140aa565b60408051601f1981840301815290829052610ea8916140ce565b6000604051808303816000865af19150503d8060008114610ee5576040519150601f19603f3d011682016040523d82523d6000602084013e610eea565b606091505b5050905080610f2e578151602083015160405163bc4a234960e01b81526001600160a01b0390921660048301526001600160e01b0319166024820152604401610d49565b50508080610f3b9061404b565b915050610df7565b505050505050505050565b600a54600090600160501b90046001600160a01b0316610f81576040516353bd4fb360e11b815260040160405180910390fd5b611084308585600a8054906101000a90046001600160a01b031686610fa34690565b610fac8b611f15565b604051606097881b6bffffffffffffffffffffffff19908116602083015296881b8716603482015260e09590951b6001600160e01b031916604886015292861b909416604c84015260c01b6001600160c01b031916938201939093526068810191909152608881019190915260a801604051602081830303815290604052805190602001206040517f19457468657265756d205369676e6564204d6573736167653a0a3332000000006020820152603c8101829052600090605c01604051602081830303815290604052805190602001209050919050565b90505b9392505050565b600061109982612d2f565b9050836001600160a01b0316816001600160a01b0316146110cc5760405162a1148160e81b815260040160405180910390fd5b60008281526006602052604090208054338082146001600160a01b03881690911417611119576110fc86336109c8565b61111957604051632ce44b5f60e11b815260040160405180910390fd5b6001600160a01b03851661114057604051633a954ecd60e21b815260040160405180910390fd5b801561114b57600082555b6001600160a01b038681166000908152600560205260408082208054600019019055918716808252919020805460010190554260a01b17600160e11b17600085815260046020526040812091909155600160e11b841690036111dd576001840160008181526004602052604081205490036111db5760005481146111db5760008181526004602052604090208490555b505b83856001600160a01b0316876001600160a01b03167fddf252ad1be2c89b69c2b068fc378daa952ba7f163c4a11628f55a4df523b3ef60405160405180910390a45b505050505050565b61122f612854565b600a805460ff19168215159081179091556040519081527fe717a2bfc51e250b028aaac5eb448e76f4df26b9609956782bff49097bb792cf90602001610b3b565b611278612854565b600c5481111561129b57604051630590c51360e01b815260040160405180910390fd5b600d8190556040518181527f5307de8ad7d34d5ddfd5171435c143bdc645493980f453eb5d7cdb3e494a1b3590602001610b3b565b6112d8612854565b6040514790600090339083908381818185875af1925050503d806000811461131c576040519150601f19603f3d011682016040523d82523d6000602084013e611321565b606091505b505090508061134357604051631d42c86760e21b815260040160405180910390fd5b6040518281527f5b6b431d4476a211bb7d41c20d1aab9ae2321deee0d20be3d9fc9b1093fa6e3d906020015b60405180910390a15050565b61139683838360405180602001604052806000815250612383565b505050565b6113a3612854565b600a54610100900460ff16156113cc576040516306ccad4160e41b815260040160405180910390fd5b600e6113d9828483614130565b507f23c8c9488efebfd474e85a7956de6f39b17c7ab88502d42a623db2d8e382bbaa828260405161136f9291906141ef565b6060816000816001600160401b0381111561142857611428613c31565b60405190808252806020026020018201604052801561147a57816020015b6040805160808101825260008082526020808301829052928201819052606082015282526000199092019101816114465790505b50905060005b8281146114cd576114a886868381811061149c5761149c61401f565b905060200201356123c7565b8282815181106114ba576114ba61401f565b6020908102919091010152600101611480565b50949350505050565b6114de612d96565b600b546001600160a01b031661150757604051637e9f68eb60e11b815260040160405180910390fd5b600b546001600160a01b031633146115325760405163f46fd68360e01b815260040160405180910390fd5b611541878787878787876128d5565b61154b6001600955565b50505050505050565b6000610ac282612d2f565b6000805b60105481101561160d57601081815481106115805761158061401f565b60009182526020909120600260039092020101546001600160401b0363010000009091048116908416108015906115f05750601081815481106115c5576115c561401f565b60009182526020909120600260039092020101546001600160401b03600160581b9091048116908416105b156115fb5792915050565b806116058161404b565b915050611563565b5060405163e82a532960e01b815260040160405180910390fd5b60006001600160a01b038216611650576040516323d3ad8160e21b815260040160405180910390fd5b506001600160a01b03166000908152600560205260409020546001600160401b031690565b61167d612854565b6116876000612def565b565b611691612854565b60105487106116b35760405163e82a532960e01b815260040160405180910390fd5b6001871061174b57600a546201000090046001600160401b031660106116da60018a61421e565b815481106116ea576116ea61401f565b9060005260206000209060030201600201600b9054906101000a90046001600160401b03166117199190614231565b6001600160401b0316826001600160401b0316101561174b57604051636bc1af9360e01b815260040160405180910390fd5b6117558282612e41565b85601088815481106117695761176961401f565b906000526020600020906003020160000160006101000a8154816001600160501b0302191690836001600160501b0316021790555084601088815481106117b2576117b261401f565b9060005260206000209060030201600001600a6101000a81548163ffffffff021916908363ffffffff16021790555083601088815481106117f5576117f561401f565b906000526020600020906003020160010181905550826010888154811061181e5761181e61401f565b906000526020600020906003020160020160006101000a81548162ffffff021916908362ffffff160217905550816010888154811061185f5761185f61401f565b906000526020600020906003020160020160036101000a8154816001600160401b0302191690836001600160401b0316021790555080601088815481106118a8576118a861401f565b9060005260206000209060030201600201600b6101000a8154816001600160401b0302191690836001600160401b031602179055507fb3268648542a1bb1b2dd12e3b14aeb5a3ab22c592de96bdd3e842154a5b394fa878787878787876040516119189796959493929190614258565b60405180910390a150505050505050565b6060600080600061193985611627565b90506000816001600160401b0381111561195557611955613c31565b60405190808252806020026020018201604052801561197e578160200160208202803683370190505b5090506119ab60408051608081018252600080825260208201819052918101829052606081019190915290565b60005b838614611a25576119be81612e77565b91508160400151611a1d5781516001600160a01b0316156119de57815194505b876001600160a01b0316856001600160a01b031603611a1d5780838780600101985081518110611a1057611a1061401f565b6020026020010181815250505b6001016119ae565b50909695505050505050565b611a39612854565b60105460005b81811015611ab4576010805480611a5857611a586142a8565b60008281526020812060036000199093019283020180546001600160701b03191681556001810191909155600201805472ffffffffffffffffffffffffffffffffffffff19169055905580611aac8161404b565b915050611a3f565b50600a546201000090046001600160401b031660005b83811015611eff5760018110611b7457818585611ae860018561421e565b818110611af757611af761401f565b905060c0020160a0016020810190611b0f9190613a27565b611b199190614231565b6001600160401b0316858583818110611b3457611b3461401f565b905060c002016080016020810190611b4c9190613a27565b6001600160401b03161015611b7457604051636bc1af9360e01b815260040160405180910390fd5b611bd0858583818110611b8957611b8961401f565b905060c002016080016020810190611ba19190613a27565b868684818110611bb357611bb361401f565b905060c0020160a0016020810190611bcb9190613a27565b612e41565b60106040518060c00160405280878785818110611bef57611bef61401f565b611c0592602060c09092020190810191506142be565b6001600160501b03168152602001878785818110611c2557611c2561401f565b905060c002016020016020810190611c3d91906142d9565b63ffffffff168152602001878785818110611c5a57611c5a61401f565b905060c00201604001358152602001878785818110611c7b57611c7b61401f565b905060c002016060016020810190611c9391906142f4565b62ffffff168152602001878785818110611caf57611caf61401f565b905060c002016080016020810190611cc79190613a27565b6001600160401b03168152602001878785818110611ce757611ce761401f565b905060c0020160a0016020810190611cff9190613a27565b6001600160401b039081169091528254600181810185556000948552602094859020845160039093020180549585015163ffffffff16600160501b026001600160701b03199096166001600160501b0390931692909217949094178155604083015193810193909355606082015160029093018054608084015160a0909401518316600160581b0267ffffffffffffffff60581b19949093166301000000026affffffffffffffffffffff1990911662ffffff9095169490941793909317919091161790557fb3268648542a1bb1b2dd12e3b14aeb5a3ab22c592de96bdd3e842154a5b394fa81868682818110611df857611df861401f565b611e0e92602060c09092020190810191506142be565b878785818110611e2057611e2061401f565b905060c002016020016020810190611e3891906142d9565b888886818110611e4a57611e4a61401f565b905060c0020160400135898987818110611e6657611e6661401f565b905060c002016060016020810190611e7e91906142f4565b8a8a88818110611e9057611e9061401f565b905060c002016080016020810190611ea89190613a27565b8b8b89818110611eba57611eba61401f565b905060c0020160a0016020810190611ed29190613a27565b604051611ee59796959493929190614258565b60405180910390a180611ef78161404b565b915050611aca565b5050505050565b606060038054610b5590613f5a565b6001600160a01b038116600090815260056020526040808220546001600160401b03911c16610ac2565b611f47612854565b600b80546001600160a01b0319166001600160a01b0383169081179091556040519081527ff477d93c015f2a73c2ccc5ed37078d12123b80fc5d12e0014c60b913bc1a1ec490602001610b3b565b6060818310611fb757604051631960ccad60e11b815260040160405180910390fd5b600080611fc360005490565b905080841115611fd1578093505b6000611fdc87611627565b905084861015611ffb5785850381811015611ff5578091505b50611fff565b5060005b6000816001600160401b0381111561201957612019613c31565b604051908082528060200260200182016040528015612042578160200160208202803683370190505b5090508160000361205857935061108792505050565b6000612063886123c7565b905060008160400151612074575080515b885b8881141580156120865750848714155b156120fb5761209481612e77565b925082604001516120f35782516001600160a01b0316156120b457825191505b8a6001600160a01b0316826001600160a01b0316036120f357808488806001019950815181106120e6576120e661401f565b6020026020010181815250505b600101612076565b505050928352509095945050505050565b3360008181526007602090815260408083206001600160a01b03871680855290835292819020805460ff191686151590811790915590519081529192917f17307eab39ab6107e8899845ad3d59bd9653f200f220920489ca2b5937696c31910160405180910390a35050565b6040805160c081018252600080825260208201819052918101829052606081018290526080810182905260a0810191909152601054600090819084106121ef5760405162461bcd60e51b815260206004820152600c60248201526b496e76616c6964537461676560a01b6044820152606401610d49565b60008481526011602090815260408083203384528252808320548784526012909252909120546010805463ffffffff90931692879081106122325761223261401f565b60009182526020918290206040805160c08101825260039390930290910180546001600160501b0381168452600160501b900463ffffffff169383019390935260018301549082015260029091015462ffffff81166060830152630100000081046001600160401b039081166080840152600160581b9091041660a0820152969195509350915050565b6122c4612854565b600f611396828483614130565b6122d9612854565b8163ffffffff16600c54816122f16001546000540390565b6122fb919061430f565b111561231a5760405163800113cb60e01b815260040160405180910390fd5b611396828463ffffffff16612eb3565b600a5461235290600160501b90046001600160a01b031661234c868686610f4e565b83612ecd565b61236e5760405162b7fad960e11b815260040160405180910390fd5b50505050565b6060600f8054610b5590613f5a565b61238e84848461108e565b6001600160a01b0383163b1561236e576123aa8484848461300f565b61236e576040516368d2bf6b60e11b815260040160405180910390fd5b604080516080808201835260008083526020808401829052838501829052606080850183905285519384018652828452908301829052938201819052928101839052909150600054831061241b5792915050565b61242483612e77565b90508060400151156124365792915050565b611087836130fa565b612447612854565b611396601483836134e5565b60606013805480602002602001604051908101604052809291908181526020016000905b828210156124ca57600084815260209081902060408051808201909152908401546001600160a01b0381168252600160a01b900460e01b6001600160e01b03191681830152825260019092019101612477565b50505050905090565b60606124de826128ae565b6124fb57604051630a14c4b560e41b815260040160405180910390fd5b6000600e805461250a90613f5a565b80601f016020809104026020016040519081016040528092919081815260200182805461253690613f5a565b80156125835780601f1061255857610100808354040283529160200191612583565b820191906000526020600020905b81548152906001019060200180831161256657829003601f168201915b5050505050905080516000036125a85760405180602001604052806000815250611087565b806125b28461312f565b600f6040516020016125c693929190614322565b6040516020818303038152906040529392505050565b6125e4612854565b600a805469ffffffffffffffff00001916620100006001600160401b038416908102919091179091556040519081527f41b9126ccd8cb4505310c40a376055b5ef246bd4c9214de02af31ef4f26b1b5f90602001610b3b565b60606014805480602002602001604051908101604052809291908181526020018280548015610bce57602002820191906000526020600020905b81546001600160a01b03168152600190910190602001808311612677575050505050905090565b6126a6612854565b60135460005b818110156126f95760138054806126c5576126c56142a8565b600082815260209020810160001990810180546001600160c01b0319169055019055806126f18161404b565b9150506126ac565b5060005b8281101561236e5760138484838181106127195761271961401f565b8354600181018555600094855260209094206040909102929092019291909101905061274582826143c2565b505080806127529061404b565b9150506126fd565b612762612d96565b612771863387878787876128d5565b61121f6001600955565b612783612854565b6001600160a01b0381166127e85760405162461bcd60e51b815260206004820152602660248201527f4f776e61626c653a206e6577206f776e657220697320746865207a65726f206160448201526564647265737360d01b6064820152608401610d49565b6127f181612def565b50565b6127fc612854565b600c5481111561281f5760405163430b83b160e11b815260040160405180910390fd5b600c8190556040518181527fc7bbc2b288fc13314546ea4aa51f6bcf71b7ba4740beeb3d32e9acef57b6668a90602001610b3b565b6008546001600160a01b031633146116875760405162461bcd60e51b815260206004820181905260248201527f4f776e61626c653a2063616c6c6572206973206e6f7420746865206f776e65726044820152606401610d49565b6000805482108015610ac2575050600090815260046020526040902054600160e01b161590565b600a5460ff166128f857604051630952c8a960e11b815260040160405180910390fd5b8663ffffffff16600c54816129106001546000540390565b61291a919061430f565b11156129395760405163800113cb60e01b815260040160405180910390fd5b426129726040805160c081018252600080825260208201819052918101829052606081018290526080810182905260a081019190915290565b600a54600160501b90046001600160a01b0316156129d9576129cc338b8888888080601f01602080910402602001604051908101604052809392919081815260200183838082843760009201919091525061232a92505050565b6129d586613173565b8591505b60006129e48361155f565b9050601081815481106129f9576129f961401f565b60009182526020918290206040805160c081018252600390930290910180546001600160501b03811680855263ffffffff600160501b9092048216958501959095526001820154928401929092526002015462ffffff811660608401526001600160401b036301000000820481166080850152600160581b9091041660a0830152909350612a8a91908d169061441e565b6001600160501b0316341015612ab357604051630717c22560e51b815260040160405180910390fd5b606082015162ffffff1615612b0d57606082015160008281526012602052604090205462ffffff90911690612aef9063ffffffff8e169061430f565b1115612b0d5760405162d0844960e21b815260040160405180910390fd5b600d5415612b7457600d548b63ffffffff16612b4b8c6001600160a01b03166000908152600560205260409081902054901c6001600160401b031690565b612b55919061430f565b1115612b745760405163751304ed60e11b815260040160405180910390fd5b602082015163ffffffff1615612be65760208083015160008381526011835260408082206001600160a01b038f168352909352919091205463ffffffff91821691612bc1918e911661444d565b63ffffffff161115612be65760405163b4f3729b60e01b815260040160405180910390fd5b604082015115612c8d578160400151612c6f8a8a8080602002602001604051908101604052809392919081815260200183836020028082843760009201919091525050604051612c5492508f915060200160609190911b6bffffffffffffffffffffffff1916815260140190565b604051602081830303815290604052805190602001206131b8565b14612c8d576040516309bde33960e01b815260040160405180910390fd5b60008181526011602090815260408083206001600160a01b038e168452909152812080548d9290612cc590849063ffffffff1661444d565b92506101000a81548163ffffffff021916908363ffffffff1602179055508a63ffffffff16601260008381526020019081526020016000206000828254612d0c919061430f565b90915550612d2290508a63ffffffff8d16612eb3565b5050505050505050505050565b600081600054811015612d7d5760008181526004602052604081205490600160e01b82169003612d7b575b80600003611087575060001901600081815260046020526040902054612d5a565b505b604051636f96cda160e11b815260040160405180910390fd5b600260095403612de85760405162461bcd60e51b815260206004820152601f60248201527f5265656e7472616e637947756172643a207265656e7472616e742063616c6c006044820152606401610d49565b6002600955565b600880546001600160a01b038381166001600160a01b0319831681179093556040519116919082907f8be0079c531659141344cd1fd0a4f28419497f9722a3daafe3b4186f6b6457e090600090a35050565b806001600160401b0316826001600160401b031610612e7357604051631750215560e11b815260040160405180910390fd5b5050565b604080516080810182526000808252602082018190529181018290526060810191909152600082815260046020526040902054610ac290613205565b612e7382826040518060200160405280600081525061324c565b6000806000612edc85856132b2565b90925090506000816004811115612ef557612ef561446a565b148015612f135750856001600160a01b0316826001600160a01b0316145b15612f2357600192505050611087565b600080876001600160a01b0316631626ba7e60e01b8888604051602401612f4b929190614480565b60408051601f198184030181529181526020820180516001600160e01b03166001600160e01b0319909416939093179092529051612f8991906140ce565b600060405180830381855afa9150503d8060008114612fc4576040519150601f19603f3d011682016040523d82523d6000602084013e612fc9565b606091505b5091509150818015612fdc575080516020145b801561300357508051630b135d3f60e11b906130019083016020908101908401614499565b145b98975050505050505050565b604051630a85bd0160e11b81526000906001600160a01b0385169063150b7a02906130449033908990889088906004016144b2565b6020604051808303816000875af192505050801561307f575060408051601f3d908101601f1916820190925261307c918101906144ef565b60015b6130dd573d8080156130ad576040519150601f19603f3d011682016040523d82523d6000602084013e6130b2565b606091505b5080516000036130d5576040516368d2bf6b60e11b815260040160405180910390fd5b805181602001fd5b6001600160e01b031916630a85bd0160e11b149050949350505050565b604080516080810182526000808252602082018190529181018290526060810191909152610ac261312a83612d2f565b613205565b606060a06040510180604052602081039150506000815280825b600183039250600a81066030018353600a9004806131495750819003601f19909101908152919050565b600a5461318f906201000090046001600160401b03164261421e565b816001600160401b031610156127f1576040516313634e8d60e11b815260040160405180910390fd5b600081815b84518110156131fd576131e9828683815181106131dc576131dc61401f565b60200260200101516132f7565b9150806131f58161404b565b9150506131bd565b509392505050565b604080516080810182526001600160a01b038316815260a083901c6001600160401b03166020820152600160e01b831615159181019190915260e89190911c606082015290565b6132568383613323565b6001600160a01b0383163b15611396576000548281035b613280600086838060010194508661300f565b61329d576040516368d2bf6b60e11b815260040160405180910390fd5b81811061326d578160005414611eff57600080fd5b60008082516041036132e85760208301516040840151606085015160001a6132dc87828585613421565b945094505050506132f0565b506000905060025b9250929050565b6000818310613313576000828152602084905260409020611087565b5060009182526020526040902090565b60008054908290036133485760405163b562e8dd60e01b815260040160405180910390fd5b6001600160a01b03831660008181526005602090815260408083208054680100000000000000018802019055848352600490915281206001851460e11b4260a01b178317905582840190839083907fddf252ad1be2c89b69c2b068fc378daa952ba7f163c4a11628f55a4df523b3ef8180a4600183015b8181146133f757808360007fddf252ad1be2c89b69c2b068fc378daa952ba7f163c4a11628f55a4df523b3ef600080a46001016133bf565b508160000361341857604051622e076360e81b815260040160405180910390fd5b60005550505050565b6000807f7fffffffffffffffffffffffffffffff5d576e7357a4501ddfe92f46681b20a083111561345857506000905060036134dc565b6040805160008082526020820180845289905260ff881692820192909252606081018690526080810185905260019060a0016020604051602081039080840390855afa1580156134ac573d6000803e3d6000fd5b5050604051601f1901519150506001600160a01b0381166134d5576000600192509250506134dc565b9150600090505b94509492505050565b828054828255906000526020600020908101928215613538579160200282015b828111156135385781546001600160a01b0319166001600160a01b03843516178255602090920191600190910190613505565b50613544929150613548565b5090565b5b808211156135445760008155600101613549565b6001600160e01b0319811681146127f157600080fd5b60006020828403121561358557600080fd5b81356110878161355d565b6001600160a01b03811681146127f157600080fd5b6000602082840312156135b757600080fd5b813561108781613590565b60005b838110156135dd5781810151838201526020016135c5565b50506000910152565b600081518084526135fe8160208601602086016135c2565b601f01601f19169290920160200192915050565b60208152600061108760208301846135e6565b60006020828403121561363757600080fd5b5035919050565b6000806040838503121561365157600080fd5b823561365c81613590565b946020939093013593505050565b803563ffffffff8116811461367e57600080fd5b919050565b60008083601f84011261369557600080fd5b5081356001600160401b038111156136ac57600080fd5b6020830191508360208260051b85010111156132f057600080fd5b80356001600160401b038116811461367e57600080fd5b60008083601f8401126136f057600080fd5b5081356001600160401b0381111561370757600080fd5b6020830191508360208285010111156132f057600080fd5b60008060008060008060008060a0898b03121561373b57600080fd5b6137448961366a565b975060208901356001600160401b038082111561376057600080fd5b61376c8c838d01613683565b909950975087915061378060408c016136c7565b965060608b013591508082111561379657600080fd5b6137a28c838d016136de565b909650945060808b01359150808211156137bb57600080fd5b506137c88b828c01613683565b999c989b5096995094979396929594505050565b6000806000606084860312156137f157600080fd5b83356137fc81613590565b925061380a6020850161366a565b9150613818604085016136c7565b90509250925092565b60008060006060848603121561383657600080fd5b833561384181613590565b9250602084013561385181613590565b929592945050506040919091013590565b8035801515811461367e57600080fd5b60006020828403121561388457600080fd5b61108782613862565b600080602083850312156138a057600080fd5b82356001600160401b038111156138b657600080fd5b6138c2858286016136de565b90969095509350505050565b600080602083850312156138e157600080fd5b82356001600160401b038111156138f757600080fd5b6138c285828601613683565b80516001600160a01b031682526020808201516001600160401b03169083015260408082015115159083015260609081015162ffffff16910152565b6020808252825182820181905260009190848201906040850190845b81811015611a255761396e838551613903565b928401926080929092019160010161395b565b600080600080600080600060a0888a03121561399c57600080fd5b6139a58861366a565b965060208801356139b581613590565b955060408801356001600160401b03808211156139d157600080fd5b6139dd8b838c01613683565b90975095508591506139f160608b016136c7565b945060808a0135915080821115613a0757600080fd5b50613a148a828b016136de565b989b979a50959850939692959293505050565b600060208284031215613a3957600080fd5b611087826136c7565b80356001600160501b038116811461367e57600080fd5b803562ffffff8116811461367e57600080fd5b600080600080600080600060e0888a031215613a8757600080fd5b87359650613a9760208901613a42565b9550613aa56040890161366a565b945060608801359350613aba60808901613a59565b9250613ac860a089016136c7565b9150613ad660c089016136c7565b905092959891949750929550565b6020808252825182820181905260009190848201906040850190845b81811015611a2557835183529284019291840191600101613b00565b60008060208385031215613b2f57600080fd5b82356001600160401b0380821115613b4657600080fd5b818501915085601f830112613b5a57600080fd5b813581811115613b6957600080fd5b86602060c083028501011115613b7e57600080fd5b60209290920196919550909350505050565b600080600060608486031215613ba557600080fd5b8335613bb081613590565b95602085013595506040909401359392505050565b60008060408385031215613bd857600080fd5b8235613be381613590565b9150613bf160208401613862565b90509250929050565b60008060408385031215613c0d57600080fd5b613c168361366a565b91506020830135613c2681613590565b809150509250929050565b634e487b7160e01b600052604160045260246000fd5b600082601f830112613c5857600080fd5b81356001600160401b0380821115613c7257613c72613c31565b604051601f8301601f19908116603f01168101908282118183101715613c9a57613c9a613c31565b81604052838152866020858801011115613cb357600080fd5b836020870160208301376000602085830101528094505050505092915050565b60008060008060808587031215613ce957600080fd5b8435613cf481613590565b9350613d026020860161366a565b9250613d10604086016136c7565b915060608501356001600160401b03811115613d2b57600080fd5b613d3787828801613c47565b91505092959194509250565b60008060008060808587031215613d5957600080fd5b8435613d6481613590565b93506020850135613d7481613590565b92506040850135915060608501356001600160401b03811115613d2b57600080fd5b60808101610ac28284613903565b602080825282518282018190526000919060409081850190868401855b82811015613df957815180516001600160a01b031685528601516001600160e01b031916868501529284019290850190600101613dc1565b5091979650505050505050565b6020808252825182820181905260009190848201906040850190845b81811015611a255783516001600160a01b031683529284019291840191600101613e22565b60008060208385031215613e5a57600080fd5b82356001600160401b0380821115613e7157600080fd5b818501915085601f830112613e8557600080fd5b813581811115613e9457600080fd5b8660208260061b8501011115613b7e57600080fd5b60008060408385031215613ebc57600080fd5b8235613c1681613590565b60008060008060008060808789031215613ee057600080fd5b613ee98761366a565b955060208701356001600160401b0380821115613f0557600080fd5b613f118a838b01613683565b9097509550859150613f2560408a016136c7565b94506060890135915080821115613f3b57600080fd5b50613f4889828a016136de565b979a9699509497509295939492505050565b600181811c90821680613f6e57607f821691505b602082108103613f8e57634e487b7160e01b600052602260045260246000fd5b50919050565b6000602080835260008454613fa881613f5a565b80848701526040600180841660008114613fc95760018114613fe357614011565b60ff1985168984015283151560051b890183019550614011565b896000528660002060005b858110156140095781548b8201860152908301908801613fee565b8a0184019650505b509398975050505050505050565b634e487b7160e01b600052603260045260246000fd5b634e487b7160e01b600052601160045260246000fd5b60006001820161405d5761405d614035565b5060010190565b6000808335601e1984360301811261407b57600080fd5b8301803591506001600160401b0382111561409557600080fd5b6020019150368190038213156132f057600080fd5b6001600160e01b031984168152818360048301376000910160040190815292915050565b600082516140e08184602087016135c2565b9190910192915050565b601f82111561139657600081815260208120601f850160051c810160208610156141115750805b601f850160051c820191505b8181101561121f5782815560010161411d565b6001600160401b0383111561414757614147613c31565b61415b836141558354613f5a565b836140ea565b6000601f84116001811461418f57600085156141775750838201355b600019600387901b1c1916600186901b178355611eff565b600083815260209020601f19861690835b828110156141c057868501358255602094850194600190920191016141a0565b50868210156141dd5760001960f88860031b161c19848701351681555b505060018560011b0183555050505050565b60208152816020820152818360408301376000818301604090810191909152601f909201601f19160101919050565b81810381811115610ac257610ac2614035565b6001600160401b0381811683821601908082111561425157614251614035565b5092915050565b9687526001600160501b0395909516602087015263ffffffff939093166040860152606085019190915262ffffff1660808401526001600160401b0390811660a08401521660c082015260e00190565b634e487b7160e01b600052603160045260246000fd5b6000602082840312156142d057600080fd5b61108782613a42565b6000602082840312156142eb57600080fd5b6110878261366a565b60006020828403121561430657600080fd5b61108782613a59565b80820180821115610ac257610ac2614035565b6000845160206143358285838a016135c2565b8551918401916143488184848a016135c2565b855492019160009061435981613f5a565b600182811680156143715760018114614386576143b2565b60ff19841687528215158302870194506143b2565b896000528560002060005b848110156143aa57815489820152908301908701614391565b505082870194505b50929a9950505050505050505050565b81356143cd81613590565b81546001600160a01b031981166001600160a01b0392909216918217835560208401356143f98161355d565b6001600160c01b03199190911690911760409190911c63ffffffff60a01b1617905550565b60006001600160501b038083168185168183048111821515161561444457614444614035565b02949350505050565b63ffffffff81811683821601908082111561425157614251614035565b634e487b7160e01b600052602160045260246000fd5b82815260406020820152600061108460408301846135e6565b6000602082840312156144ab57600080fd5b5051919050565b6001600160a01b03858116825284166020820152604081018390526080606082018190526000906144e5908301846135e6565b9695505050505050565b60006020828403121561450157600080fd5b81516110878161355d56fea264697066735822122016b1ecad66fbee575ec9ddb9bd4702281578f1c3a7fea3be700a5e14ab0ddcac64736f6c63430008100033",
  "linkReferences": {},
  "deployedLinkReferences": {}
}